{"abi":[{"type":"constructor","inputs":[{"name":"_allocator","type":"address","internalType":"address"}],"stateMutability":"nonpayable"},{"type":"function","name":"_CALL3VALUE_TYPEHASH","inputs":[],"outputs":[{"name":"","type":"bytes32","internalType":"bytes32"}],"stateMutability":"view"},{"type":"function","name":"_CALL_REQUEST_TYPEHASH","inputs":[],"outputs":[{"name":"","type":"bytes32","internalType":"bytes32"}],"stateMutability":"view"},{"type":"function","name":"allocator","inputs":[],"outputs":[{"name":"","type":"address","internalType":"address"}],"stateMutability":"view"},{"type":"function","name":"callRequests","inputs":[{"name":"","type":"bytes32","internalType":"bytes32"}],"outputs":[{"name":"","type":"bool","internalType":"bool"}],"stateMutability":"view"},{"type":"function","name":"cancelOwnershipHandover","inputs":[],"outputs":[],"stateMutability":"payable"},{"type":"function","name":"completeOwnershipHandover","inputs":[{"name":"pendingOwner","type":"address","internalType":"address"}],"outputs":[],"stateMutability":"payable"},{"type":"function","name":"depositErc20","inputs":[{"name":"depositor","type":"address","internalType":"address"},{"name":"token","type":"address","internalType":"address"},{"name":"amount","type":"uint256","internalType":"uint256"},{"name":"id","type":"bytes32","internalType":"bytes32"}],"outputs":[],"stateMutability":"nonpayable"},{"type":"function","name":"depositNative","inputs":[{"name":"depositor","type":"address","internalType":"address"},{"name":"id","type":"bytes32","internalType":"bytes32"}],"outputs":[],"stateMutability":"payable"},{"type":"function","name":"eip712Domain","inputs":[],"outputs":[{"name":"fields","type":"bytes1","internalType":"bytes1"},{"name":"name","type":"string","internalType":"string"},{"name":"version","type":"string","internalType":"string"},{"name":"chainId","type":"uint256","internalType":"uint256"},{"name":"verifyingContract","type":"address","internalType":"address"},{"name":"salt","type":"bytes32","internalType":"bytes32"},{"name":"extensions","type":"uint256[]","internalType":"uint256[]"}],"stateMutability":"view"},{"type":"function","name":"execute","inputs":[{"name":"request","type":"tuple","internalType":"struct CallRequest","components":[{"name":"call3Values","type":"tuple[]","internalType":"struct Call3Value[]","components":[{"name":"target","type":"address","internalType":"address"},{"name":"allowFailure","type":"bool","internalType":"bool"},{"name":"value","type":"uint256","internalType":"uint256"},{"name":"callData","type":"bytes","internalType":"bytes"}]},{"name":"nonce","type":"uint256","internalType":"uint256"}]},{"name":"signature","type":"bytes","internalType":"bytes"}],"outputs":[{"name":"returnData","type":"tuple[]","internalType":"struct Result[]","components":[{"name":"success","type":"bool","internalType":"bool"},{"name":"returnData","type":"bytes","internalType":"bytes"}]}],"stateMutability":"nonpayable"},{"type":"function","name":"owner","inputs":[],"outputs":[{"name":"result","type":"address","internalType":"address"}],"stateMutability":"view"},{"type":"function","name":"ownershipHandoverExpiresAt","inputs":[{"name":"pendingOwner","type":"address","internalType":"address"}],"outputs":[{"name":"result","type":"uint256","internalType":"uint256"}],"stateMutability":"view"},{"type":"function","name":"renounceOwnership","inputs":[],"outputs":[],"stateMutability":"payable"},{"type":"function","name":"requestOwnershipHandover","inputs":[],"outputs":[],"stateMutability":"payable"},{"type":"function","name":"setAllocator","inputs":[{"name":"_allocator","type":"address","internalType":"address"}],"outputs":[],"stateMutability":"nonpayable"},{"type":"function","name":"transferOwnership","inputs":[{"name":"newOwner","type":"address","internalType":"address"}],"outputs":[],"stateMutability":"payable"},{"type":"event","name":"CallExecuted","inputs":[{"name":"digest","type":"bytes32","indexed":false,"internalType":"bytes32"},{"name":"target","type":"address","indexed":false,"internalType":"address"},{"name":"success","type":"bool","indexed":false,"internalType":"bool"}],"anonymous":false},{"type":"event","name":"Deposit","inputs":[{"name":"depositor","type":"address","indexed":false,"internalType":"address"},{"name":"token","type":"address","indexed":false,"internalType":"address"},{"name":"value","type":"uint256","indexed":false,"internalType":"uint256"},{"name":"id","type":"bytes32","indexed":false,"internalType":"bytes32"}],"anonymous":false},{"type":"event","name":"OwnershipHandoverCanceled","inputs":[{"name":"pendingOwner","type":"address","indexed":true,"internalType":"address"}],"anonymous":false},{"type":"event","name":"OwnershipHandoverRequested","inputs":[{"name":"pendingOwner","type":"address","indexed":true,"internalType":"address"}],"anonymous":false},{"type":"event","name":"OwnershipTransferred","inputs":[{"name":"oldOwner","type":"address","indexed":true,"internalType":"address"},{"name":"newOwner","type":"address","indexed":true,"internalType":"address"}],"anonymous":false},{"type":"error","name":"AddressCannotBeZero","inputs":[]},{"type":"error","name":"AlreadyInitialized","inputs":[]},{"type":"error","name":"CallFailed","inputs":[{"name":"returnData","type":"bytes","internalType":"bytes"}]},{"type":"error","name":"CallRequestAlreadyUsed","inputs":[]},{"type":"error","name":"InvalidSignature","inputs":[]},{"type":"error","name":"NewOwnerIsZeroAddress","inputs":[]},{"type":"error","name":"NoHandoverRequest","inputs":[]},{"type":"error","name":"Unauthorized","inputs":[]}],"bytecode":{"object":"0x6101203461016057601f6110ca38819003918201601f19168301916001600160401b038311848410176101645780849260209460405283398101031261016057516001600160a01b0381169081900361016057306080524660a05260a0610064610178565b600c81526001602082016b21b932b234ba26b0b9ba32b960a11b8152602061008a610178565b8381520192603160f81b845251902091208160c0528060e052604051917f8b73c3c69bb8fe3d512ecc4cf759cc79239f7b179b0ffacaa9a75d522b39400f835260208301526040820152466060820152306080820152209061010091825260018060a01b0319600154161760015533638b78c6d81955335f7f8be0079c531659141344cd1fd0a4f28419497f9722a3daafe3b4186f6b6457e08180a3604051610f329182610198833960805182610394015260a051826103b7015260c051826107f2015260e05182610817015251816103720152f35b5f80fd5b634e487b7160e01b5f52604160045260245ffd5b60408051919082016001600160401b038111838210176101645760405256fe60806040526004361015610011575f80fd5b5f3560e01c80632569296214610d3357806349290c1c14610cc457806354d1f13d14610c80578063715018a614610c3c57806384b0196e14610b705780638da5cb5b14610b44578063aa5dcecc14610b1c578063bf83f2a214610abe578063cf641c6114610a84578063d52bfcc814610a56578063e801795214610989578063eae335b31461094f578063f04e283e146108d3578063f2fde38b14610869578063fcf4e894146100ff5763fee81cf4146100c9575f80fd5b346100fb5760203660031901126100fb576100e2610d7c565b63389a75e1600c525f52602080600c2054604051908152f35b5f80fd5b346100fb576003196040368201126100fb5760043567ffffffffffffffff81116100fb576040816004019282360301126100fb5760243567ffffffffffffffff81116100fb57610153903690600401610e60565b61015d8380610e7e565b91905061018261016c83610ed0565b9261017a6040519485610dec565b808452610ed0565b6020830193601f19929183013686375f5b61019d8780610e7e565b90508110156102dd576101ba816101b48980610e7e565b90610ee8565b356001600160a01b03811691908290036100fb5760206101de826101b48b80610e7e565b0135918215158093036100fb5760406101fb836101b48c80610e7e565b01359261020c836101b48c80610e7e565b936060948581013590601e19813603018212156100fb570180359067ffffffffffffffff82116100fb5760200181360381136100fb5761024d913691610e2a565b60208151910120916040519560208701947ffd3926a097b5d365885a8c0afe16fa80ed4d377e8627017476dfe9729e8a6cde86526040880152860152608085015260a09081850152835260c083019280841067ffffffffffffffff8511176102c9576001936040525190206102c28288610f1e565b5201610193565b634e487b7160e01b5f52604160045260245ffd5b50604051845187929160208101918890829084905f5b81811061085057505061030d925003878101835282610dec565b5190209060246040519160208301937fdfc9a8c64618819df5e08d787c1762eee86d395a752ee183bf232570330846fb855260408401520135606082015260608152608081019181831067ffffffffffffffff8411176102c9578260405281519020917f0000000000000000000000000000000000000000000000000000000000000000917f000000000000000000000000000000000000000000000000000000000000000030147f0000000000000000000000000000000000000000000000000000000000000000461416156107c9575b50506719010000000000005f52601a52603a526042601820915f603a5260018060a01b0360015416805f9260208101926106e2575b505050156106d057815f525f60205260ff60405f2054166106be5761044f90825f525f60205260405f20600160ff1982541617905580610e7e565b61045b81939293610ed0565b936104696040519586610dec565b81855261047582610ed0565b015f5b81811061069a5750505f5b81811061050457846040518091602082016020835281518091526040830190602060408260051b8601019301915f905b8282106104c257505050500390f35b919360019193955060206104f48192603f198a82030186526040838a5180511515845201519181858201520190610d92565b96019201920185949391926104b3565b61050f818386610ee8565b6080813603126100fb57604051906080820182811067ffffffffffffffff8211176102c95760405280356001600160a01b03811681036100fb578252602081013580151581036100fb5760208301526040810135604083015267ffffffffffffffff6060820135116100fb575f61058e81923690606081013501610e60565b6060840181905283516040850151825192602001916001600160a01b03165af1903d15610692573d916105c083610e0e565b926105ce6040519485610dec565b83523d5f602085013e5b15918280610686575b61065d57600193927fdd47ada4a6a36e1356770bd8d37e79c48ff4eef3f33479164e0dacbbcc1e6e82926060926040519061061b82610dd0565b83158252602082015261062e868c610f1e565b52610639858b610f1e565b50858060a01b0390511690604051918883526020830152156040820152a101610483565b60405163a5fa8d2b60e01b815260206004820152908190610682906024830190610d92565b0390fd5b506020820151156105e1565b6060916105d8565b6020906040516106a981610dd0565b5f815260608382015282828901015201610478565b604051630929056560e31b8152600490fd5b604051638baa579f60e01b8152600490fd5b9091925060405192855f52516040526040815114610788575b604181511461074f575b6020905f60605283604052630b135d3f60e11b92838552866004860152602485019485926040845280518501604491818385019160045afa503d01915afa91511416848080610414565b60608101515f1a60205260408101516060526020600160805f825afa5182183d15176107055750505f6060526040526001848080610414565b6040810151601b8160ff1c0160205260018060ff1b03166060526020600160805f825afa5182183d15176106fb5750505f6060526040526001848080610414565b60a092507f8b73c3c69bb8fe3d512ecc4cf759cc79239f7b179b0ffacaa9a75d522b39400f82527f0000000000000000000000000000000000000000000000000000000000000000838201527f000000000000000000000000000000000000000000000000000000000000000060c08201524660e0820152610100309101522085806103df565b84518352602094850194869450909201916001016102f3565b60203660031901126100fb5761087d610d7c565b610885610eb4565b8060601b156108c65760018060a01b0316638b78c6d8198181547f8be0079c531659141344cd1fd0a4f28419497f9722a3daafe3b4186f6b6457e05f80a355005b637448fbae5f526004601cfd5b60203660031901126100fb576108e7610d7c565b6108ef610eb4565b63389a75e1600c52805f526020600c2080544211610942575f905560018060a01b0316638b78c6d8198181547f8be0079c531659141344cd1fd0a4f28419497f9722a3daafe3b4186f6b6457e05f80a355005b636f5e88185f526004601cfd5b346100fb575f3660031901126100fb5760206040517fdfc9a8c64618819df5e08d787c1762eee86d395a752ee183bf232570330846fb8152f35b346100fb5760803660031901126100fb576109a2610d7c565b6001600160a01b03906024358281168082036100fb576044359060205f6064601c826040519787606052306040523360601b602c526323b872dd60601b600c525af13d1560015f5114171615610a49577f76bb911c362d5b1feb3058bc7dc9354703e4b6eb9c61cc845f73da880cf62f61946080945f60605284604052818116155f14610a445750335b168352602083015260408201526064356060820152a1005b610a2c565b637939f4245f526004601cfd5b346100fb5760203660031901126100fb576004355f525f602052602060ff60405f2054166040519015158152f35b346100fb575f3660031901126100fb5760206040517ffd3926a097b5d365885a8c0afe16fa80ed4d377e8627017476dfe9729e8a6cde8152f35b346100fb5760203660031901126100fb57610ad7610d7c565b610adf610eb4565b6001600160a01b03168015610b0a576bffffffffffffffffffffffff60a01b60015416176001555f80f35b6040516303988b8160e61b8152600490fd5b346100fb575f3660031901126100fb576001546040516001600160a01b039091168152602090f35b346100fb575f3660031901126100fb57638b78c6d819546040516001600160a01b039091168152602090f35b346100fb575f3660031901126100fb57604051610b8c81610dd0565b600c81526020906b21b932b234ba26b0b9ba32b960a11b82820152604051610bb381610dd0565b610bf260019160018152603160f81b85820152610be460405194600f60f81b865260e08787015260e0860190610d92565b908482036040860152610d92565b924660608401523060808401525f60a084015282840360c0840152806060519485815201936080915f5b828110610c295785870386f35b8351875295810195928101928401610c1c565b5f3660031901126100fb57610c4f610eb4565b5f638b78c6d8198181547f8be0079c531659141344cd1fd0a4f28419497f9722a3daafe3b4186f6b6457e08280a355005b5f3660031901126100fb5763389a75e1600c52335f525f6020600c2055337ffa7b8eab7da67f412cc9575ed43464468f9bfbae89d1675917346ca6d8fe3c925f80a2005b60403660031901126100fb577f76bb911c362d5b1feb3058bc7dc9354703e4b6eb9c61cc845f73da880cf62f616080610cfb610d7c565b6001600160a01b0390808216610d2d575033905b604051911681525f60208201523460408201526024356060820152a1005b90610d0f565b5f3660031901126100fb5763389a75e1600c52335f526202a30042016020600c2055337fdbf36a107da19e49527a7176a1babf963b4b0ff8cde35ee35d6cd8f1f9ac7e1d5f80a2005b600435906001600160a01b03821682036100fb57565b91908251928382525f5b848110610dbc575050825f602080949584010152601f8019910116010190565b602081830181015184830182015201610d9c565b6040810190811067ffffffffffffffff8211176102c957604052565b90601f8019910116810190811067ffffffffffffffff8211176102c957604052565b67ffffffffffffffff81116102c957601f01601f191660200190565b929192610e3682610e0e565b91610e446040519384610dec565b8294818452818301116100fb578281602093845f960137010152565b9080601f830112156100fb57816020610e7b93359101610e2a565b90565b903590601e19813603018212156100fb570180359067ffffffffffffffff82116100fb57602001918160051b360383136100fb57565b638b78c6d819543303610ec357565b6382b429005f526004601cfd5b67ffffffffffffffff81116102c95760051b60200190565b9190811015610f0a5760051b81013590607e19813603018212156100fb570190565b634e487b7160e01b5f52603260045260245ffd5b8051821015610f0a5760209160051b01019056","linkReferences":{}},"methodIdentifiers":{"_CALL3VALUE_TYPEHASH()":"cf641c61","_CALL_REQUEST_TYPEHASH()":"eae335b3","allocator()":"aa5dcecc","callRequests(bytes32)":"d52bfcc8","cancelOwnershipHandover()":"54d1f13d","completeOwnershipHandover(address)":"f04e283e","depositErc20(address,address,uint256,bytes32)":"e8017952","depositNative(address,bytes32)":"49290c1c","eip712Domain()":"84b0196e","execute(((address,bool,uint256,bytes)[],uint256),bytes)":"fcf4e894","owner()":"8da5cb5b","ownershipHandoverExpiresAt(address)":"fee81cf4","renounceOwnership()":"715018a6","requestOwnershipHandover()":"25692962","setAllocator(address)":"bf83f2a2","transferOwnership(address)":"f2fde38b"},"id":66}