{"abi":[{"type":"constructor","inputs":[],"stateMutability":"nonpayable"},{"type":"function","name":"count","inputs":[],"outputs":[{"name":"","type":"uint256","internalType":"uint256"}],"stateMutability":"view"},{"type":"function","name":"decrement","inputs":[],"outputs":[],"stateMutability":"nonpayable"},{"type":"function","name":"increment","inputs":[],"outputs":[],"stateMutability":"nonpayable"},{"type":"function","name":"name","inputs":[],"outputs":[{"name":"","type":"string","internalType":"string"}],"stateMutability":"view"}],"bytecode":{"object":"0x60808060405234608f575f8055600180548181811c911680156086575b6020821014607257601f81116049575b50600e6621b7bab73a32b960c91b01905561022b90816100948239f35b815f5281601f60205f20920160051c8201915b8281106068575050602c565b5f8155018290605c565b634e487b7160e01b5f52602260045260245ffd5b90607f1690601c565b5f80fdfe608060408181526004361015610013575f80fd5b5f3560e01c91826306661abd146101dc5750816306fdde03146100a2575080632baeceb7146100835763d09de08a1461004a575f80fd5b3461007f575f36600319011261007f575f545f19811461006b576001015f55005b634e487b7160e01b5f52601160045260245ffd5b5f80fd5b3461007f575f36600319011261007f575f54801561006b575f19015f55005b3461007f575f36600319011261007f578051600180548082169392905f81841c86156101d4575b60209485821088146101c057818552858501978594879082156101a657505060011461014d575b5050601f801993849203011681019481861067ffffffffffffffff871117610139578593601f9285875281865251918280928701528686015e5f85828601015201168101030190f35b634e487b7160e01b5f52604160045260245ffd5b9085925060015f527fb10e2d527612073b26eecdfd717e6a320cf44b4afac2b0732d9fcbe2b7fa0cf6915f925b82841061018e5750505082010186806100f0565b8054848801860152869550879490930192810161017a565b925093505060ff19168752151560051b82010186806100f0565b634e487b7160e01b5f52602260045260245ffd5b607f166100c9565b3461007f575f36600319011261007f576020905f548152f3fea2646970667358221220dbafdde684aa15075edd69e16dc38cd892d1b9f12dfa4afae24be7ed8f99d5b364736f6c63430008190033","linkReferences":{}},"methodIdentifiers":{"count()":"06661abd","decrement()":"2baeceb7","increment()":"d09de08a","name()":"06fdde03"},"id":55}