{"abi":[{"type":"constructor","inputs":[{"name":"permit2","type":"address","internalType":"address"}],"stateMutability":"nonpayable"},{"type":"fallback","stateMutability":"payable"},{"type":"receive","stateMutability":"payable"},{"type":"function","name":"_EIP_712_RELAYER_WITNESS_TYPE_HASH","inputs":[],"outputs":[{"name":"","type":"bytes32","internalType":"bytes32"}],"stateMutability":"view"},{"type":"function","name":"_RELAYER_WITNESS_TYPE_STRING","inputs":[],"outputs":[{"name":"","type":"string","internalType":"string"}],"stateMutability":"view"},{"type":"function","name":"__activateTstore","inputs":[],"outputs":[],"stateMutability":"nonpayable"},{"type":"function","name":"cleanupERC20","inputs":[{"name":"token","type":"address","internalType":"address"},{"name":"refundTo","type":"address","internalType":"address"}],"outputs":[],"stateMutability":"nonpayable"},{"type":"function","name":"delegatecallMulticall","inputs":[{"name":"targets","type":"address[]","internalType":"address[]"},{"name":"datas","type":"bytes[]","internalType":"bytes[]"},{"name":"values","type":"uint256[]","internalType":"uint256[]"},{"name":"refundTo","type":"address","internalType":"address"}],"outputs":[{"name":"","type":"bytes[]","internalType":"bytes[]"}],"stateMutability":"payable"},{"type":"function","name":"onERC1155BatchReceived","inputs":[{"name":"","type":"address","internalType":"address"},{"name":"","type":"address","internalType":"address"},{"name":"_ids","type":"uint256[]","internalType":"uint256[]"},{"name":"_values","type":"uint256[]","internalType":"uint256[]"},{"name":"_data","type":"bytes","internalType":"bytes"}],"outputs":[{"name":"","type":"bytes4","internalType":"bytes4"}],"stateMutability":"nonpayable"},{"type":"function","name":"onERC1155Received","inputs":[{"name":"","type":"address","internalType":"address"},{"name":"","type":"address","internalType":"address"},{"name":"_id","type":"uint256","internalType":"uint256"},{"name":"_value","type":"uint256","internalType":"uint256"},{"name":"_data","type":"bytes","internalType":"bytes"}],"outputs":[{"name":"","type":"bytes4","internalType":"bytes4"}],"stateMutability":"nonpayable"},{"type":"function","name":"onERC721Received","inputs":[{"name":"","type":"address","internalType":"address"},{"name":"","type":"address","internalType":"address"},{"name":"_tokenId","type":"uint256","internalType":"uint256"},{"name":"_data","type":"bytes","internalType":"bytes"}],"outputs":[{"name":"","type":"bytes4","internalType":"bytes4"}],"stateMutability":"nonpayable"},{"type":"function","name":"permitMulticall","inputs":[{"name":"user","type":"address","internalType":"address"},{"name":"permit","type":"tuple","internalType":"struct ISignatureTransfer.PermitBatchTransferFrom","components":[{"name":"permitted","type":"tuple[]","internalType":"struct ISignatureTransfer.TokenPermissions[]","components":[{"name":"token","type":"address","internalType":"address"},{"name":"amount","type":"uint256","internalType":"uint256"}]},{"name":"nonce","type":"uint256","internalType":"uint256"},{"name":"deadline","type":"uint256","internalType":"uint256"}]},{"name":"targets","type":"address[]","internalType":"address[]"},{"name":"datas","type":"bytes[]","internalType":"bytes[]"},{"name":"values","type":"uint256[]","internalType":"uint256[]"},{"name":"refundTo","type":"address","internalType":"address"},{"name":"permitSignature","type":"bytes","internalType":"bytes"}],"outputs":[{"name":"","type":"bytes[]","internalType":"bytes[]"}],"stateMutability":"payable"},{"type":"error","name":"AddressEmptyCode","inputs":[{"name":"target","type":"address","internalType":"address"}]},{"type":"error","name":"AddressInsufficientBalance","inputs":[{"name":"account","type":"address","internalType":"address"}]},{"type":"error","name":"ArrayLengthsMismatch","inputs":[]},{"type":"error","name":"FailedInnerCall","inputs":[]},{"type":"error","name":"InvalidMsgSender","inputs":[{"name":"storedSender","type":"address","internalType":"address"},{"name":"actualSender","type":"address","internalType":"address"}]},{"type":"error","name":"InvalidRecipient","inputs":[{"name":"recipient","type":"address","internalType":"address"}]},{"type":"error","name":"InvalidTarget","inputs":[{"name":"target","type":"address","internalType":"address"}]},{"type":"error","name":"NativeTransferFailed","inputs":[]},{"type":"error","name":"NoRecipientSet","inputs":[]},{"type":"error","name":"OnlyDirectCalls","inputs":[]},{"type":"error","name":"SafeERC20FailedOperation","inputs":[{"name":"token","type":"address","internalType":"address"}]},{"type":"error","name":"TStoreAlreadyActivated","inputs":[]},{"type":"error","name":"TStoreNotSupported","inputs":[]},{"type":"error","name":"TloadTestContractDeploymentFailed","inputs":[]}],"bytecode":{"object":"0x61014060405234610096576115dd6020813803918261001d816100ae565b93849283398101031261009657516001600160a01b038116810361009657610044906100d8565b6040516113f790816101e6823960805181610843015260a05181610811015260c05181610eea015260e05181610d66015261010051815050610120518181816106e801528181610b1a015261118c0152f35b5f80fd5b634e487b7160e01b5f52604160045260245ffd5b6040519190601f01601f191682016001600160401b038111838210176100d357604052565b61009a565b696002601e613d5c3d52f35f52600a60165ff06001600160a01b0391908281161561019157610106816101a3565b801561017c57600160c052600360e0526005610100525b60a05260805261014c7f9b779b17422d0df92223018b32b4d1fa46e071723d6817e2486d003becc55f00600155565b6101757fde8722880b5dd233e72245d89ecf1926d842675ee7337f75a172abc8abc5ba87600255565b1661012052565b600260c052600460e05260066101005261011d565b604051632aea588760e01b8152600490fd5b5f80808093600a5a04fa3d156101e2573d6001600160401b0381116100d3576101d5601f8201601f19166020016100ae565b9081525f60203d92013e90565b9056fe60806040526004361015610015575b36610cda57005b5f3560e01c8063150b7a02146100a45780633806a3cf1461009f5780633dad0c9c1461009a57806366b9ca7b146100955780636e305f80146100905780637423eb3c1461008b578063bc197c8114610086578063c99a0d65146100815763f23a6e610361000e576109a1565b610967565b6108c0565b6107f8565b610663565b6105b9565b6103a9565b61037a565b34610174576080366003190112610174576100c060043561018a565b6100cb60243561018a565b6064356001600160401b038111610174576100ea9036906004016101b7565b906100f3610d61565b906001600160a01b0382161561017857333b15610174575f9161012f6040519485938493635c46a7ef60e11b8552604435903060048701610a86565b038183335af1801561016f57610156575b604051630a85bd0160e11b8152602090f35b0390f35b8061016361016992610202565b806101e4565b80610140565b610aba565b5f80fd5b60405163f36675c360e01b8152600490fd5b6001600160a01b0381160361017457565b600435906101a88261018a565b565b60a435906101a88261018a565b9181601f84011215610174578235916001600160401b038311610174576020838186019501011161017457565b5f91031261017457565b634e487b7160e01b5f52604160045260245ffd5b6001600160401b03811161021557604052565b6101ee565b606081019081106001600160401b0382111761021557604052565b604081019081106001600160401b0382111761021557604052565b608081019081106001600160401b0382111761021557604052565b90601f801991011681019081106001600160401b0382111761021557604052565b604051906101a882610235565b6001600160401b03811161021557601f01601f191660200190565b6040519060a082018281106001600160401b03821117610215576040526064825263756e742960e01b6080837f52656c617965725769746e657373207769746e6573732952656c61796572576960208201527f746e65737328616464726573732072656c6179657229546f6b656e5065726d6960408201527f7373696f6e73286164647265737320746f6b656e2c75696e7432353620616d6f60608201520152565b805180835260209291819084018484015e5f828201840152601f01601f1916010190565b34610174575f366003190112610174576101526103956102b4565b604051918291602083526020830190610356565b34610174576040366003190112610174576004356103c68161018a565b602435906103d38261018a565b6103db610db8565b6040516370a0823160e01b81523060048201526001600160a01b039190911691602082602481865afa91821561016f575f92610434575b5081610423575b610421610e11565b005b61042c92610e18565b5f8080610419565b9091506020813d602011610460575b816104506020938361026b565b810103126101745751905f610412565b3d9150610443565b6001600160401b0381116102155760051b60200190565b90916060828403126101745760408051906104998261021a565b819380356001600160401b03811161017457810186601f820112156101745780356020916104c682610468565b916104d38651938461026b565b808352838084019160061b830101918a8311610174578401905b82821061050c5750505084528181013590840152810135910152909150565b86828c031261017457848791825161052381610235565b843561052e8161018a565b815282850135838201528152019101906104ed565b9181601f84011215610174578235916001600160401b038311610174576020808501948460051b01011161017457565b81601f820112156101745780359061058a82610299565b92610598604051948561026b565b8284526020838301011161017457815f926020809301838601378301015290565b60e0366003190112610174576105cd61019b565b6001600160401b03602435818111610174576105ed90369060040161047f565b60443582811161017457610605903690600401610543565b60649291923584811161017457610620903690600401610543565b9160843586811161017457610639903690600401610543565b9590946106446101aa565b9760c4359081116101745761065d903690600401610573565b98610af8565b60803660031901126101745760046001600160401b0381358181116101745761068f9036908401610543565b91602435818111610174576106a79036908601610543565b91604435908111610174576106bf9036908701610543565b949093606435966106cf8861018a565b6106d7610db8565b8483148015906107ee575b6107df577f00000000000000000000000000000000000000000000000000000000000000006001600160a01b0316905f5b84811061072b5750505061072687610ec8565b611209565b737777777f279eba3d3ad8f4e708545291a6fdba8b610762610756610751848989610ad9565b610aee565b6001600160a01b031690565b146107ae5782610779610756610751848989610ad9565b1461078657600101610713565b5060405163d08525e960e01b81526001600160a01b0390921690820190815281906020010390fd5b60405163d08525e960e01b8152737777777f279eba3d3ad8f4e708545291a6fdba8b81840190815281906020010390fd5b604051631dc0052360e11b8152fd5b50868514156106e2565b34610174575f366003190112610174573233036108ae577f000000000000000000000000000000000000000000000000000000000000000080156108a3575b6108915761086b6108677f0000000000000000000000000000000000000000000000000000000000000000611334565b1590565b61087f57610421600160ff195f5416175f55565b6040516370a4078f60e01b8152600490fd5b604051630f45b98b60e41b8152600490fd5b505f5460ff16610837565b60405163096650c560e21b8152600490fd5b346101745760a0366003190112610174576108dc60043561018a565b6108e760243561018a565b6001600160401b0360443581811161017457610907903690600401610543565b60649291923582811161017457610922903690600401610543565b608494919435938411610174576101529461094461094c9536906004016101b7565b949093610bf6565b6040516001600160e01b031990911681529081906020820190565b34610174575f3660031901126101745760206040517f4910260415865c6d3ecf96968c7d912a0d533a72c3479ab1e1df0f4eb86fb0088152f35b346101745760a0366003190112610174576109bd60043561018a565b6109c860243561018a565b6084356001600160401b038111610174576109e79036906004016101b7565b906109f0610d61565b906001600160a01b0382161561017857333b15610174575f91610a306040519485938493637921219560e11b855260643590604435903060048801610ca7565b038183335af1801561016f57610a53575b60405163f23a6e6160e01b8152602090f35b80610163610a6092610202565b5f610a41565b908060209392818452848401375f828201840152601f01601f1916010190565b6001600160a01b039182168152911660208201526040810191909152608060608201819052610ab793910191610a66565b90565b6040513d5f823e3d90fd5b634e487b7160e01b5f52603260045260245ffd5b9190811015610ae95760051b0190565b610ac5565b35610ab78161018a565b919293949596979890610b09610db8565b868514801590610bc8575b610bb6577f00000000000000000000000000000000000000000000000000000000000000006001600160a01b03165f5b868110610b76575050610b568a610ec8565b8151610b65575b505050611209565b610b6e926110de565b5f8080610b5d565b81610b88610756610751848b8b610ad9565b14610b9557600101610b44565b60405163d08525e960e01b81526001600160a01b0383166004820152602490fd5b604051631dc0052360e11b8152600490fd5b5088871415610b14565b81835290916001600160fb1b0383116101745760209260051b809284830137010190565b94909290916001600160a01b03610c0b610d61565b1692831561017857333b15610174575f95610c68610c7794610c546040519a8b998a99631759616b60e11b8b523060048c015260248b015260a060448b015260a48a0191610bd2565b9060031995868984030160648a0152610bd2565b92858403016084860152610a66565b038183335af1801561016f57610c94575b5063bc197c8160e01b90565b80610163610ca192610202565b5f610c88565b9192610ab796949160a094600180871b038092168552166020840152604083015260608201528160808201520191610a66565b3d356366e0daa08160e01c14610cee573d3dfd5b193d5260043d815b809236821015610d49578135831a6001809301948115610d1d5750815301905b9091610cf6565b3d19835260020194607f9150353d1a81811115610d3e575b16010190610d16565b838101388439610d35565b5f809181305af43d5f803e15610d5d573d5ff35b3d5ffd5b6002547f000000000000000000000000000000000000000000000000000000000000000080600414610da1576003036113ad575c6001600160a01b031690565b505f5460ff1615610db2575c610756565b54610756565b600154805c6001600160a01b031680151580610e07575b80610dfd575b610ddf575033905d565b6044906040519063200991eb60e21b82526004820152336024820152fd5b5030331415610dd5565b5033811415610dcf565b5f6001545d565b915f8091610e6b9360405195602087019263a9059cbb60e01b845260018060a01b038093166024890152604488015260448752610e5487610250565b1694519082865af1610e64611305565b908361134a565b8051908115159182610ea4575b5050610e815750565b604051635274afe760e01b81526001600160a01b03919091166004820152602490fd5b81925090602091810103126101745760200151801590811503610174575f80610e78565b6001600160a01b031680158015610f47575b610f4457308114610f2c576002547f000000000000000000000000000000000000000000000000000000000000000080600214610f1b576001036113ad575d565b505f5460ff1615610f29575d565b55565b604051630bc2c5df60e11b8152306004820152602490fd5b50565b5060018114610eda565b90610f5b82610468565b604090610f6b604051918261026b565b8381528093610f7c601f1991610468565b01915f5b838110610f8d5750505050565b6020908251610f9b81610235565b5f8152825f81830152828601015201610f80565b8051821015610ae95760209160051b010190565b9081518082526020808093019301915f5b828110610fe2575050505090565b909192938260408261100960019489516020809160018060a01b0381511684520151910152565b01950193929101610fd4565b9491969593909660c086526101208601978051606060c08901528051809a526101408801996020809201915f5b8281106110b35750505050611081610ab798996110a596959493604084602061109396015160e08d015201516101008b015289820360208b0152610fc3565b6001600160a01b039094166040880152565b60608601528482036080860152610356565b9160a0818403910152610356565b835180516001600160a01b03168e52602090810151908e01526040909c019b92810192600101611042565b604080517f4910260415865c6d3ecf96968c7d912a0d533a72c3479ab1e1df0f4eb86fb0086020808301918252338385015292825292959394919391929061112760608261026b565b519020611135855151610f51565b945f5b8151805182101561118057908661115182600194610faf565b51015161115c61028c565b308152908882015261116e828a610faf565b526111798189610faf565b5001611138565b509296919590945090927f00000000000000000000000000000000000000000000000000000000000000006001600160a01b031692506111be6102b4565b94833b15610174576111eb5f96928793604051998a988997889663fe8ec1a760e01b885260048801611015565b03925af1801561016f576111fc5750565b806101636101a892610202565b9295939094861486861416156112f8578592604096611277575b5050505080611238575b5060205f526020525ff35b471561122d573381186001821402185f3881804785620186a0f161122d575f526073600b5360ff6020536016600b47f015611273575f61122d565b3838fd5b91939592839060051b9283868637838501935b82518701908681015f808435806020809701853783603f19808a8c010135908a8a0101355af1156112f0578185523d90523d5f606083013e603f601f19913d010116920195888588146112df5750959161128a565b9650505091505001925f8080611223565b3d5f803e3d5ffd5b633b800a463d526004601cfd5b3d1561132f573d9061131682610299565b91611324604051938461026b565b82523d5f602084013e565b606090565b5f80808093600a5a04fa611346611305565b5090565b90611371575080511561135f57805190602001fd5b604051630a12f52160e11b8152600490fd5b815115806113a4575b611382575090565b604051639996b31560e01b81526001600160a01b039091166004820152602490fd5b50803b1561137a565b634e487b7160e01b5f52605160045260245ffdfea2646970667358221220f0ea8721405f0e4c3b53a88273fac8cf904708bb7688e30de6ac98001dd9c00164736f6c63430008190033","linkReferences":{}},"methodIdentifiers":{"_EIP_712_RELAYER_WITNESS_TYPE_HASH()":"c99a0d65","_RELAYER_WITNESS_TYPE_STRING()":"3806a3cf","__activateTstore()":"7423eb3c","cleanupERC20(address,address)":"3dad0c9c","delegatecallMulticall(address[],bytes[],uint256[],address)":"6e305f80","onERC1155BatchReceived(address,address,uint256[],uint256[],bytes)":"bc197c81","onERC1155Received(address,address,uint256,uint256,bytes)":"f23a6e61","onERC721Received(address,address,uint256,bytes)":"150b7a02","permitMulticall(address,((address,uint256)[],uint256,uint256),address[],bytes[],uint256[],address,bytes)":"66b9ca7b"},"id":63}