{"abi":[{"type":"constructor","inputs":[{"name":"permit2","type":"address","internalType":"address"}],"stateMutability":"nonpayable"},{"type":"fallback","stateMutability":"payable"},{"type":"receive","stateMutability":"payable"},{"type":"function","name":"_EIP_712_RELAYER_WITNESS_TYPE_HASH","inputs":[],"outputs":[{"name":"","type":"bytes32","internalType":"bytes32"}],"stateMutability":"view"},{"type":"function","name":"_RELAYER_WITNESS_TYPE_STRING","inputs":[],"outputs":[{"name":"","type":"string","internalType":"string"}],"stateMutability":"view"},{"type":"function","name":"cleanupERC20","inputs":[{"name":"token","type":"address","internalType":"address"},{"name":"refundTo","type":"address","internalType":"address"}],"outputs":[],"stateMutability":"nonpayable"},{"type":"function","name":"delegatecallMulticall","inputs":[{"name":"targets","type":"address[]","internalType":"address[]"},{"name":"datas","type":"bytes[]","internalType":"bytes[]"},{"name":"values","type":"uint256[]","internalType":"uint256[]"},{"name":"refundTo","type":"address","internalType":"address"}],"outputs":[{"name":"","type":"bytes[]","internalType":"bytes[]"}],"stateMutability":"payable"},{"type":"function","name":"onERC1155BatchReceived","inputs":[{"name":"","type":"address","internalType":"address"},{"name":"","type":"address","internalType":"address"},{"name":"_ids","type":"uint256[]","internalType":"uint256[]"},{"name":"_values","type":"uint256[]","internalType":"uint256[]"},{"name":"_data","type":"bytes","internalType":"bytes"}],"outputs":[{"name":"","type":"bytes4","internalType":"bytes4"}],"stateMutability":"nonpayable"},{"type":"function","name":"onERC1155Received","inputs":[{"name":"","type":"address","internalType":"address"},{"name":"","type":"address","internalType":"address"},{"name":"_id","type":"uint256","internalType":"uint256"},{"name":"_value","type":"uint256","internalType":"uint256"},{"name":"_data","type":"bytes","internalType":"bytes"}],"outputs":[{"name":"","type":"bytes4","internalType":"bytes4"}],"stateMutability":"nonpayable"},{"type":"function","name":"onERC721Received","inputs":[{"name":"","type":"address","internalType":"address"},{"name":"","type":"address","internalType":"address"},{"name":"_tokenId","type":"uint256","internalType":"uint256"},{"name":"_data","type":"bytes","internalType":"bytes"}],"outputs":[{"name":"","type":"bytes4","internalType":"bytes4"}],"stateMutability":"nonpayable"},{"type":"function","name":"permitMulticall","inputs":[{"name":"user","type":"address","internalType":"address"},{"name":"permit","type":"tuple","internalType":"struct ISignatureTransfer.PermitBatchTransferFrom","components":[{"name":"permitted","type":"tuple[]","internalType":"struct ISignatureTransfer.TokenPermissions[]","components":[{"name":"token","type":"address","internalType":"address"},{"name":"amount","type":"uint256","internalType":"uint256"}]},{"name":"nonce","type":"uint256","internalType":"uint256"},{"name":"deadline","type":"uint256","internalType":"uint256"}]},{"name":"targets","type":"address[]","internalType":"address[]"},{"name":"datas","type":"bytes[]","internalType":"bytes[]"},{"name":"values","type":"uint256[]","internalType":"uint256[]"},{"name":"refundTo","type":"address","internalType":"address"},{"name":"permitSignature","type":"bytes","internalType":"bytes"}],"outputs":[{"name":"","type":"bytes[]","internalType":"bytes[]"}],"stateMutability":"payable"},{"type":"error","name":"AddressEmptyCode","inputs":[{"name":"target","type":"address","internalType":"address"}]},{"type":"error","name":"AddressInsufficientBalance","inputs":[{"name":"account","type":"address","internalType":"address"}]},{"type":"error","name":"ArrayLengthsMismatch","inputs":[]},{"type":"error","name":"FailedInnerCall","inputs":[]},{"type":"error","name":"InvalidRecipient","inputs":[{"name":"recipient","type":"address","internalType":"address"}]},{"type":"error","name":"InvalidTarget","inputs":[{"name":"target","type":"address","internalType":"address"}]},{"type":"error","name":"NativeTransferFailed","inputs":[]},{"type":"error","name":"NoRecipientSet","inputs":[]},{"type":"error","name":"ReentrancyGuardReentrantCall","inputs":[]},{"type":"error","name":"SafeERC20FailedOperation","inputs":[{"name":"token","type":"address","internalType":"address"}]}],"bytecode":{"object":"0x60a034609e57601f61131338819003918201601f19168301916001600160401b0383118484101760a257808492602094604052833981010312609e57516001600160a01b03811690819003609e5760015f557fde8722880b5dd233e72245d89ecf1926d842675ee7337f75a172abc8abc5ba8760015560805260405161125c90816100b782396080518181816106e801528181610a7601526110320152f35b5f80fd5b634e487b7160e01b5f52604160045260245ffdfe6080806040526004361015610017575b5036610c3157005b5f3560e01c908163150b7a021461009e575080633806a3cf146100995780633dad0c9c1461009457806366b9ca7b1461008f5780636e305f801461008a578063bc197c8114610085578063c99a0d65146100805763f23a6e611461007b575f61000f565b6108cd565b610893565b6107ec565b610663565b6105b9565b6103a8565b610379565b346101765780600319360112610176576100b9600435610189565b6100c4602435610189565b6064356001600160401b038111610176576100e39036906004016101b6565b6001545490929190610105906001600160a01b03165b6001600160a01b031690565b906001600160a01b0382161561017a57333b1561017657635c46a7ef60e11b83525f93607f199261013b929060443590306109da565b018183335af1801561017157610162575b604051630a85bd0160e11b8152602090f35b0390f35b61016c6080604052565b61014c565b610a13565b5f80fd5b63f36675c360e01b8352600483fd5b6001600160a01b0381160361017657565b600435906101a782610189565b565b60a435906101a782610189565b9181601f84011215610176578235916001600160401b038311610176576020838186019501011161017657565b5f91031261017657565b634e487b7160e01b5f52604160045260245ffd5b606081019081106001600160401b0382111761021c57604052565b6101ed565b604081019081106001600160401b0382111761021c57604052565b6001600160401b03811161021c57604052565b608081019081106001600160401b0382111761021c57604052565b90601f801991011681019081106001600160401b0382111761021c57604052565b604051906101a782610221565b6001600160401b03811161021c57601f01601f191660200190565b6040519060a082018281106001600160401b0382111761021c576040526064825263756e742960e01b6080837f52656c617965725769746e657373207769746e6573732952656c61796572576960208201527f746e65737328616464726573732072656c6179657229546f6b656e5065726d6960408201527f7373696f6e73286164647265737320746f6b656e2c75696e7432353620616d6f60608201520152565b805180835260209291819084018484015e5f828201840152601f01601f1916010190565b34610176575f3660031901126101765761015e6103946102b3565b604051918291602083526020830190610355565b34610176576040366003190112610176576004356103c581610189565b602435906103d282610189565b6103da610cb8565b6040516370a0823160e01b81523060048201526001600160a01b039190911691602082602481865afa918215610171575f92610434575b5081610423575b61042160015f55565b005b61042c92610cd9565b5f8080610418565b9091506020813d602011610460575b816104506020938361026a565b810103126101765751905f610411565b3d9150610443565b6001600160401b03811161021c5760051b60200190565b909160608284031261017657604080519061049982610201565b819380356001600160401b03811161017657810186601f820112156101765780356020916104c682610468565b916104d38651938461026a565b808352838084019160061b830101918a8311610176578401905b82821061050c5750505084528181013590840152810135910152909150565b86828c031261017657848791825161052381610221565b843561052e81610189565b815282850135838201528152019101906104ed565b9181601f84011215610176578235916001600160401b038311610176576020808501948460051b01011161017657565b81601f820112156101765780359061058a82610298565b92610598604051948561026a565b8284526020838301011161017657815f926020809301838601378301015290565b60e0366003190112610176576105cd61019a565b6001600160401b03602435818111610176576105ed90369060040161047f565b60443582811161017657610605903690600401610543565b60649291923584811161017657610620903690600401610543565b9160843586811161017657610639903690600401610543565b9590946106446101a9565b9760c4359081116101765761065d903690600401610573565b98610a54565b60803660031901126101765760046001600160401b0381358181116101765761068f9036908401610543565b91602435818111610176576106a79036908601610543565b91604435908111610176576106bf9036908701610543565b949093606435966106cf88610189565b6106d7610cb8565b8483148015906107e2575b6107d3577f00000000000000000000000000000000000000000000000000000000000000006001600160a01b0316905f5b84811061072b5750505061072687610daf565b6110af565b737777777f279eba3d3ad8f4e708545291a6fdba8b6107566100f9610751848989610a32565b610a47565b146107a2578261076d6100f9610751848989610a32565b1461077a57600101610713565b5060405163d08525e960e01b81526001600160a01b0390921690820190815281906020010390fd5b60405163d08525e960e01b8152737777777f279eba3d3ad8f4e708545291a6fdba8b81840190815281906020010390fd5b604051631dc0052360e11b8152fd5b50868514156106e2565b346101765760a036600319011261017657610808600435610189565b610813602435610189565b6001600160401b0360443581811161017657610833903690600401610543565b6064929192358281116101765761084e903690600401610543565b6084949194359384116101765761015e946108706108789536906004016101b6565b949093610b52565b6040516001600160e01b031990911681529081906020820190565b34610176575f3660031901126101765760206040517f4910260415865c6d3ecf96968c7d912a0d533a72c3479ab1e1df0f4eb86fb0088152f35b346101765760a0366003190112610176576108e9600435610189565b6108f4602435610189565b6084356001600160401b038111610176576109139036906004016101b6565b6001545490919061092c906001600160a01b03166100f9565b906001600160a01b038216156109a857333b15610176575f9161096c6040519485938493637921219560e11b855260643590604435903060048801610bfe565b038183335af180156101715761098f575b60405163f23a6e6160e01b8152602090f35b8061099c6109a29261023c565b806101e3565b5f61097d565b60405163f36675c360e01b8152600490fd5b908060209392818452848401375f828201840152601f01601f1916010190565b6001600160a01b039081166084521660a45260c452608060e4526101048290526101249190819083375f81830152601f01601f19160190565b6040513d5f823e3d90fd5b634e487b7160e01b5f52603260045260245ffd5b9190811015610a425760051b0190565b610a1e565b35610a5181610189565b90565b919293949596979890610a65610cb8565b868514801590610b24575b610b12577f00000000000000000000000000000000000000000000000000000000000000006001600160a01b03165f5b868110610ad2575050610ab28a610daf565b8151610ac1575b5050506110af565b610aca92610f84565b5f8080610ab9565b81610ae46100f9610751848b8b610a32565b14610af157600101610aa0565b60405163d08525e960e01b81526001600160a01b0383166004820152602490fd5b604051631dc0052360e11b8152600490fd5b5088871415610a70565b81835290916001600160fb1b0383116101765760209260051b809284830137010190565b949192909260018060a01b0360015454169283156109a857333b15610176575f95610bbf610bce94610bab6040519a8b998a99631759616b60e11b8b523060048c015260248b015260a060448b015260a48a0191610b2e565b9060031995868984030160648a0152610b2e565b928584030160848601526109ba565b038183335af1801561017157610beb575b5063bc197c8160e01b90565b8061099c610bf89261023c565b5f610bdf565b9192610a5196949160a094600180871b0380921685521660208401526040830152606082015281608082015201916109ba565b3d356366e0daa08160e01c14610c45573d3dfd5b193d5260043d815b809236821015610ca0578135831a6001809301948115610c745750815301905b9091610c4d565b3d19835260020194607f9150353d1a81811115610c95575b16010190610c6d565b838101388439610c8c565b5f809181305af43d5f803e15610cb4573d5ff35b3d5ffd5b60025f5414610cc75760025f55565b604051633ee5aeb560e01b8152600490fd5b915f8091610d4c9360405195602087019263a9059cbb60e01b845260018060a01b038093166024890152604488015260448752610d158761024f565b1694519082865af13d15610da7573d90610d2e82610298565b91610d3c604051938461026a565b82523d5f602084013e5b836111c3565b8051908115159182610d85575b5050610d625750565b604051635274afe760e01b81526001600160a01b03919091166004820152602490fd5b610da0925090602080610d9c9383010191016111ab565b1590565b5f80610d59565b606090610d46565b6001600160a01b031680158015610ded575b610dea57308114610dd25760015455565b604051630bc2c5df60e11b8152306004820152602490fd5b50565b5060018114610dc1565b90610e0182610468565b604090610e11604051918261026a565b8381528093610e22601f1991610468565b01915f5b838110610e335750505050565b6020908251610e4181610221565b5f8152825f81830152828601015201610e26565b8051821015610a425760209160051b010190565b9081518082526020808093019301915f5b828110610e88575050505090565b9091929382604082610eaf60019489516020809160018060a01b0381511684520151910152565b01950193929101610e7a565b9491969593909660c086526101208601978051606060c08901528051809a526101408801996020809201915f5b828110610f595750505050610f27610a519899610f4b969594936040846020610f3996015160e08d015201516101008b015289820360208b0152610e69565b6001600160a01b039094166040880152565b60608601528482036080860152610355565b9160a0818403910152610355565b835180516001600160a01b03168e52602090810151908e01526040909c019b92810192600101610ee8565b604080517f4910260415865c6d3ecf96968c7d912a0d533a72c3479ab1e1df0f4eb86fb00860208083019182523383850152928252929593949193919290610fcd60608261026a565b519020610fdb855151610df7565b945f5b81518051821015611026579086610ff782600194610e55565b51015161100261028b565b3081529088820152611014828a610e55565b5261101f8189610e55565b5001610fde565b509296919590945090927f00000000000000000000000000000000000000000000000000000000000000006001600160a01b031692506110646102b3565b94833b15610176576110915f96928793604051998a988997889663fe8ec1a760e01b885260048801610ebb565b03925af18015610171576110a25750565b8061099c6101a79261023c565b92959390948614868614161561119e57859260409661111d575b50505050806110de575b5060205f526020525ff35b47156110d3573381186001821402185f3881804785620186a0f16110d3575f526073600b5360ff6020536016600b47f015611119575f6110d3565b3838fd5b91939592839060051b9283868637838501935b82518701908681015f808435806020809701853783603f19808a8c010135908a8a0101355af115611196578185523d90523d5f606083013e603f601f19913d0101169201958885881461118557509591611130565b9650505091505001925f80806110c9565b3d5f803e3d5ffd5b633b800a463d526004601cfd5b90816020910312610176575180151581036101765790565b906111ea57508051156111d857805190602001fd5b604051630a12f52160e11b8152600490fd5b8151158061121d575b6111fb575090565b604051639996b31560e01b81526001600160a01b039091166004820152602490fd5b50803b156111f356fea2646970667358221220396be6ca03f2aad78b7abb4ae2cf0c6f9c02ac83d1cc718448d47a756709400f64736f6c63430008190033","linkReferences":{}},"methodIdentifiers":{"_EIP_712_RELAYER_WITNESS_TYPE_HASH()":"c99a0d65","_RELAYER_WITNESS_TYPE_STRING()":"3806a3cf","cleanupERC20(address,address)":"3dad0c9c","delegatecallMulticall(address[],bytes[],uint256[],address)":"6e305f80","onERC1155BatchReceived(address,address,uint256[],uint256[],bytes)":"bc197c81","onERC1155Received(address,address,uint256,uint256,bytes)":"f23a6e61","onERC721Received(address,address,uint256,bytes)":"150b7a02","permitMulticall(address,((address,uint256)[],uint256,uint256),address[],bytes[],uint256[],address,bytes)":"66b9ca7b"},"id":64}