{"abi":[{"type":"function","name":"DOMAIN_SEPARATOR","inputs":[],"outputs":[{"name":"","type":"bytes32","internalType":"bytes32"}],"stateMutability":"view"},{"type":"function","name":"allowance","inputs":[{"name":"","type":"address","internalType":"address"},{"name":"","type":"address","internalType":"address"},{"name":"","type":"address","internalType":"address"}],"outputs":[{"name":"amount","type":"uint160","internalType":"uint160"},{"name":"expiration","type":"uint48","internalType":"uint48"},{"name":"nonce","type":"uint48","internalType":"uint48"}],"stateMutability":"view"},{"type":"function","name":"approve","inputs":[{"name":"token","type":"address","internalType":"address"},{"name":"spender","type":"address","internalType":"address"},{"name":"amount","type":"uint160","internalType":"uint160"},{"name":"expiration","type":"uint48","internalType":"uint48"}],"outputs":[],"stateMutability":"nonpayable"},{"type":"function","name":"invalidateNonces","inputs":[{"name":"token","type":"address","internalType":"address"},{"name":"spender","type":"address","internalType":"address"},{"name":"newNonce","type":"uint48","internalType":"uint48"}],"outputs":[],"stateMutability":"nonpayable"},{"type":"function","name":"invalidateUnorderedNonces","inputs":[{"name":"wordPos","type":"uint256","internalType":"uint256"},{"name":"mask","type":"uint256","internalType":"uint256"}],"outputs":[],"stateMutability":"nonpayable"},{"type":"function","name":"lockdown","inputs":[{"name":"approvals","type":"tuple[]","internalType":"struct IAllowanceTransfer.TokenSpenderPair[]","components":[{"name":"token","type":"address","internalType":"address"},{"name":"spender","type":"address","internalType":"address"}]}],"outputs":[],"stateMutability":"nonpayable"},{"type":"function","name":"nonceBitmap","inputs":[{"name":"","type":"address","internalType":"address"},{"name":"","type":"uint256","internalType":"uint256"}],"outputs":[{"name":"","type":"uint256","internalType":"uint256"}],"stateMutability":"view"},{"type":"function","name":"permit","inputs":[{"name":"owner","type":"address","internalType":"address"},{"name":"permitBatch","type":"tuple","internalType":"struct IAllowanceTransfer.PermitBatch","components":[{"name":"details","type":"tuple[]","internalType":"struct IAllowanceTransfer.PermitDetails[]","components":[{"name":"token","type":"address","internalType":"address"},{"name":"amount","type":"uint160","internalType":"uint160"},{"name":"expiration","type":"uint48","internalType":"uint48"},{"name":"nonce","type":"uint48","internalType":"uint48"}]},{"name":"spender","type":"address","internalType":"address"},{"name":"sigDeadline","type":"uint256","internalType":"uint256"}]},{"name":"signature","type":"bytes","internalType":"bytes"}],"outputs":[],"stateMutability":"nonpayable"},{"type":"function","name":"permit","inputs":[{"name":"owner","type":"address","internalType":"address"},{"name":"permitSingle","type":"tuple","internalType":"struct IAllowanceTransfer.PermitSingle","components":[{"name":"details","type":"tuple","internalType":"struct IAllowanceTransfer.PermitDetails","components":[{"name":"token","type":"address","internalType":"address"},{"name":"amount","type":"uint160","internalType":"uint160"},{"name":"expiration","type":"uint48","internalType":"uint48"},{"name":"nonce","type":"uint48","internalType":"uint48"}]},{"name":"spender","type":"address","internalType":"address"},{"name":"sigDeadline","type":"uint256","internalType":"uint256"}]},{"name":"signature","type":"bytes","internalType":"bytes"}],"outputs":[],"stateMutability":"nonpayable"},{"type":"function","name":"permitTransferFrom","inputs":[{"name":"permit","type":"tuple","internalType":"struct ISignatureTransfer.PermitTransferFrom","components":[{"name":"permitted","type":"tuple","internalType":"struct ISignatureTransfer.TokenPermissions","components":[{"name":"token","type":"address","internalType":"address"},{"name":"amount","type":"uint256","internalType":"uint256"}]},{"name":"nonce","type":"uint256","internalType":"uint256"},{"name":"deadline","type":"uint256","internalType":"uint256"}]},{"name":"transferDetails","type":"tuple","internalType":"struct ISignatureTransfer.SignatureTransferDetails","components":[{"name":"to","type":"address","internalType":"address"},{"name":"requestedAmount","type":"uint256","internalType":"uint256"}]},{"name":"owner","type":"address","internalType":"address"},{"name":"signature","type":"bytes","internalType":"bytes"}],"outputs":[],"stateMutability":"nonpayable"},{"type":"function","name":"permitTransferFrom","inputs":[{"name":"permit","type":"tuple","internalType":"struct ISignatureTransfer.PermitBatchTransferFrom","components":[{"name":"permitted","type":"tuple[]","internalType":"struct ISignatureTransfer.TokenPermissions[]","components":[{"name":"token","type":"address","internalType":"address"},{"name":"amount","type":"uint256","internalType":"uint256"}]},{"name":"nonce","type":"uint256","internalType":"uint256"},{"name":"deadline","type":"uint256","internalType":"uint256"}]},{"name":"transferDetails","type":"tuple[]","internalType":"struct ISignatureTransfer.SignatureTransferDetails[]","components":[{"name":"to","type":"address","internalType":"address"},{"name":"requestedAmount","type":"uint256","internalType":"uint256"}]},{"name":"owner","type":"address","internalType":"address"},{"name":"signature","type":"bytes","internalType":"bytes"}],"outputs":[],"stateMutability":"nonpayable"},{"type":"function","name":"permitWitnessTransferFrom","inputs":[{"name":"permit","type":"tuple","internalType":"struct ISignatureTransfer.PermitTransferFrom","components":[{"name":"permitted","type":"tuple","internalType":"struct ISignatureTransfer.TokenPermissions","components":[{"name":"token","type":"address","internalType":"address"},{"name":"amount","type":"uint256","internalType":"uint256"}]},{"name":"nonce","type":"uint256","internalType":"uint256"},{"name":"deadline","type":"uint256","internalType":"uint256"}]},{"name":"transferDetails","type":"tuple","internalType":"struct ISignatureTransfer.SignatureTransferDetails","components":[{"name":"to","type":"address","internalType":"address"},{"name":"requestedAmount","type":"uint256","internalType":"uint256"}]},{"name":"owner","type":"address","internalType":"address"},{"name":"witness","type":"bytes32","internalType":"bytes32"},{"name":"witnessTypeString","type":"string","internalType":"string"},{"name":"signature","type":"bytes","internalType":"bytes"}],"outputs":[],"stateMutability":"nonpayable"},{"type":"function","name":"permitWitnessTransferFrom","inputs":[{"name":"permit","type":"tuple","internalType":"struct ISignatureTransfer.PermitBatchTransferFrom","components":[{"name":"permitted","type":"tuple[]","internalType":"struct ISignatureTransfer.TokenPermissions[]","components":[{"name":"token","type":"address","internalType":"address"},{"name":"amount","type":"uint256","internalType":"uint256"}]},{"name":"nonce","type":"uint256","internalType":"uint256"},{"name":"deadline","type":"uint256","internalType":"uint256"}]},{"name":"transferDetails","type":"tuple[]","internalType":"struct ISignatureTransfer.SignatureTransferDetails[]","components":[{"name":"to","type":"address","internalType":"address"},{"name":"requestedAmount","type":"uint256","internalType":"uint256"}]},{"name":"owner","type":"address","internalType":"address"},{"name":"witness","type":"bytes32","internalType":"bytes32"},{"name":"witnessTypeString","type":"string","internalType":"string"},{"name":"signature","type":"bytes","internalType":"bytes"}],"outputs":[],"stateMutability":"nonpayable"},{"type":"function","name":"transferFrom","inputs":[{"name":"transferDetails","type":"tuple[]","internalType":"struct IAllowanceTransfer.AllowanceTransferDetails[]","components":[{"name":"from","type":"address","internalType":"address"},{"name":"to","type":"address","internalType":"address"},{"name":"amount","type":"uint160","internalType":"uint160"},{"name":"token","type":"address","internalType":"address"}]}],"outputs":[],"stateMutability":"nonpayable"},{"type":"function","name":"transferFrom","inputs":[{"name":"from","type":"address","internalType":"address"},{"name":"to","type":"address","internalType":"address"},{"name":"amount","type":"uint160","internalType":"uint160"},{"name":"token","type":"address","internalType":"address"}],"outputs":[],"stateMutability":"nonpayable"},{"type":"event","name":"Approval","inputs":[{"name":"owner","type":"address","indexed":true,"internalType":"address"},{"name":"token","type":"address","indexed":true,"internalType":"address"},{"name":"spender","type":"address","indexed":true,"internalType":"address"},{"name":"amount","type":"uint160","indexed":false,"internalType":"uint160"},{"name":"expiration","type":"uint48","indexed":false,"internalType":"uint48"}],"anonymous":false},{"type":"event","name":"Lockdown","inputs":[{"name":"owner","type":"address","indexed":true,"internalType":"address"},{"name":"token","type":"address","indexed":false,"internalType":"address"},{"name":"spender","type":"address","indexed":false,"internalType":"address"}],"anonymous":false},{"type":"event","name":"NonceInvalidation","inputs":[{"name":"owner","type":"address","indexed":true,"internalType":"address"},{"name":"token","type":"address","indexed":true,"internalType":"address"},{"name":"spender","type":"address","indexed":true,"internalType":"address"},{"name":"newNonce","type":"uint48","indexed":false,"internalType":"uint48"},{"name":"oldNonce","type":"uint48","indexed":false,"internalType":"uint48"}],"anonymous":false},{"type":"event","name":"Permit","inputs":[{"name":"owner","type":"address","indexed":true,"internalType":"address"},{"name":"token","type":"address","indexed":true,"internalType":"address"},{"name":"spender","type":"address","indexed":true,"internalType":"address"},{"name":"amount","type":"uint160","indexed":false,"internalType":"uint160"},{"name":"expiration","type":"uint48","indexed":false,"internalType":"uint48"},{"name":"nonce","type":"uint48","indexed":false,"internalType":"uint48"}],"anonymous":false},{"type":"event","name":"UnorderedNonceInvalidation","inputs":[{"name":"owner","type":"address","indexed":true,"internalType":"address"},{"name":"word","type":"uint256","indexed":false,"internalType":"uint256"},{"name":"mask","type":"uint256","indexed":false,"internalType":"uint256"}],"anonymous":false},{"type":"error","name":"AllowanceExpired","inputs":[{"name":"deadline","type":"uint256","internalType":"uint256"}]},{"type":"error","name":"ExcessiveInvalidation","inputs":[]},{"type":"error","name":"InsufficientAllowance","inputs":[{"name":"amount","type":"uint256","internalType":"uint256"}]},{"type":"error","name":"InvalidAmount","inputs":[{"name":"maxAmount","type":"uint256","internalType":"uint256"}]},{"type":"error","name":"InvalidContractSignature","inputs":[]},{"type":"error","name":"InvalidNonce","inputs":[]},{"type":"error","name":"InvalidSignature","inputs":[]},{"type":"error","name":"InvalidSignatureLength","inputs":[]},{"type":"error","name":"InvalidSigner","inputs":[]},{"type":"error","name":"LengthMismatch","inputs":[]},{"type":"error","name":"SignatureExpired","inputs":[{"name":"signatureDeadline","type":"uint256","internalType":"uint256"}]}],"bytecode":{"object":"0x60c03460b9574660a052602081017f8cad95687ba82c2ce50e74f7b754645e5117c3a5bec8151c0726d5857980a86681527f9ac997416e8ff9d2ff6bebeb7149f65cdae5e32e2b90440b566bb3044041d36a60408301524660608301523060808301526080825260a082019180831060018060401b0384111760a35782604052519020608052611b1d90816100bf8239608051816112c3015260a0518161129d0152f35b634e487b7160e01b600052604160045260246000fd5b600080fdfe6040608081526004908136101561001557600080fd5b600090813560e01c80630d58b1db14610e8e578063137c29fe14610d0b5780632a2d80d114610ab95780632b67b5701461094357806330f28b7a146108805780633644e5151461085d57806336c78516146108135780633ff9dcb1146107b15780634fe02b441461077257806365d9723c1461066257806387517c4514610580578063927da105146104f4578063cc53287f14610413578063edd9444b146102e65763fe8ec1a7146100c657600080fd5b346102e25760c03660031901126102e2576001600160401b0383358181116102de576100f59036908601611176565b6024358281116102da5761010c9036908701611146565b61011461105a565b916084358581116102d65761012c9036908a016110ef565b98909560a4359081116102d257610145913691016110ef565b96909581519061015482610fbc565b606b82527f5065726d697442617463685769746e6573735472616e7366657246726f6d285460208301527f6f6b656e5065726d697373696f6e735b5d207065726d69747465642c61646472838301527f657373207370656e6465722c75696e74323536206e6f6e63652c75696e74323560608301526a0d88191958591b1a5b994b60aa1b608083015282519a8b91816101f160208501809661143d565b918237018a8152039961020c601f199b8c8101835282610ff2565b5190209085515161021c816114fb565b908a5b8181106102aa5750506102a7999a61029e9183516102518161024560208201809561152d565b03848101835282610ff2565b519020602089810151858b015195519182019687526040820192909252336060820152608081019190915260a081019390935260643560c08401528260e081015b03908101835282610ff2565b51902093611895565b80f35b806102c16102bb6001938c51611270565b516119f8565b6102cb8286611270565b520161021f565b8880fd5b8780fd5b8480fd5b8380fd5b5080fd5b5091346102e25760803660031901126102e2576001600160401b039080358281116102de576103189036908301611176565b6024358381116102da5761032f9036908401611146565b93909261033a61105a565b9160643590811161040f57610351913691016110ef565b94909383515197610361896114fb565b98885b8181106103ec5750506102a7979881516103948161038660208201809561152d565b03601f198101835282610ff2565b5190206020860151828701519083519260208401947ffcf35f5ac6a2c28868dc44c302166470266239195f02b0ee408334829333b7668652840152336060840152608083015260a082015260a0815261029e81610fd7565b808b610408826104026102bb6001968d51611270565b92611270565b5201610364565b8680fd5b5082346104f057602090816003193601126102de578035906001600160401b0382116102da5761044591369101611146565b929091845b848110610455578580f35b8061046b6104666001938888611355565b611365565b6104808461047a848a8a611355565b01611365565b33895283855285892091848060a01b0380911692838b528652868a20911690818a5285528589206bffffffffffffffffffffffff60a01b81541690558551918252848201527f89b1add15eff56b3dfe299ad94e01f2b52fbcb80ae1a3baea6ae8c04cb2b98a4853392a20161044a565b8280fd5b50346102e25760603660031901126102e25761057c8161051261102e565b9361051b611044565b61052361105a565b6001600160a01b03968716835260016020908152848420928816845291825283832090871683528152919020549251938316845260a083901c65ffffffffffff169084015260d09190911c604083015281906060820190565b0390f35b50346102e25760803660031901126102e25761059a61102e565b906105a3611044565b916105ac61105a565b906064359265ffffffffffff93848116908181036102d6577fda9fa7c1b00402c17d0161b249b1ab8bbec047c5a52207b9c112deffd817036b9333895260016020528389209660018060a01b0380921697888b5260205281858b20991698898b52602052848a2092841560001461065a57504216905b82546001600160d01b03191660a09290921b65ffffffffffff60a01b169190911795169485179055815193845260208401523392a480f35b905090610622565b5082346104f05760603660031901126104f05761067d61102e565b90610686611044565b9265ffffffffffff60443581811693908481036102d657338852602091600183528489209660018060a01b0380911697888b528452858a20981697888a5283528489205460d01c93848711156107635761ffff90858403161161075557503380895260018352848920878a528352848920888a52835284892080546001600160d01b031660d09390931b6001600160d01b03191692909217909155835194855290840191909152917f55eb90d810e1700b35a8e7e25395ff7f2b2259abd7415ca2284dfb1c246418f39190a480f35b8451631269ad1360e11b8152fd5b508451633ab3447f60e11b8152fd5b50346102e257806003193601126102e25760209181906001600160a01b0361079861102e565b1681528084528181206024358252845220549051908152f35b5082346104f057816003193601126104f0577f3704902f963766a4e561bbaab6e6cdc1b1dd12f6e9e99648da8843b3f46b918d90359160243533855284602052818520848652602052818520818154179055815193845260208401523392a280f35b823461085a57608036600319011261085a5761082d61102e565b610835611044565b61083d61105a565b606435916001600160a01b03831683036102da576102a793611379565b80fd5b50346102e257816003193601126102e25760209061087961129a565b9051908152f35b508290346104f0576101003660031901126104f05761089e36611084565b90806083193601126102de576108b2611013565b9160e4356001600160401b03811161093f576102a7946108d4913691016110ef565b9390926108e183516119f8565b6020840151828501519083519260208401947f939c21a48a8dbe3a9a2404a1d46691e4d39f6583d6ec6b35714604c986d801068652840152336060840152608083015260a082015260a0815261093681610fd7565b51902091611468565b8580fd5b5091346102e2576101003660031901126102e25761095f61102e565b366023190160c081126102de57608085519161097a83610fa1565b126102de5784519061098b82610f70565b6001600160a01b0391602435838116810361040f578152604435838116810361040f57602082015265ffffffffffff60643581811681036102d65788830152608435908116810361040f576060820152815260a43593828516850361093f576020820194855260c4359087830182815260e4356001600160401b0381116102d257610a1990369084016110ef565b929093804211610aa3575050918591610a936102a7999a610a9995610a3e8851611a95565b90898c511690519083519260208401947ff3841cd1ff0085026a6327b620b67997ce40f282c88a8e905a7a5626e310f3d086528401526060830152608082015260808152610a8b81610fbc565b51902061155a565b916115a1565b519251169161178a565b8a5163cd21db4f60e01b81529182015260249150fd5b5091346102e257606090600319906060823601126102de57610ad961102e565b92602435916001600160401b039384841161040f57606090843603011261093f57865196610b0688610fa1565b838201358581116102d6578401366023820112156102d6578281013590610b2c8261111c565b91610b3984519384610ff2565b80835260209560248785019260071b84010192368411610d0757602401915b838310610cab575050505088526044610b7360248601611070565b94848a01958652013592818901958487526044359081116102d257610b9b90369085016110ef565b939094804211610c955750508897985151610bb5816114fb565b908a5b818110610c6857505082889492610a9392610c35979551610be081610386858201809561152d565b51902060018060a01b03998a8a51169051918451938401947faf1b0d30d2cab0380e68f0689007e3254993c596f2fdd0aaa7f4d04f7944086386528401526060830152608082015260808152610a8b81610fbc565b51169082515192845b848110610c49578580f35b80610c628585610c5c6001958751611270565b5161178a565b01610c3e565b80610c81610c7b6001938e9f9e51611270565b51611a95565b610c8b8286611270565b52019a999a610bb8565b835163cd21db4f60e01b81529182015260249150fd5b608083360312610d0757876080918751610cc481610f70565b610ccd86611070565b8152610cda838701611070565b83820152610ce9898701611133565b89820152610cf8858701611133565b85820152815201920191610b58565b8b80fd5b5082346104f0576101403660031901126104f057610d2836611084565b91806083193601126102de57610d3c611013565b6001600160401b0393906101043585811161040f57610d5e90369086016110ef565b9093610124359687116102d657610d7e610936966102a7983691016110ef565b969095825190610d8d82610fbc565b606482527f5065726d69745769746e6573735472616e7366657246726f6d28546f6b656e5060208301527f65726d697373696f6e73207065726d69747465642c6164647265737320737065848301527f6e6465722c75696e74323536206e6f6e63652c75696e7432353620646561646c6060830152631a5b994b60e21b6080830152835194859181610e2360208501809661143d565b918237018b81520393610e3e601f1995868101835282610ff2565b51902092610e4c86516119f8565b6020878101518589015195519182019687526040820192909252336060820152608081019190915260a081019390935260e43560c08401528260e08101610292565b5082346104f0576020806003193601126102de5781356001600160401b039283821161093f573660238301121561093f578101359283116102da5760249060073660248660071b8401011161040f57865b858110610eea578780f35b80821b830190608060231983360301126102d257610f6a888760019460608351610f1381610f70565b610f4f6084610f238d8601611070565b94858452610f3360448201611070565b8097850152610f4460648201611070565b809885015201611070565b9182910152868060a01b038080809316951693169116611379565b01610edf565b608081019081106001600160401b03821117610f8b57604052565b634e487b7160e01b600052604160045260246000fd5b606081019081106001600160401b03821117610f8b57604052565b60a081019081106001600160401b03821117610f8b57604052565b60c081019081106001600160401b03821117610f8b57604052565b90601f801991011681019081106001600160401b03821117610f8b57604052565b60c435906001600160a01b038216820361102957565b600080fd5b600435906001600160a01b038216820361102957565b602435906001600160a01b038216820361102957565b604435906001600160a01b038216820361102957565b35906001600160a01b038216820361102957565b60031901906080821261102957604080519061109f82610fa1565b808294126110295780518181018181106001600160401b03821117610f8b5782526004356001600160a01b0381168103611029578152602435602082015282526044356020830152606435910152565b9181601f84011215611029578235916001600160401b038311611029576020838186019501011161102957565b6001600160401b038111610f8b5760051b60200190565b359065ffffffffffff8216820361102957565b9181601f84011215611029578235916001600160401b038311611029576020808501948460061b01011161102957565b91909160608184031261102957604080519161119183610fa1565b82948135906001600160401b039182811161102957830181601f820112156110295780356020936111c18261111c565b936111ce88519586610ff2565b828552858086019360061b85010193818511611029579086899897969594939201925b84841061120e575050505050855280820135908501520135910152565b90919293949596978483031261102957885190898201908282108583111761125b578a928992845261123f87611070565b81528287013583820152815201930191908897969594936111f1565b60246000634e487b7160e01b81526041600452fd5b80518210156112845760209160051b010190565b634e487b7160e01b600052603260045260246000fd5b467f0000000000000000000000000000000000000000000000000000000000000000036112e5577f000000000000000000000000000000000000000000000000000000000000000090565b60405160208101907f8cad95687ba82c2ce50e74f7b754645e5117c3a5bec8151c0726d5857980a86682527f9ac997416e8ff9d2ff6bebeb7149f65cdae5e32e2b90440b566bb3044041d36a60408201524660608201523060808201526080815261134f81610fbc565b51902090565b91908110156112845760061b0190565b356001600160a01b03811681036110295790565b92919260018060a01b03604060008284168152600160205282828220961695868252602052818120338252602052209485549565ffffffffffff8760a01c168042116114255750828716968388036113dc575b50506113da9550169261197c565b565b87848416116000146114015760405163f96fb07160e01b815260048101899052602490fd5b83836113da990316906bffffffffffffffffffffffff60a01b1617905538806113cc565b60249060405190636c0d979760e11b82526004820152fd5b9081519160005b838110611455575050016000815290565b8060208092840101518185015201611444565b9192909360a4359360408401518042116114e357506020845101518086116114cb5750918591610a936114a8946114a3602088015186611a47565b61155a565b51516001600160a01b03908116926084359182168203611029576113da9361197c565b60249060405190633728b83d60e01b82526004820152fd5b6024906040519063cd21db4f60e01b82526004820152fd5b906115058261111c565b6115126040519182610ff2565b8281528092611523601f199161111c565b0190602036910137565b805160208092019160005b828110611546575050505090565b835185529381019392810192600101611538565b61156261129a565b9060405190602082019261190160f01b8452602283015260428201526042815261134f81610f70565b9190826040910312611029576020823592013590565b6000843b6116b057506041820361164a576115be8282018261158b565b939092604010156112845760209360009360ff6040608095013560f81c5b60405194855216868401526040830152606082015282805260015afa1561163e576000516001600160a01b0390811691821561162c57160361161a57565b604051632057875960e21b8152600490fd5b604051638baa579f60e01b8152600490fd5b6040513d6000823e3d90fd5b6040820361169e5761165e9181019061158b565b6001600160ff1b0381169260ff91821c601b019182116116885760209360009360ff6080946115dc565b634e487b7160e01b600052601160045260246000fd5b604051634be6321b60e01b8152600490fd5b918093946020926064604051809781958294630b135d3f60e11b9b8c8552600485015260406024850152816044850152848401378181018301889052601f01601f191681010301916001600160a01b03165afa91821561177d578192611736575b50506001600160e01b0319160361172457565b604051632c19a72f60e21b8152600490fd5b9091506020813d602011611775575b8161175260209383610ff2565b810103126102e25751906001600160e01b03198216820361085a57503880611711565b3d9150611745565b50604051903d90823e3d90fd5b9065ffffffffffff908160608401511660018060a01b03908185511694826020820151169280866040809401511695169560009187835260016020528383208984526020528383209916988983526020528282209184835460d01c0361188457918561187894927fc6a377bfc4eb120024a8ac08eef205be16b817020812c73223e81d1bdb9708ec9897969450871560001461187d5742165b6001850160d01b6001600160d01b03191660a09190911b65ffffffffffff60a01b1617179055516001600160a01b03909316835265ffffffffffff938416602084015290921660408201529081906060820190565b0390a4565b5086611823565b8351633ab3447f60e11b8152600490fd5b959093958051519560409260408301518042116114e35750848803611967576118ce918691610a9360209b6114a3602088015186611a47565b60005b8681106118e2575050505050505050565b6118ed818351611270565b51886118fa83878a611355565b01359089810151808311611950575091818888886001968596611924575b505050505050016118d1565b6119459561193f92610466928a8060a01b0390511695611355565b9161197c565b803888888883611918565b602490865190633728b83d60e01b82526004820152fd5b6040516001621398b960e31b03198152600490fd5b9060006064926020958295604051946323b872dd60e01b86526004860152602485015260448401525af13d15601f3d11600160005114161716156119bc57565b60405162461bcd60e51b81526020600482015260146024820152731514905394d1915497d19493d357d1905253115160621b6044820152606490fd5b6040516020808201927f618358ac3db8dc274f0cd8829da7e234bd48cd73c4a740aede1adec9846d06a1845260018060a01b038151166040840152015160608201526060815261134f81610f70565b90600160ff82161b9160018060a01b0316600052600060205260406000209060081c6000526020526040600020818154188091551615611a8357565b604051633ab3447f60e11b8152600490fd5b60405160208101917f65626cad6cb96493bf6f5ebea28756c966f023ab9e8a83a7101849d5573b3678835260018060a01b038082511660408401526020820151166060830152606060408201519165ffffffffffff809316608085015201511660a082015260a0815260c081018181106001600160401b03821117610f8b576040525190209056","linkReferences":{}},"methodIdentifiers":{"DOMAIN_SEPARATOR()":"3644e515","allowance(address,address,address)":"927da105","approve(address,address,uint160,uint48)":"87517c45","invalidateNonces(address,address,uint48)":"65d9723c","invalidateUnorderedNonces(uint256,uint256)":"3ff9dcb1","lockdown((address,address)[])":"cc53287f","nonceBitmap(address,uint256)":"4fe02b44","permit(address,((address,uint160,uint48,uint48),address,uint256),bytes)":"2b67b570","permit(address,((address,uint160,uint48,uint48)[],address,uint256),bytes)":"2a2d80d1","permitTransferFrom(((address,uint256),uint256,uint256),(address,uint256),address,bytes)":"30f28b7a","permitTransferFrom(((address,uint256)[],uint256,uint256),(address,uint256)[],address,bytes)":"edd9444b","permitWitnessTransferFrom(((address,uint256),uint256,uint256),(address,uint256),address,bytes32,string,bytes)":"137c29fe","permitWitnessTransferFrom(((address,uint256)[],uint256,uint256),(address,uint256)[],address,bytes32,string,bytes)":"fe8ec1a7","transferFrom((address,address,uint160,address)[])":"0d58b1db","transferFrom(address,address,uint160,address)":"36c78516"},"id":35}