{"abi":[{"type":"constructor","inputs":[{"name":"owner","type":"address","internalType":"address"}],"stateMutability":"nonpayable"},{"type":"fallback","stateMutability":"payable"},{"type":"receive","stateMutability":"payable"},{"type":"function","name":"aggregate","inputs":[{"name":"targets","type":"address[]","internalType":"address[]"},{"name":"data","type":"bytes[]","internalType":"bytes[]"},{"name":"values","type":"uint256[]","internalType":"uint256[]"},{"name":"refundTo","type":"address","internalType":"address"}],"outputs":[{"name":"","type":"bytes[]","internalType":"bytes[]"}],"stateMutability":"payable"},{"type":"function","name":"cancelOwnershipHandover","inputs":[],"outputs":[],"stateMutability":"payable"},{"type":"function","name":"completeOwnershipHandover","inputs":[{"name":"pendingOwner","type":"address","internalType":"address"}],"outputs":[],"stateMutability":"payable"},{"type":"function","name":"owner","inputs":[],"outputs":[{"name":"result","type":"address","internalType":"address"}],"stateMutability":"view"},{"type":"function","name":"ownershipHandoverExpiresAt","inputs":[{"name":"pendingOwner","type":"address","internalType":"address"}],"outputs":[{"name":"result","type":"uint256","internalType":"uint256"}],"stateMutability":"view"},{"type":"function","name":"renounceOwnership","inputs":[],"outputs":[],"stateMutability":"payable"},{"type":"function","name":"requestOwnershipHandover","inputs":[],"outputs":[],"stateMutability":"payable"},{"type":"function","name":"transferOwnership","inputs":[{"name":"newOwner","type":"address","internalType":"address"}],"outputs":[],"stateMutability":"payable"},{"type":"event","name":"OwnershipHandoverCanceled","inputs":[{"name":"pendingOwner","type":"address","indexed":true,"internalType":"address"}],"anonymous":false},{"type":"event","name":"OwnershipHandoverRequested","inputs":[{"name":"pendingOwner","type":"address","indexed":true,"internalType":"address"}],"anonymous":false},{"type":"event","name":"OwnershipTransferred","inputs":[{"name":"oldOwner","type":"address","indexed":true,"internalType":"address"},{"name":"newOwner","type":"address","indexed":true,"internalType":"address"}],"anonymous":false},{"type":"error","name":"AlreadyInitialized","inputs":[]},{"type":"error","name":"ArrayLengthsMismatch","inputs":[]},{"type":"error","name":"NewOwnerIsZeroAddress","inputs":[]},{"type":"error","name":"NoHandoverRequest","inputs":[]},{"type":"error","name":"Unauthorized","inputs":[]}],"bytecode":{"object":"0x608034608a57601f6105bd38819003918201601f19168301916001600160401b03831184841017608f57808492602094604052833981010312608a57516001600160a01b03811690819003608a5780638b78c6d8195560007f8be0079c531659141344cd1fd0a4f28419497f9722a3daafe3b4186f6b6457e08180a360405161051790816100a68239f35b600080fd5b634e487b7160e01b600052604160045260246000fdfe60806040526004361015610015575b3661043857005b6000803560e01c90816325692962146100985750806354d1f13d14610093578063715018a61461008e5780638da5cb5b14610089578063991f255f14610084578063f04e283e1461007f578063f2fde38b1461007a5763fee81cf40361000e57610405565b6103c9565b610377565b610202565b610173565b61012c565b6100e5565b806003193601126100e25763389a75e1600c523381526202a30042016020600c2055337fdbf36a107da19e49527a7176a1babf963b4b0ff8cde35ee35d6cd8f1f9ac7e1d8280a280f35b80fd5b6000806003193601126100e25763389a75e1600c52338152806020600c2055337ffa7b8eab7da67f412cc9575ed43464468f9bfbae89d1675917346ca6d8fe3c928280a280f35b6000806003193601126100e2576101416104c1565b80638b78c6d8198181547f8be0079c531659141344cd1fd0a4f28419497f9722a3daafe3b4186f6b6457e08280a35580f35b346101a05760003660031901126101a057638b78c6d819546040516001600160a01b039091168152602090f35b600080fd5b9181601f840112156101a05782359167ffffffffffffffff83116101a0576020808501948460051b0101116101a057565b606435906001600160a01b03821682036101a057565b600435906001600160a01b03821682036101a057565b60803660031901126101a05767ffffffffffffffff6004358181116101a05761022f9036906004016101a5565b90916024358181116101a0576102499036906004016101a5565b9390916044359081116101a0576102649036906004016101a5565b929061026e6101d6565b936102776104c1565b8614868614161561036a5785926040966102e4575b50505050806102a3575b5060206000526020526000f35b47156102965733811860018214021860003881804785620186a0f1610296576000526073600b5360ff6020536016600b47f0156102e05738610296565b3838fd5b91939592839060051b9283868637838501935b82518701908681018235908160208095018237600080809383603f19808b8d010135908b8b0101355af115610361578286523d90523d90606083013e603f601f19913d01011692019588858814610350575095916102f7565b96505050915050019238808061028c565b503d81803e3d90fd5b633b800a463d526004601cfd5b60203660031901126101a05761038b6101ec565b6103936104c1565b63389a75e1600c52806000526020600c2090815442116103bb5760006103b992556104de565b005b636f5e88186000526004601cfd5b60203660031901126101a0576103dd6101ec565b6103e56104c1565b8060601b156103f7576103b9906104de565b637448fbae6000526004601cfd5b346101a05760203660031901126101a05761041e6101ec565b63389a75e1600c52600052602080600c2054604051908152f35b3d356366e0daa08160e01c1461044c573d3dfd5b193d5260043d815b8092368210156104a7578135831a600180930194811561047b5750815301905b9091610454565b3d19835260020194607f9150353d1a8181111561049c575b16010190610474565b838101388439610493565b600080809281305af43d82803e156104bd573d90f35b3d90fd5b638b78c6d8195433036104d057565b6382b429006000526004601cfd5b60018060a01b0316638b78c6d8198181547f8be0079c531659141344cd1fd0a4f28419497f9722a3daafe3b4186f6b6457e0600080a35556","linkReferences":{}},"methodIdentifiers":{"aggregate(address[],bytes[],uint256[],address)":"991f255f","cancelOwnershipHandover()":"54d1f13d","completeOwnershipHandover(address)":"f04e283e","owner()":"8da5cb5b","ownershipHandoverExpiresAt(address)":"fee81cf4","renounceOwnership()":"715018a6","requestOwnershipHandover()":"25692962","transferOwnership(address)":"f2fde38b"},"id":58}