{"abi":[{"type":"function","name":"UPGRADE_INTERFACE_VERSION","inputs":[],"outputs":[{"name":"","type":"string","internalType":"string"}],"stateMutability":"view"},{"type":"function","name":"__Tstorish_init","inputs":[],"outputs":[],"stateMutability":"nonpayable"},{"type":"function","name":"__activateTstore","inputs":[],"outputs":[],"stateMutability":"nonpayable"},{"type":"function","name":"cleanupErc20s","inputs":[{"name":"tokens","type":"address[]","internalType":"address[]"},{"name":"recipients","type":"address[]","internalType":"address[]"},{"name":"amounts","type":"uint256[]","internalType":"uint256[]"}],"outputs":[],"stateMutability":"nonpayable"},{"type":"function","name":"cleanupNative","inputs":[{"name":"amount","type":"uint256","internalType":"uint256"},{"name":"recipient","type":"address","internalType":"address"}],"outputs":[],"stateMutability":"nonpayable"},{"type":"function","name":"initialize","inputs":[],"outputs":[],"stateMutability":"nonpayable"},{"type":"function","name":"multicall","inputs":[{"name":"calls","type":"tuple[]","internalType":"struct Call3Value[]","components":[{"name":"target","type":"address","internalType":"address"},{"name":"allowFailure","type":"bool","internalType":"bool"},{"name":"value","type":"uint256","internalType":"uint256"},{"name":"callData","type":"bytes","internalType":"bytes"}]},{"name":"refundTo","type":"address","internalType":"address"},{"name":"nftRecipient","type":"address","internalType":"address"}],"outputs":[{"name":"returnData","type":"tuple[]","internalType":"struct Result[]","components":[{"name":"success","type":"bool","internalType":"bool"},{"name":"returnData","type":"bytes","internalType":"bytes"}]}],"stateMutability":"payable"},{"type":"function","name":"onERC1155BatchReceived","inputs":[{"name":"","type":"address","internalType":"address"},{"name":"","type":"address","internalType":"address"},{"name":"_ids","type":"uint256[]","internalType":"uint256[]"},{"name":"_values","type":"uint256[]","internalType":"uint256[]"},{"name":"_data","type":"bytes","internalType":"bytes"}],"outputs":[{"name":"","type":"bytes4","internalType":"bytes4"}],"stateMutability":"nonpayable"},{"type":"function","name":"onERC1155Received","inputs":[{"name":"","type":"address","internalType":"address"},{"name":"","type":"address","internalType":"address"},{"name":"_id","type":"uint256","internalType":"uint256"},{"name":"_value","type":"uint256","internalType":"uint256"},{"name":"_data","type":"bytes","internalType":"bytes"}],"outputs":[{"name":"","type":"bytes4","internalType":"bytes4"}],"stateMutability":"nonpayable"},{"type":"function","name":"onERC721Received","inputs":[{"name":"","type":"address","internalType":"address"},{"name":"","type":"address","internalType":"address"},{"name":"_tokenId","type":"uint256","internalType":"uint256"},{"name":"_data","type":"bytes","internalType":"bytes"}],"outputs":[{"name":"","type":"bytes4","internalType":"bytes4"}],"stateMutability":"nonpayable"},{"type":"function","name":"owner","inputs":[],"outputs":[{"name":"","type":"address","internalType":"address"}],"stateMutability":"view"},{"type":"function","name":"proxiableUUID","inputs":[],"outputs":[{"name":"","type":"bytes32","internalType":"bytes32"}],"stateMutability":"view"},{"type":"function","name":"renounceOwnership","inputs":[],"outputs":[],"stateMutability":"nonpayable"},{"type":"function","name":"transferOwnership","inputs":[{"name":"newOwner","type":"address","internalType":"address"}],"outputs":[],"stateMutability":"nonpayable"},{"type":"function","name":"upgradeToAndCall","inputs":[{"name":"newImplementation","type":"address","internalType":"address"},{"name":"data","type":"bytes","internalType":"bytes"}],"outputs":[],"stateMutability":"payable"},{"type":"event","name":"Initialized","inputs":[{"name":"version","type":"uint64","indexed":false,"internalType":"uint64"}],"anonymous":false},{"type":"event","name":"OwnershipTransferred","inputs":[{"name":"previousOwner","type":"address","indexed":true,"internalType":"address"},{"name":"newOwner","type":"address","indexed":true,"internalType":"address"}],"anonymous":false},{"type":"event","name":"SolverCallExecuted","inputs":[{"name":"to","type":"address","indexed":false,"internalType":"address"},{"name":"data","type":"bytes","indexed":false,"internalType":"bytes"},{"name":"amount","type":"uint256","indexed":false,"internalType":"uint256"}],"anonymous":false},{"type":"event","name":"Upgraded","inputs":[{"name":"implementation","type":"address","indexed":true,"internalType":"address"}],"anonymous":false},{"type":"error","name":"AddressEmptyCode","inputs":[{"name":"target","type":"address","internalType":"address"}]},{"type":"error","name":"ArrayLengthsMismatch","inputs":[]},{"type":"error","name":"ERC1967InvalidImplementation","inputs":[{"name":"implementation","type":"address","internalType":"address"}]},{"type":"error","name":"ERC1967NonPayable","inputs":[]},{"type":"error","name":"FailedInnerCall","inputs":[]},{"type":"error","name":"InvalidInitialization","inputs":[]},{"type":"error","name":"InvalidMsgSender","inputs":[{"name":"storedSender","type":"address","internalType":"address"},{"name":"actualSender","type":"address","internalType":"address"}]},{"type":"error","name":"InvalidRecipient","inputs":[{"name":"recipient","type":"address","internalType":"address"}]},{"type":"error","name":"InvalidTarget","inputs":[{"name":"target","type":"address","internalType":"address"}]},{"type":"error","name":"NativeTransferFailed","inputs":[]},{"type":"error","name":"NoRecipientSet","inputs":[]},{"type":"error","name":"NotInitializing","inputs":[]},{"type":"error","name":"OnlyDirectCalls","inputs":[]},{"type":"error","name":"OwnableInvalidOwner","inputs":[{"name":"owner","type":"address","internalType":"address"}]},{"type":"error","name":"OwnableUnauthorizedAccount","inputs":[{"name":"account","type":"address","internalType":"address"}]},{"type":"error","name":"TStoreAlreadyActivated","inputs":[]},{"type":"error","name":"TStoreNotSupported","inputs":[]},{"type":"error","name":"TloadTestContractDeploymentFailed","inputs":[]},{"type":"error","name":"UUPSUnauthorizedCallContext","inputs":[]},{"type":"error","name":"UUPSUnsupportedProxiableUUID","inputs":[{"name":"slot","type":"bytes32","internalType":"bytes32"}]}],"bytecode":{"object":"0x60a08060405234604c57306080527f9b779b17422d0df92223018b32b4d1fa46e071723d6817e2486d003becc55f005f55611737908161005182396080518181816107620152610de10152f35b5f80fdfe60806040526004361015610011575f80fd5b5f3560e01c8063150b7a02146101045780632720ee4e146100ff57806330be5567146100fa5780633b2253c8146100f55780634f1ef286146100f057806352d1902d146100eb5780635de81e3f146100e6578063715018a6146100e15780637423eb3c146100dc5780638129fc1c146100d75780638da5cb5b146100d2578063ad3cb1cc146100cd578063bc197c81146100c8578063f23a6e61146100c35763f2fde38b146100be575f80fd5b610c2a565b610b65565b610abe565b610a67565b610a33565b610910565b610872565b61080b565b6107b9565b610750565b6106d6565b610508565b61044b565b610237565b61014b565b6001600160a01b0381160361011a57565b5f80fd5b9181601f8401121561011a578235916001600160401b03831161011a576020838186019501011161011a57565b3461011a57608036600319011261011a57610167600435610109565b610172602435610109565b6064356001600160401b03811161011a5761019190369060040161011e565b9061019a6110ad565b906001600160a01b0382161561021b57333b1561011a575f916101d66040519485938493635c46a7ef60e11b8552604435903060048701610c77565b038183335af18015610216576101fd575b604051630a85bd0160e11b8152602090f35b0390f35b8061020a61021092610682565b8061022d565b5f6101e7565b610cab565b60405163f36675c360e01b8152600490fd5b5f91031261011a57565b3461011a575f36600319011261011a5761024f611118565b696002601e613d5c3d52f35f52600a60165ff06001600160a01b0381161561036d578061030161028161032893611175565b801561032a576001805467ffffffffffffffff60b01b1916600160b01b1790556102b960036001600160401b03196002541617600255565b6102e2680500000000000000006fffffffffffffffff0000000000000000196002541617600255565b6001805460ff60a81b191691151560a81b60ff60a81b16919091179055565b60018054610100600160a81b03191660089290921b610100600160a81b0316919091179055565b005b6001805467ffffffffffffffff60b01b1916600160b11b179055600280546fffffffffffffffffffffffffffffffff1916680600000000000000041790556102e2565b604051632aea588760e01b8152600490fd5b9181601f8401121561011a578235916001600160401b03831161011a576020808501948460051b01011161011a57565b805180835260209291819084018484015e5f828201840152601f01601f1916010190565b6020808201908083528351809252604092604081018260408560051b8401019601945f925b858410610409575050505050505090565b90919293949596858061043a600193603f1986820301885286838d51805115158452015191818582015201906103af565b9901940194019295949391906103f8565b606036600319011261011a576004356001600160401b03811161011a5761047690369060040161037f565b6024359061048382610109565b6044359261049084610109565b5f54805c6001600160a01b0316801515806104fe575b806104f4575b6104d6576101f96104c28787878733885d610cb6565b6104ca61118b565b604051918291826103d3565b6044906040519063200991eb60e21b82526004820152336024820152fd5b50303314156104ac565b50338114156104a6565b3461011a57606036600319011261011a5760046001600160401b03813581811161011a57610539903690840161037f565b919060243582811161011a57610552903690860161037f565b909260443590811161011a5761056b903690870161037f565b919092828614801590610664575b610653575f5b86811061058857005b61059b610596828985610da6565b610dbb565b906105aa61059682868a610da6565b916105b6828789610da6565b3561063a576040516370a0823160e01b8152308b8201908152909360209291839086908190830103816001600160a01b0386165afa801561021657600195610607945f9261060d575b5050916114d7565b0161057f565b61062c9250803d10610633575b610624818361069a565b810190610dc5565b5f806105ff565b503d61061a565b6106079060019361064c84898b610da6565b35916114d7565b604051631dc0052360e11b81528790fd5b5081831415610579565b634e487b7160e01b5f52604160045260245ffd5b6001600160401b03811161069557604052565b61066e565b90601f801991011681019081106001600160401b0382111761069557604052565b6001600160401b03811161069557601f01601f191660200190565b604036600319011261011a576004356106ee81610109565b602435906001600160401b03821161011a573660238301121561011a5781600401359061071a826106bb565b91610728604051938461069a565b808352366024828601011161011a576020815f92602461032897018387013784010152610dd4565b3461011a575f36600319011261011a577f00000000000000000000000000000000000000000000000000000000000000006001600160a01b031630036107a75760206040515f805160206116c28339815191528152f35b60405163703e46dd60e11b8152600490fd5b3461011a57604036600319011261011a576004356024356107d981610109565b6001600160a01b038116610805575033905b806107fc57506103289047906114bb565b610328916114bb565b906107eb565b3461011a575f36600319011261011a57610823611515565b5f8051602061168283398151915280546001600160a01b031981169091555f906001600160a01b03167f8be0079c531659141344cd1fd0a4f28419497f9722a3daafe3b4186f6b6457e08280a3005b3461011a575f36600319011261011a573233036108fe5760015460ff8160a81c1680156108f4575b6108e2576108bb906108b79060081c6001600160a01b0316611175565b1590565b6108d057610328600160ff1981541617600155565b6040516370a4078f60e01b8152600490fd5b604051630f45b98b60e41b8152600490fd5b5060ff811661089a565b60405163096650c560e21b8152600490fd5b3461011a575f36600319011261011a575f805160206116e2833981519152546001600160401b0360ff8260401c1615911680159081610a2b575b6001149081610a21575b159081610a18575b50610a06575f805160206116e2833981519152805467ffffffffffffffff19166001179055806109dd575b61098f610ed9565b61099557005b5f805160206116e2833981519152805460ff60401b19169055604051600181527fc7f505b2f371ae2175ee4913f4499e1f2633a7b5936321eed1cdaeb6115181d290602090a1005b5f805160206116e2833981519152805460ff60401b191668010000000000000000179055610987565b60405163f92ee8a960e01b8152600490fd5b9050155f61095c565b303b159150610954565b82915061094a565b3461011a575f36600319011261011a575f80516020611682833981519152546040516001600160a01b039091168152602090f35b3461011a575f36600319011261011a5760405160408101908082106001600160401b03831117610695576101f99160405260058152640352e302e360dc1b60208201526040519182916020835260208301906103af565b3461011a5760a036600319011261011a57610ada600435610109565b610ae5602435610109565b6001600160401b0360443581811161011a57610b0590369060040161037f565b60649291923582811161011a57610b2090369060040161037f565b60849491943593841161011a576101f994610b42610b4a95369060040161011e565b949093610f58565b6040516001600160e01b031990911681529081906020820190565b3461011a5760a036600319011261011a57610b81600435610109565b610b8c602435610109565b6084356001600160401b03811161011a57610bab90369060040161011e565b90610bb46110ad565b906001600160a01b0382161561021b57333b1561011a575f91610bf46040519485938493637921219560e11b855260643590604435903060048801611009565b038183335af1801561021657610c17575b60405163f23a6e6160e01b8152602090f35b8061020a610c2492610682565b5f610c05565b3461011a57602036600319011261011a57610328600435610c4a81610109565b610c52611515565b61103c565b908060209392818452848401375f828201840152601f01601f1916010190565b6001600160a01b039182168152911660208201526040810191909152608060608201819052610ca893910191610c57565b90565b6040513d5f823e3d90fd5b6001600160a01b0394938516919082610d04575b610cd49250611303565b92610cdd611445565b47610ce6575050565b8116610cfb5750610cf9335b47906114bb565b565b610cf990610cf2565b308314610d7a576001546001600160401b038160b01c169081600214610d44575060010361166d57610cd4925f805160206116a28339815191525d610cca565b610cd494915060ff1615610d66575f805160206116a28339815191525d610cca565b5f805160206116a283398151915255610cca565b604051630bc2c5df60e11b8152306004820152602490fd5b634e487b7160e01b5f52603260045260245ffd5b9190811015610db65760051b0190565b610d92565b35610ca881610109565b9081602091031261011a575190565b6001600160a01b039290917f00000000000000000000000000000000000000000000000000000000000000008416308114908115610ebe575b506107a7576020600494610e1f611515565b6040516352d1902d60e01b8152958691829087165afa5f9481610e9d575b50610e6357604051634c9c8ce360e01b81526001600160a01b0384166004820152602490fd5b90915f805160206116c28339815191528403610e8457610cf992935061154d565b604051632a87526960e21b815260048101859052602490fd5b610eb791955060203d60201161063357610624818361069a565b935f610e3d565b9050845f805160206116c2833981519152541614155f610e0d565b610ee1611118565b610ee9611118565b610ef23361103c565b610efa611118565b610f02611118565b696002601e613d5c3d52f35f52600a60165ff06001600160a01b0381161561036d5780610301610281610cf993611175565b81835290916001600160fb1b03831161011a5760209260051b809284830137010190565b94909290916001600160a01b03610f6d6110ad565b1692831561021b57333b1561011a575f95610fca610fd994610fb66040519a8b998a99631759616b60e11b8b523060048c015260248b015260a060448b015260a48a0191610f34565b9060031995868984030160648a0152610f34565b92858403016084860152610c57565b038183335af1801561021657610ff6575b5063bc197c8160e01b90565b8061020a61100392610682565b5f610fea565b9192610ca896949160a094600180871b038092168552166020840152604083015260608201528160808201520191610c57565b6001600160a01b03908116908115611095575f8051602061168283398151915280546001600160a01b031981168417909155167f8be0079c531659141344cd1fd0a4f28419497f9722a3daafe3b4186f6b6457e05f80a3565b604051631e4fbdf760e01b81525f6004820152602490fd5b6001600160401b0360025416806004146110e45760030361166d575f805160206116a28339815191525c5b6001600160a01b031690565b5060015460ff1615611104575f805160206116a28339815191525c6110d8565b5f805160206116a2833981519152546110d8565b60ff5f805160206116e28339815191525460401c161561113457565b604051631afcd79f60e31b8152600490fd5b3d15611170573d90611157826106bb565b91611165604051938461069a565b82523d5f602084013e565b606090565b5f80808093600a5a04fa611187611146565b5090565b5f80545d565b6001600160401b0381116106955760051b60200190565b906111b282611191565b6040906111c2604051918261069a565b83815280936111d3601f1991611191565b01905f5b8281106111e45750505050565b835190848201918083106001600160401b038411176106955760209286525f8152826060818301528285010152016111d7565b8051821015610db65760209160051b010190565b9190811015610db65760051b81013590607e198136030182121561011a570190565b903590601e198136030182121561011a57018035906001600160401b03821161011a5760200191813603831361011a57565b908092918237015f815290565b949392916040926112b29260018060a01b03168752606060208801526060870191610c57565b930152565b156112be57565b60405162461bcd60e51b815260206004820152601a60248201527f4d756c746963616c6c333a2076616c7565206d69736d617463680000000000006044820152606490fd5b9190915f90611311846111a8565b935f5b81811061132957505050610cf99034146112b7565b6113338187611217565b519361134082848661122b565b604090818101358093019661135482610dbb565b905f80606085019387611367868861124d565b91906113778a518094819361127f565b03925af1611396611386611146565b9160209283850152839015159052565b815181850135171561140b57505160019594939291906113bb575b5050505001611314565b7f93485dcd31a905e3ffd7b012abe3438fa8fa77f98ddc9f50e879d3fa7ccdc324936113f36113ff926113ed85610dbb565b9461124d565b9094519485948561128c565b0390a15f8080806113b1565b62461bcd60e51b5f5260045260176024527f4d756c746963616c6c333a2063616c6c206661696c656400000000000000000060445260845ffd5b6001600160a01b036114556110ad565b1615610cf9576001600160401b0360025460401c168060061461148b5760050361166d575f5f805160206116a28339815191525d565b5060015460ff16156114a9575f5f805160206116a28339815191525d565b5f5f805160206116a283398151915255565b5f80809338935af1156114ca57565b63b12d13eb5f526004601cfd5b60105f604492602095829560145260345263a9059cbb60601b82525af13d1560015f5114171615611508575f603452565b6390b8ec185f526004601cfd5b5f80516020611682833981519152546001600160a01b0316330361153557565b60405163118cdaa760e01b8152336004820152602490fd5b90813b156115d1575f805160206116c283398151915280546001600160a01b0319166001600160a01b0384169081179091557fbc7cd75a20ee27fd9adebab32041f755214dbc6bffa90cc0225b39da2e5c2d3b5f80a28051156115b6576115b3916115f2565b50565b5050346115bf57565b60405163b398979f60e01b8152600490fd5b604051634c9c8ce360e01b81526001600160a01b0383166004820152602490fd5b5f80610ca893602081519101845af4611609611146565b9190611631575080511561161f57805190602001fd5b604051630a12f52160e11b8152600490fd5b81511580611664575b611642575090565b604051639996b31560e01b81526001600160a01b039091166004820152602490fd5b50803b1561163a565b634e487b7160e01b5f52605160045260245ffdfe9016d09d72d40fdae2fd8ceac6b6234c7706214fd39c1cd1e609a0528c19930072dc4effd7d159affb1f4d451190a65a842cb9499f45eb1ae60b404ca68ad9d8360894a13ba1a3210667c828492db98dca3e2076cc3735a920a3ca505d382bbcf0c57e16840df040f15088dc2f81fe391c3923bec73e23a9662efc9c229c6a00a26469706673582212200eeca0e3da7a10a78bfdeda11b3ddc4c02d4f6ecf3a81082e2405716556352d464736f6c63430008190033","linkReferences":{}},"methodIdentifiers":{"UPGRADE_INTERFACE_VERSION()":"ad3cb1cc","__Tstorish_init()":"2720ee4e","__activateTstore()":"7423eb3c","cleanupErc20s(address[],address[],uint256[])":"3b2253c8","cleanupNative(uint256,address)":"5de81e3f","initialize()":"8129fc1c","multicall((address,bool,uint256,bytes)[],address,address)":"30be5567","onERC1155BatchReceived(address,address,uint256[],uint256[],bytes)":"bc197c81","onERC1155Received(address,address,uint256,uint256,bytes)":"f23a6e61","onERC721Received(address,address,uint256,bytes)":"150b7a02","owner()":"8da5cb5b","proxiableUUID()":"52d1902d","renounceOwnership()":"715018a6","transferOwnership(address)":"f2fde38b","upgradeToAndCall(address,bytes)":"4f1ef286"},"id":78}