{"abi":[{"type":"constructor","inputs":[{"name":"solver","type":"address","internalType":"address"}],"stateMutability":"nonpayable"},{"type":"fallback","stateMutability":"payable"},{"type":"function","name":"forward","inputs":[{"name":"data","type":"bytes","internalType":"bytes"}],"outputs":[],"stateMutability":"payable"},{"type":"function","name":"makeCalls","inputs":[{"name":"calls","type":"tuple[]","internalType":"struct RelayReceiver.Call[]","components":[{"name":"to","type":"address","internalType":"address"},{"name":"data","type":"bytes","internalType":"bytes"},{"name":"value","type":"uint256","internalType":"uint256"}]}],"outputs":[],"stateMutability":"payable"},{"type":"event","name":"FundsForwardedWithData","inputs":[{"name":"data","type":"bytes","indexed":false,"internalType":"bytes"}],"anonymous":false},{"type":"error","name":"CallFailed","inputs":[]},{"type":"error","name":"NativeTransferFailed","inputs":[]},{"type":"error","name":"Unauthorized","inputs":[]}],"bytecode":{"object":"0x60a034607357601f6104a738819003918201601f19168301916001600160401b03831184841017607857808492602094604052833981010312607357516001600160a01b0381168103607357608052604051610418908161008f823960805181818160ab01528181610139015261037d0152f35b600080fd5b634e487b7160e01b600052604160045260246000fdfe60806040526004361015610018575b610016610377565b005b6000803560e01c908163d948d4681461003b575063dd4ed8370361000e576100e9565b60203660031901126100e65760043567ffffffffffffffff8082116100e257366023830112156100e25781600401359081116100e25736602482840101116100e2577f936c2ca3b35d2d0b24057b0675c459e4515f48fe132d138e213ae59ffab7f53e916100dc6024926100cf347f00000000000000000000000000000000000000000000000000000000000000006103f3565b60405193849301836101e7565b0390a180f35b8280fd5b80fd5b6020806003193601126101e25760049067ffffffffffffffff9082358281116101e257366023820112156101e25780600401359283116101e2576024810190602436918560051b0101116101e2577f00000000000000000000000000000000000000000000000000000000000000006001600160a01b031633036101d15760005b83811061017357005b61018661018182868561020f565b6102c4565b805160009081906001600160a01b0316926040938785830151920151918883519301915af16101b3610351565b50156101c2575060010161016a565b51633204506f60e01b81528590fd5b6040516282b42960e81b8152600490fd5b600080fd5b90918060409360208452816020850152848401376000828201840152601f01601f1916010190565b91908110156102315760051b81013590605e19813603018212156101e2570190565b634e487b7160e01b600052603260045260246000fd5b634e487b7160e01b600052604160045260246000fd5b604051906060820182811067ffffffffffffffff82111761027d57604052565b610247565b6040519190601f01601f1916820167ffffffffffffffff81118382101761027d57604052565b67ffffffffffffffff811161027d57601f01601f191660200190565b6060813603126101e2576102d661025d565b9080356001600160a01b03811681036101e25782526020908181013567ffffffffffffffff81116101e25781019136601f840112156101e25782359061032361031e836102a8565b610282565b91808352368282870101116101e2578181600092826040980183870137840101528401520135604082015290565b3d15610372573d9061036561031e836102a8565b9182523d6000602084013e565b606090565b6103a1347f00000000000000000000000000000000000000000000000000000000000000006103f3565b7f936c2ca3b35d2d0b24057b0675c459e4515f48fe132d138e213ae59ffab7f53e604051602081523660208201523660006040830137600060403683010152604081601f19601f3601168101030190a1565b60008080938193620186a0f11561040657565b604051633d2cec6f60e21b8152600490fd","linkReferences":{}},"methodIdentifiers":{"forward(bytes)":"d948d468","makeCalls((address,bytes,uint256)[])":"dd4ed837"},"id":61}