{"abi":[{"type":"constructor","inputs":[{"name":"_owner","type":"address","internalType":"address"},{"name":"_router","type":"address","internalType":"address"},{"name":"_permit2","type":"address","internalType":"address"}],"stateMutability":"nonpayable"},{"type":"receive","stateMutability":"payable"},{"type":"function","name":"_CALL3VALUE_TYPEHASH","inputs":[],"outputs":[{"name":"","type":"bytes32","internalType":"bytes32"}],"stateMutability":"view"},{"type":"function","name":"_EIP_712_RELAYER_WITNESS_TYPE_HASH","inputs":[],"outputs":[{"name":"","type":"bytes32","internalType":"bytes32"}],"stateMutability":"view"},{"type":"function","name":"_RELAYER_WITNESS_TYPE_STRING","inputs":[],"outputs":[{"name":"","type":"string","internalType":"string"}],"stateMutability":"view"},{"type":"function","name":"cancelOwnershipHandover","inputs":[],"outputs":[],"stateMutability":"payable"},{"type":"function","name":"completeOwnershipHandover","inputs":[{"name":"pendingOwner","type":"address","internalType":"address"}],"outputs":[],"stateMutability":"payable"},{"type":"function","name":"owner","inputs":[],"outputs":[{"name":"result","type":"address","internalType":"address"}],"stateMutability":"view"},{"type":"function","name":"ownershipHandoverExpiresAt","inputs":[{"name":"pendingOwner","type":"address","internalType":"address"}],"outputs":[{"name":"result","type":"uint256","internalType":"uint256"}],"stateMutability":"view"},{"type":"function","name":"permit2TransferAndMulticall","inputs":[{"name":"user","type":"address","internalType":"address"},{"name":"permit","type":"tuple","internalType":"struct ISignatureTransfer.PermitBatchTransferFrom","components":[{"name":"permitted","type":"tuple[]","internalType":"struct ISignatureTransfer.TokenPermissions[]","components":[{"name":"token","type":"address","internalType":"address"},{"name":"amount","type":"uint256","internalType":"uint256"}]},{"name":"nonce","type":"uint256","internalType":"uint256"},{"name":"deadline","type":"uint256","internalType":"uint256"}]},{"name":"calls","type":"tuple[]","internalType":"struct Call3Value[]","components":[{"name":"target","type":"address","internalType":"address"},{"name":"allowFailure","type":"bool","internalType":"bool"},{"name":"value","type":"uint256","internalType":"uint256"},{"name":"callData","type":"bytes","internalType":"bytes"}]},{"name":"refundTo","type":"address","internalType":"address"},{"name":"nftRecipient","type":"address","internalType":"address"},{"name":"permitSignature","type":"bytes","internalType":"bytes"}],"outputs":[{"name":"returnData","type":"tuple[]","internalType":"struct Result[]","components":[{"name":"success","type":"bool","internalType":"bool"},{"name":"returnData","type":"bytes","internalType":"bytes"}]}],"stateMutability":"payable"},{"type":"function","name":"permitTransferAndMulticall","inputs":[{"name":"permits","type":"tuple[]","internalType":"struct Permit[]","components":[{"name":"token","type":"address","internalType":"address"},{"name":"owner","type":"address","internalType":"address"},{"name":"value","type":"uint256","internalType":"uint256"},{"name":"nonce","type":"uint256","internalType":"uint256"},{"name":"deadline","type":"uint256","internalType":"uint256"},{"name":"v","type":"uint8","internalType":"uint8"},{"name":"r","type":"bytes32","internalType":"bytes32"},{"name":"s","type":"bytes32","internalType":"bytes32"}]},{"name":"calls","type":"tuple[]","internalType":"struct Call3Value[]","components":[{"name":"target","type":"address","internalType":"address"},{"name":"allowFailure","type":"bool","internalType":"bool"},{"name":"value","type":"uint256","internalType":"uint256"},{"name":"callData","type":"bytes","internalType":"bytes"}]},{"name":"refundTo","type":"address","internalType":"address"},{"name":"nftRecipient","type":"address","internalType":"address"}],"outputs":[{"name":"returnData","type":"tuple[]","internalType":"struct Result[]","components":[{"name":"success","type":"bool","internalType":"bool"},{"name":"returnData","type":"bytes","internalType":"bytes"}]}],"stateMutability":"payable"},{"type":"function","name":"renounceOwnership","inputs":[],"outputs":[],"stateMutability":"payable"},{"type":"function","name":"requestOwnershipHandover","inputs":[],"outputs":[],"stateMutability":"payable"},{"type":"function","name":"router","inputs":[],"outputs":[{"name":"","type":"address","internalType":"address"}],"stateMutability":"view"},{"type":"function","name":"setPermit2","inputs":[{"name":"_permit2","type":"address","internalType":"address"}],"outputs":[],"stateMutability":"nonpayable"},{"type":"function","name":"setRouter","inputs":[{"name":"_router","type":"address","internalType":"address"}],"outputs":[],"stateMutability":"nonpayable"},{"type":"function","name":"transferAndMulticall","inputs":[{"name":"tokens","type":"address[]","internalType":"address[]"},{"name":"amounts","type":"uint256[]","internalType":"uint256[]"},{"name":"calls","type":"tuple[]","internalType":"struct Call3Value[]","components":[{"name":"target","type":"address","internalType":"address"},{"name":"allowFailure","type":"bool","internalType":"bool"},{"name":"value","type":"uint256","internalType":"uint256"},{"name":"callData","type":"bytes","internalType":"bytes"}]},{"name":"refundTo","type":"address","internalType":"address"},{"name":"nftRecipient","type":"address","internalType":"address"}],"outputs":[{"name":"returnData","type":"tuple[]","internalType":"struct Result[]","components":[{"name":"success","type":"bool","internalType":"bool"},{"name":"returnData","type":"bytes","internalType":"bytes"}]}],"stateMutability":"payable"},{"type":"function","name":"transferOwnership","inputs":[{"name":"newOwner","type":"address","internalType":"address"}],"outputs":[],"stateMutability":"payable"},{"type":"function","name":"withdraw","inputs":[],"outputs":[],"stateMutability":"nonpayable"},{"type":"event","name":"OwnershipHandoverCanceled","inputs":[{"name":"pendingOwner","type":"address","indexed":true,"internalType":"address"}],"anonymous":false},{"type":"event","name":"OwnershipHandoverRequested","inputs":[{"name":"pendingOwner","type":"address","indexed":true,"internalType":"address"}],"anonymous":false},{"type":"event","name":"OwnershipTransferred","inputs":[{"name":"oldOwner","type":"address","indexed":true,"internalType":"address"},{"name":"newOwner","type":"address","indexed":true,"internalType":"address"}],"anonymous":false},{"type":"event","name":"Permit2Updated","inputs":[{"name":"newPermit2","type":"address","indexed":false,"internalType":"address"}],"anonymous":false},{"type":"event","name":"RouterUpdated","inputs":[{"name":"newRouter","type":"address","indexed":false,"internalType":"address"}],"anonymous":false},{"type":"error","name":"AddressEmptyCode","inputs":[{"name":"target","type":"address","internalType":"address"}]},{"type":"error","name":"AddressInsufficientBalance","inputs":[{"name":"account","type":"address","internalType":"address"}]},{"type":"error","name":"AlreadyInitialized","inputs":[]},{"type":"error","name":"ArrayLengthsMismatch","inputs":[]},{"type":"error","name":"FailedInnerCall","inputs":[]},{"type":"error","name":"NativeTransferFailed","inputs":[]},{"type":"error","name":"NewOwnerIsZeroAddress","inputs":[]},{"type":"error","name":"NoHandoverRequest","inputs":[]},{"type":"error","name":"RefundToCannotBeZeroAddress","inputs":[]},{"type":"error","name":"SafeERC20FailedOperation","inputs":[{"name":"token","type":"address","internalType":"address"}]},{"type":"error","name":"Unauthorized","inputs":[]}],"bytecode":{"object":"0x60803460bd57601f6119e338819003918201601f19168301916001600160401b0383118484101760c25780849260609460405283398101031260bd5760428160d8565b6056604060506020850160d8565b930160d8565b6001600160a01b03918216638b78c6d81981905560007f8be0079c531659141344cd1fd0a4f28419497f9722a3daafe3b4186f6b6457e08180a38160018060a01b03199316836000541617600055169060015416176001556040516118f790816100ec8239f35b600080fd5b634e487b7160e01b600052604160045260246000fd5b51906001600160a01b038216820360bd5756fe6080604052600436101561001b575b361561001957600080fd5b005b60003560e01c8063101ec30a1461012b57806325692962146101265780633087505614610121578063337390821461011c5780633806a3cf146101175780633ccfd60b1461011257806354d1f13d1461010d578063715018a6146101085780638da5cb5b14610103578063a0a6ce7f146100fe578063c0d78655146100f9578063c99a0d65146100f4578063cf641c61146100ef578063f04e283e146100ea578063f2fde38b146100e5578063f887ea40146100e05763fee81cf40361000e57610c0a565b610be1565b610ba1565b610b4d565b610b12565b610ad7565b610a67565b6109dc565b6109af565b610968565b610921565b6108e2565b6108b2565b61061f565b610335565b6101f5565b61017a565b6001600160a01b0381160361014157565b600080fd5b6064359061015382610130565b565b6084359061015382610130565b6044359061015382610130565b359061015382610130565b34610141576020366003190112610141577faecfd826d6b270962e6ff81f57b75e8527073ef343cbb38af801b8a972c7846160206004356101ba81610130565b6101c26113a3565b600180546001600160a01b0319166001600160a01b03929092169182179055604051908152a1005b600091031261014157565b6000806003193601126102415763389a75e1600c523381526202a30042016020600c2055337fdbf36a107da19e49527a7176a1babf963b4b0ff8cde35ee35d6cd8f1f9ac7e1d8280a280f35b80fd5b9181601f84011215610141578235916001600160401b038311610141576020808501948460051b01011161014157565b60005b8381106102875750506000910152565b8181015183820152602001610277565b906020916102b081518092818552858086019101610274565b601f01601f1916010190565b6020808201908083528351809252604092604081018260408560051b8401019601946000925b8584106102f3575050505050505090565b909192939495968580610324600193603f1986820301885286838d5180511515845201519181858201520190610297565b9901940194019295949391906102e2565b60a03660031901126101415760046001600160401b038135818111610141576103619036908401610244565b6024939193358381116101415761037b9036908401610244565b949093604435908111610141576103959036908501610244565b939091606435956103a587610130565b608435946103b286610130565b8881036104be576001600160a01b038816156104ad5760005b81811061046b578860008989898961041a6103fe6103f26103f2885460018060a01b031690565b6001600160a01b031690565b93604051978896879586956330be556760e01b87528601610dab565b039134905af180156104665761043f91600091610443575b50604051918291826102bc565b0390f35b61046091503d806000833e610458818361056a565b810190610c80565b82610432565b610eb1565b806104a76104876103f2610482600195878a610c57565b610c6c565b6000546001600160a01b031661049e848f89610c57565b359133906113c0565b016103cb565b60405163fc62e08f60e01b81528490fd5b604051631dc0052360e11b81528490fd5b634e487b7160e01b600052604160045260246000fd5b606081019081106001600160401b0382111761050057604052565b6104cf565b604081019081106001600160401b0382111761050057604052565b61010081019081106001600160401b0382111761050057604052565b6001600160401b03811161050057604052565b60a081019081106001600160401b0382111761050057604052565b90601f801991011681019081106001600160401b0382111761050057604052565b6040519061015382610505565b6001600160401b0381116105005760051b60200190565b6001600160401b03811161050057601f01601f191660200190565b9291926105d6826105af565b916105e4604051938461056a565b829481845281830111610141578281602093846000960137010152565b9080601f830112156101415781602061061c933591016105ca565b90565b60031960c0368201126101415760043561063881610130565b602435916001600160401b039081841161014157606090843603011261014157604091825193610667856104e5565b8060040135838111610141578101366023820112156101415760048101359061068f82610598565b9161069c8751938461056a565b8083526020906024602085019160061b8401019236841161014157602401905b838210610737575050505090604491865260248101356020870152013583850152604435828111610141576106f5903690600401610244565b6106fd610146565b90610706610155565b9260a4359586116101415761043f9761072661072c973690600401610601565b95610ebd565b9051918291826102bc565b888236031261014157828991825161074e81610505565b843561075981610130565b815282850135838201528152019101906106bc565b6040519061012082018281106001600160401b038211176105005760405260ec82526b7432353620616d6f756e742960a01b610100837f52656c617965725769746e657373207769746e6573732952656c61796572576960208201527f746e65737328616464726573732072656c617965722c6164647265737320726560408201527f66756e64546f2c61646472657373206e6674526563697069656e742c43616c6c60608201527f3356616c75655b5d2063616c6c3356616c7565732943616c6c3356616c75652860808201527f61646472657373207461726765742c626f6f6c20616c6c6f774661696c75726560a08201527f2c75696e743235362076616c75652c62797465732063616c6c4461746129546f60c08201527f6b656e5065726d697373696f6e73286164647265737320746f6b656e2c75696e60e08201520152565b346101415760003660031901126101415761043f6108ce61076e565b604051918291602083526020830190610297565b3461014157600080600319360112610241576108fc6113a3565b808080804733620186a0f11561090f5780f35b604051633d2cec6f60e21b8152600490fd5b6000806003193601126102415763389a75e1600c52338152806020600c2055337ffa7b8eab7da67f412cc9575ed43464468f9bfbae89d1675917346ca6d8fe3c928280a280f35b6000806003193601126102415761097d6113a3565b80638b78c6d8198181547f8be0079c531659141344cd1fd0a4f28419497f9722a3daafe3b4186f6b6457e08280a35580f35b3461014157600036600319011261014157638b78c6d819546040516001600160a01b039091168152602090f35b6080366003190112610141576004356001600160401b03808211610141573660238301121561014157816004013591818311610141573660248460081b83010111610141576024359182116101415761043f92610a40610a5b933690600401610244565b90610a49610162565b926024610a54610146565b950161128a565b604051918291826102bc565b34610141576020366003190112610141577f7aed1d3e8155a07ccf395e44ea3109a0e2d6c9b29bbbe9f142d9790596f4dc806020600435610aa781610130565b610aaf6113a3565b600080546001600160a01b0319166001600160a01b03929092169182179055604051908152a1005b346101415760003660031901126101415760206040517fe23dc67d94bc5ccc95cdaa7f8c7e41f4c3b78d9d1e7baad8604a2773456e2b3c8152f35b346101415760003660031901126101415760206040517ffd3926a097b5d365885a8c0afe16fa80ed4d377e8627017476dfe9729e8a6cde8152f35b602036600319011261014157600435610b6581610130565b610b6d6113a3565b63389a75e1600c52806000526020600c209081544211610b9357600061001992556116f4565b636f5e88186000526004601cfd5b602036600319011261014157600435610bb981610130565b610bc16113a3565b8060601b15610bd357610019906116f4565b637448fbae6000526004601cfd5b34610141576000366003190112610141576000546040516001600160a01b039091168152602090f35b3461014157602036600319011261014157600435610c2781610130565b63389a75e1600c52600052602080600c2054604051908152f35b634e487b7160e01b600052603260045260246000fd5b9190811015610c675760051b0190565b610c41565b3561061c81610130565b8015150361014157565b9060209081838203126101415782516001600160401b039384821161014157019080601f83011215610141578151610cb781610598565b94604092610cc78451978861056a565b828752858088019360051b8601019481861161014157868101935b868510610cf457505050505050505090565b845184811161014157820186601f19828603011261014157865190610d1882610505565b89810151610d2581610c76565b8252878101519086821161014157019184603f84011215610141578983015191610d4e836105af565b610d5a8a51918261056a565b838152868a858701011161014157610d7b8c959486958c8785019101610274565b83820152815201940193610ce2565b908060209392818452848401376000828201840152601f01601f1916010190565b919493929460609080606085016060865252608090608085019260808260051b8701019480946000915b848310610e0257505050506001600160a01b03978816602086015250505091909316604090930192909252565b90919293949596607f198982030183528735607e19833603018112156101415782018035610e2f81610130565b6001600160a01b0316825260209080820135610e4a81610c76565b1515828401526040808201359084015286810135601e198236030181121561014157018181359101926001600160401b0382116101415781360384136101415760019383928b83818c610ea09601520191610d8a565b990193019301919594939290610dd5565b6040513d6000823e3d90fd5b9596959192916001600160a01b038516156111e1578751610f46575b5050600080549596509394610ef8906103f2906001600160a01b031681565b91610f19604051968795869485946330be556760e01b865260048601610dab565b039134905af190811561046657600091610f31575090565b61061c91503d806000833e610458818361056a565b95919692610f56889692966114a3565b9460005b8981106110fb575060405160209681610f77602082018093611547565b0391610f8b601f199384810183528261056a565b519020604080517fe23dc67d94bc5ccc95cdaa7f8c7e41f4c3b78d9d1e7baad8604a2773456e2b3c6020820190815233928201929092526001600160a01b0385811660608301528716608082015260a081019290925260c0928301825291610ff3908261056a565b51902091611002885151611574565b60008054919b6001600160a01b0390921699905b8151805182101561106e5790611067818f8e8e8061103685600199611533565b5101519061105461104561058b565b6001600160a01b039094168452565b8201526110618383611533565b52611533565b5001611016565b50509499939850949990959196506110906103f260015460018060a01b031690565b9161109961076e565b94833b15610141576110c76000969287936040519c8d988997889663fe8ec1a760e01b88526004880161162a565b03925af1938415610466576000946110e2575b869594610ed9565b806110ef6110f59261053c565b806101ea565b386110da565b8061110f6104826001938d879d9c9d6114d5565b8b6111ca60206111bc61112d8261112788878d6114d5565b016114f7565b938961116161115a6111508a604095866111488383896114d5565b0135956114d5565b6060810190611501565b36916105ca565b8481519101209151958694850197889094939260809260a08301967ffd3926a097b5d365885a8c0afe16fa80ed4d377e8627017476dfe9729e8a6cde845260018060a01b031660208401521515604083015260608201520152565b03601f19810183528261056a565b5190206111d7828a611533565b5201979697610f5a565b60405163fc62e08f60e01b8152600490fd5b9190811015610c675760081b0190565b359060ff8216820361014157565b610100813603126101415760e06040519161122b83610520565b6112348161016f565b83526112426020820161016f565b602084015260408101356040840152606081013560608401526080810135608084015261127160a08201611203565b60a084015260c081013560c0840152013560e082015290565b95949392906001600160a01b038416156111e15760005b8181106112c7575050600080549596509394610ef8906103f2906001600160a01b031681565b6112da6112d582848b6111f3565b611211565b6020810180519092919033906112f8906001600160a01b03166103f2565b03611392576001928161137861136a6103f261131d61138c965160018060a01b031690565b855190949061135d906001600160a01b031660408301968751608085015161134960a087015160ff1690565b9160c08701519360e088015195309161173c565b516001600160a01b031690565b92516001600160a01b031690565b6000546001600160a01b03169151926113c0565b016112a1565b6040516282b42960e81b8152600490fd5b638b78c6d8195433036113b257565b6382b429006000526004601cfd5b6040516323b872dd60e01b602082019081526001600160a01b03938416602483015293831660448201526064808201959095529384526114409260009283926114088761054f565b1694519082865af13d1561149b573d90611421826105af565b9161142f604051938461056a565b82523d6000602084013e5b83611894565b8051908115159182611479575b50506114565750565b604051635274afe760e01b81526001600160a01b03919091166004820152602490fd5b61149492509060208061149093830101910161187f565b1590565b388061144d565b60609061143a565b906114ad82610598565b6114ba604051918261056a565b82815280926114cb601f1991610598565b0190602036910137565b9190811015610c675760051b81013590607e1981360301821215610141570190565b3561061c81610c76565b903590601e198136030182121561014157018035906001600160401b0382116101415760200191813603831361014157565b8051821015610c675760209160051b010190565b805160208092019160005b828110611560575050505090565b835185529381019392810192600101611552565b9061157e82610598565b60409061158e604051918261056a565b838152809361159f601f1991610598565b019160009060005b8481106115b5575050505050565b60209082516115c381610505565b8481528285818301528287010152016115a7565b90815180825260208080930193019160005b8281106115f7575050505090565b909192938260408261161e60019489516020809160018060a01b0381511684520151910152565b019501939291016115e9565b9491969593909660c086526101208601978051606060c08901528051809a5261014088019960208092019160005b8281106116c9575050505061169761061c98996116bb9695949360408460206116a996015160e08d015201516101008b015289820360208b01526115d7565b6001600160a01b039094166040880152565b60608601528482036080860152610297565b9160a0818403910152610297565b835180516001600160a01b03168e52602090810151908e01526040909c019b92810192600101611658565b60018060a01b0316638b78c6d8198181547f8be0079c531659141344cd1fd0a4f28419497f9722a3daafe3b4186f6b6457e0600080a355565b90816020910312610141575190565b92966001600160a01b03909316959094919390929190863b156101415760405163d505accf60e01b81526001600160a01b0387811660048301528616602482015260448101899052606481019190915260ff91909116608482015260a481019290925260c482015260008160e48183885af1908161186c575b5061186657604051636eb1769f60e11b81526001600160a01b0392831660048201529116602482015290602090829060449082905afa90811561046657600091611837575b5010156101535760405162461bcd60e51b815260206004820152600e60248201526d5065726d6974206661696c75726560901b6044820152606490fd5b611859915060203d60201161185f575b611851818361056a565b81019061172d565b386117fa565b503d611847565b50505050565b806110ef6118799261053c565b386117b5565b90816020910312610141575161061c81610c76565b906118bb57508051156118a957805190602001fd5b604051630a12f52160e11b8152600490fd5b815115806118ee575b6118cc575090565b604051639996b31560e01b81526001600160a01b039091166004820152602490fd5b50803b156118c456","linkReferences":{}},"methodIdentifiers":{"_CALL3VALUE_TYPEHASH()":"cf641c61","_EIP_712_RELAYER_WITNESS_TYPE_HASH()":"c99a0d65","_RELAYER_WITNESS_TYPE_STRING()":"3806a3cf","cancelOwnershipHandover()":"54d1f13d","completeOwnershipHandover(address)":"f04e283e","owner()":"8da5cb5b","ownershipHandoverExpiresAt(address)":"fee81cf4","permit2TransferAndMulticall(address,((address,uint256)[],uint256,uint256),(address,bool,uint256,bytes)[],address,address,bytes)":"33739082","permitTransferAndMulticall((address,address,uint256,uint256,uint256,uint8,bytes32,bytes32)[],(address,bool,uint256,bytes)[],address,address)":"a0a6ce7f","renounceOwnership()":"715018a6","requestOwnershipHandover()":"25692962","router()":"f887ea40","setPermit2(address)":"101ec30a","setRouter(address)":"c0d78655","transferAndMulticall(address[],uint256[],(address,bool,uint256,bytes)[],address,address)":"30875056","transferOwnership(address)":"f2fde38b","withdraw()":"3ccfd60b"},"id":65}