{"abi":[{"type":"function","name":"DOMAIN_SEPARATOR","inputs":[],"outputs":[{"name":"","type":"bytes32","internalType":"bytes32"}],"stateMutability":"view"},{"type":"function","name":"invalidateUnorderedNonces","inputs":[{"name":"wordPos","type":"uint256","internalType":"uint256"},{"name":"mask","type":"uint256","internalType":"uint256"}],"outputs":[],"stateMutability":"nonpayable"},{"type":"function","name":"nonceBitmap","inputs":[{"name":"","type":"address","internalType":"address"},{"name":"","type":"uint256","internalType":"uint256"}],"outputs":[{"name":"","type":"uint256","internalType":"uint256"}],"stateMutability":"view"},{"type":"function","name":"permitTransferFrom","inputs":[{"name":"permit","type":"tuple","internalType":"struct ISignatureTransfer.PermitTransferFrom","components":[{"name":"permitted","type":"tuple","internalType":"struct ISignatureTransfer.TokenPermissions","components":[{"name":"token","type":"address","internalType":"address"},{"name":"amount","type":"uint256","internalType":"uint256"}]},{"name":"nonce","type":"uint256","internalType":"uint256"},{"name":"deadline","type":"uint256","internalType":"uint256"}]},{"name":"transferDetails","type":"tuple","internalType":"struct ISignatureTransfer.SignatureTransferDetails","components":[{"name":"to","type":"address","internalType":"address"},{"name":"requestedAmount","type":"uint256","internalType":"uint256"}]},{"name":"owner","type":"address","internalType":"address"},{"name":"signature","type":"bytes","internalType":"bytes"}],"outputs":[],"stateMutability":"nonpayable"},{"type":"function","name":"permitTransferFrom","inputs":[{"name":"permit","type":"tuple","internalType":"struct ISignatureTransfer.PermitBatchTransferFrom","components":[{"name":"permitted","type":"tuple[]","internalType":"struct ISignatureTransfer.TokenPermissions[]","components":[{"name":"token","type":"address","internalType":"address"},{"name":"amount","type":"uint256","internalType":"uint256"}]},{"name":"nonce","type":"uint256","internalType":"uint256"},{"name":"deadline","type":"uint256","internalType":"uint256"}]},{"name":"transferDetails","type":"tuple[]","internalType":"struct ISignatureTransfer.SignatureTransferDetails[]","components":[{"name":"to","type":"address","internalType":"address"},{"name":"requestedAmount","type":"uint256","internalType":"uint256"}]},{"name":"owner","type":"address","internalType":"address"},{"name":"signature","type":"bytes","internalType":"bytes"}],"outputs":[],"stateMutability":"nonpayable"},{"type":"function","name":"permitWitnessTransferFrom","inputs":[{"name":"permit","type":"tuple","internalType":"struct ISignatureTransfer.PermitTransferFrom","components":[{"name":"permitted","type":"tuple","internalType":"struct ISignatureTransfer.TokenPermissions","components":[{"name":"token","type":"address","internalType":"address"},{"name":"amount","type":"uint256","internalType":"uint256"}]},{"name":"nonce","type":"uint256","internalType":"uint256"},{"name":"deadline","type":"uint256","internalType":"uint256"}]},{"name":"transferDetails","type":"tuple","internalType":"struct ISignatureTransfer.SignatureTransferDetails","components":[{"name":"to","type":"address","internalType":"address"},{"name":"requestedAmount","type":"uint256","internalType":"uint256"}]},{"name":"owner","type":"address","internalType":"address"},{"name":"witness","type":"bytes32","internalType":"bytes32"},{"name":"witnessTypeString","type":"string","internalType":"string"},{"name":"signature","type":"bytes","internalType":"bytes"}],"outputs":[],"stateMutability":"nonpayable"},{"type":"function","name":"permitWitnessTransferFrom","inputs":[{"name":"permit","type":"tuple","internalType":"struct ISignatureTransfer.PermitBatchTransferFrom","components":[{"name":"permitted","type":"tuple[]","internalType":"struct ISignatureTransfer.TokenPermissions[]","components":[{"name":"token","type":"address","internalType":"address"},{"name":"amount","type":"uint256","internalType":"uint256"}]},{"name":"nonce","type":"uint256","internalType":"uint256"},{"name":"deadline","type":"uint256","internalType":"uint256"}]},{"name":"transferDetails","type":"tuple[]","internalType":"struct ISignatureTransfer.SignatureTransferDetails[]","components":[{"name":"to","type":"address","internalType":"address"},{"name":"requestedAmount","type":"uint256","internalType":"uint256"}]},{"name":"owner","type":"address","internalType":"address"},{"name":"witness","type":"bytes32","internalType":"bytes32"},{"name":"witnessTypeString","type":"string","internalType":"string"},{"name":"signature","type":"bytes","internalType":"bytes"}],"outputs":[],"stateMutability":"nonpayable"},{"type":"event","name":"UnorderedNonceInvalidation","inputs":[{"name":"owner","type":"address","indexed":true,"internalType":"address"},{"name":"word","type":"uint256","indexed":false,"internalType":"uint256"},{"name":"mask","type":"uint256","indexed":false,"internalType":"uint256"}],"anonymous":false},{"type":"error","name":"InvalidAmount","inputs":[{"name":"maxAmount","type":"uint256","internalType":"uint256"}]},{"type":"error","name":"InvalidContractSignature","inputs":[]},{"type":"error","name":"InvalidNonce","inputs":[]},{"type":"error","name":"InvalidSignature","inputs":[]},{"type":"error","name":"InvalidSignatureLength","inputs":[]},{"type":"error","name":"InvalidSigner","inputs":[]},{"type":"error","name":"LengthMismatch","inputs":[]},{"type":"error","name":"SignatureExpired","inputs":[{"name":"signatureDeadline","type":"uint256","internalType":"uint256"}]}],"bytecode":{"object":"0x60c03460b9574660a052602081017f8cad95687ba82c2ce50e74f7b754645e5117c3a5bec8151c0726d5857980a86681527f9ac997416e8ff9d2ff6bebeb7149f65cdae5e32e2b90440b566bb3044041d36a60408301524660608301523060808301526080825260a082019180831060018060401b0384111760a35782604052519020608052610fd490816100bf8239608051816109ab015260a051816109850152f35b634e487b7160e01b600052604160045260246000fd5b600080fdfe6040608081526004908136101561001557600080fd5b600090813560e01c8063137c29fe1461054957806330f28b7a146104865780633644e515146104635780633ff9dcb1146104015780634fe02b44146103bb578063edd9444b1461028e5763fe8ec1a71461006e57600080fd5b3461028a5760c036600319011261028a576001600160401b0383358181116102865761009d903690860161084f565b602435828111610282576100b49036908701610952565b6100bc61078a565b9160843585811161027e576100d49036908a0161080b565b98909560a43590811161027a576100ed9136910161080b565b9690958151906100fc826106fd565b606b82527f5065726d697442617463685769746e6573735472616e7366657246726f6d285460208301527f6f6b656e5065726d697373696f6e735b5d207065726d69747465642c61646472838301527f657373207370656e6465722c75696e74323536206e6f6e63652c75696e74323560608301526a0d88191958591b1a5b994b60aa1b608083015282519a8b9181610199602085018096610a3d565b918237018a815203996101b4601f199b8c810183528261074e565b519020908551516101c481610b03565b908a5b81811061025257505061024f999a6102469183516101f9816101ed602082018095610b5f565b0384810183528261074e565b519020602089810151858b015195519182019687526040820192909252336060820152608081019190915260a081019390935260643560c08401528260e081015b0390810183528261074e565b51902093610b9c565b80f35b806102696102636001938c51610b35565b51610c88565b6102738286610b35565b52016101c7565b8880fd5b8780fd5b8480fd5b8380fd5b5080fd5b50913461028a57608036600319011261028a576001600160401b03908035828111610286576102c0903690830161084f565b602435838111610282576102d79036908401610952565b9390926102e261078a565b916064359081116103b7576102f99136910161080b565b9490938351519761030989610b03565b98885b81811061039457505061024f9798815161033c8161032e602082018095610b5f565b03601f19810183528261074e565b5190206020860151828701519083519260208401947ffcf35f5ac6a2c28868dc44c302166470266239195f02b0ee408334829333b7668652840152336060840152608083015260a082015260a0815261024681610733565b808b6103b0826103aa6102636001968d51610b35565b92610b35565b520161030c565b8680fd5b5082346103fd57816003193601126103fd57356001600160a01b038116908190036103fd57828291602094528084528181206024358252845220549051908152f35b8280fd5b5082346103fd57816003193601126103fd577f3704902f963766a4e561bbaab6e6cdc1b1dd12f6e9e99648da8843b3f46b918d90359160243533855284602052818520848652602052818520818154179055815193845260208401523392a280f35b503461028a578160031936011261028a5760209061047f610982565b9051908152f35b508290346103fd576101003660031901126103fd576104a4366107a0565b9080608319360112610286576104b861076f565b9160e4356001600160401b0381116105455761024f946104da9136910161080b565b9390926104e78351610c88565b6020840151828501519083519260208401947f939c21a48a8dbe3a9a2404a1d46691e4d39f6583d6ec6b35714604c986d801068652840152336060840152608083015260a082015260a0815261053c81610733565b51902091610a68565b8580fd5b5082346103fd576101403660031901126103fd57610566366107a0565b91806083193601126102865761057a61076f565b6001600160401b039390610104358581116103b75761059c903690860161080b565b90936101243596871161027e576105bc61053c9661024f9836910161080b565b9690958251906105cb826106fd565b606482527f5065726d69745769746e6573735472616e7366657246726f6d28546f6b656e5060208301527f65726d697373696f6e73207065726d69747465642c6164647265737320737065848301527f6e6465722c75696e74323536206e6f6e63652c75696e7432353620646561646c6060830152631a5b994b60e21b6080830152835194859181610661602085018096610a3d565b918237018b8152039361067c601f199586810183528261074e565b5190209261068a8651610c88565b6020878101518589015195519182019687526040820192909252336060820152608081019190915260a081019390935260e43560c08401528260e0810161023a565b606081019081106001600160401b038211176106e757604052565b634e487b7160e01b600052604160045260246000fd5b60a081019081106001600160401b038211176106e757604052565b608081019081106001600160401b038211176106e757604052565b60c081019081106001600160401b038211176106e757604052565b90601f801991011681019081106001600160401b038211176106e757604052565b60c435906001600160a01b038216820361078557565b600080fd5b604435906001600160a01b038216820361078557565b6003190190608082126107855760408051906107bb826106cc565b808294126107855780518181018181106001600160401b038211176106e75782526004356001600160a01b0381168103610785578152602435602082015282526044356020830152606435910152565b9181601f84011215610785578235916001600160401b038311610785576020838186019501011161078557565b6001600160401b0381116106e75760051b60200190565b91909160608184031261078557604080519161086a836106cc565b82948135906001600160401b039182811161078557830181601f8201121561078557803560209361089a82610838565b936108a78851958661074e565b828552858086019360061b85010193818511610785579086899897969594939201925b8484106108e7575050505050855280820135908501520135910152565b909192939495969784830312610785578851908982018281108582111761093d578a528435906001600160a01b0382168203610785578289928c94528287013583820152815201930191908897969594936108ca565b60246000634e487b7160e01b81526041600452fd5b9181601f84011215610785578235916001600160401b038311610785576020808501948460061b01011161078557565b467f0000000000000000000000000000000000000000000000000000000000000000036109cd577f000000000000000000000000000000000000000000000000000000000000000090565b60405160208101907f8cad95687ba82c2ce50e74f7b754645e5117c3a5bec8151c0726d5857980a86682527f9ac997416e8ff9d2ff6bebeb7149f65cdae5e32e2b90440b566bb3044041d36a604082015246606082015230608082015260808152610a37816106fd565b51902090565b9081519160005b838110610a55575050016000815290565b8060208092840101518185015201610a44565b9192909360a435936040840151804211610aeb5750602084510151808611610ad35750918591610aa8610aae94610aa3602088015186610cd7565b610d25565b91610d6c565b51516001600160a01b0390811692608435918216820361078557610ad193610f58565b565b60249060405190633728b83d60e01b82526004820152fd5b6024906040519063cd21db4f60e01b82526004820152fd5b90610b0d82610838565b610b1a604051918261074e565b8281528092610b2b601f1991610838565b0190602036910137565b8051821015610b495760209160051b010190565b634e487b7160e01b600052603260045260246000fd5b805160208092019160005b828110610b78575050505090565b835185529381019392810192600101610b6a565b9190811015610b495760061b0190565b9091959395815151956040956040840151804211610aeb5750828803610c7357610bd6918691610aa860209b610aa3602089015186610cd7565b60009160005b878110610bee57505050505050505050565b610bf9818351610b35565b5189610c06838689610b8c565b0135908a810151808311610c5c575081610c25575b5050600101610bdc565b516001600160a01b03908116610c3c84878a610b8c565b3591821682036103b75791610c55918960019594610f58565b9038610c1b565b6024908a5190633728b83d60e01b82526004820152fd5b6040516001621398b960e31b03198152600490fd5b6040516020808201927f618358ac3db8dc274f0cd8829da7e234bd48cd73c4a740aede1adec9846d06a1845260018060a01b0381511660408401520151606082015260608152610a3781610718565b90600160ff82161b9160018060a01b0316600052600060205260406000209060081c6000526020526040600020818154188091551615610d1357565b604051633ab3447f60e11b8152600490fd5b610d2d610982565b9060405190602082019261190160f01b84526022830152604282015260428152610a3781610718565b9190826040910312610785576020823592013590565b6000843b610e7b575060418203610e1557610d8982820182610d56565b93909260401015610b495760209360009360ff6040608095013560f81c5b60405194855216868401526040830152606082015282805260015afa15610e09576000516001600160a01b03908116918215610df7571603610de557565b604051632057875960e21b8152600490fd5b604051638baa579f60e01b8152600490fd5b6040513d6000823e3d90fd5b60408203610e6957610e2991810190610d56565b6001600160ff1b0381169260ff91821c601b01918211610e535760209360009360ff608094610da7565b634e487b7160e01b600052601160045260246000fd5b604051634be6321b60e01b8152600490fd5b918093946020926064604051809781958294630b135d3f60e11b9b8c8552600485015260406024850152816044850152848401378181018301889052601f01601f191681010301916001600160a01b03165afa918215610f4b578192610f01575b50506001600160e01b03191603610eef57565b604051632c19a72f60e21b8152600490fd5b9091506020813d602011610f43575b81610f1d6020938361074e565b8101031261028a5751906001600160e01b031982168203610f4057503880610edc565b80fd5b3d9150610f10565b50604051903d90823e3d90fd5b9060006064926020958295604051946323b872dd60e01b86526004860152602485015260448401525af13d15601f3d1160016000511416171615610f9857565b60405162461bcd60e51b81526020600482015260146024820152731514905394d1915497d19493d357d1905253115160621b6044820152606490fd","linkReferences":{}},"methodIdentifiers":{"DOMAIN_SEPARATOR()":"3644e515","invalidateUnorderedNonces(uint256,uint256)":"3ff9dcb1","nonceBitmap(address,uint256)":"4fe02b44","permitTransferFrom(((address,uint256),uint256,uint256),(address,uint256),address,bytes)":"30f28b7a","permitTransferFrom(((address,uint256)[],uint256,uint256),(address,uint256)[],address,bytes)":"edd9444b","permitWitnessTransferFrom(((address,uint256),uint256,uint256),(address,uint256),address,bytes32,string,bytes)":"137c29fe","permitWitnessTransferFrom(((address,uint256)[],uint256,uint256),(address,uint256)[],address,bytes32,string,bytes)":"fe8ec1a7"},"id":37}