{"abi":[{"type":"fallback","stateMutability":"payable"},{"type":"receive","stateMutability":"payable"},{"type":"function","name":"aggregate","inputs":[{"name":"targets","type":"address[]","internalType":"address[]"},{"name":"data","type":"bytes[]","internalType":"bytes[]"},{"name":"values","type":"uint256[]","internalType":"uint256[]"},{"name":"refundTo","type":"address","internalType":"address"}],"outputs":[{"name":"","type":"bytes[]","internalType":"bytes[]"}],"stateMutability":"payable"},{"type":"error","name":"ArrayLengthsMismatch","inputs":[]}],"bytecode":{"object":"0x6080806040523460155761027d908161001b8239f35b600080fdfe60806040526004361015610015575b366101f457005b6000803560e01c63991f255f1461002c575061000e565b60803660031901126100aa5767ffffffffffffffff6004358181116100b5576100599036906004016100b9565b916024358181116100b1576100729036906004016100b9565b916044359081116100ad5761008b9036906004016100b9565b6064359690959194906001600160a01b03881688036100aa57506100ef565b80fd5b8580fd5b8480fd5b8280fd5b9181601f840112156100ea5782359167ffffffffffffffff83116100ea576020808501948460051b0101116100ea57565b600080fd5b9295939094861486861416156101e7578592604096610161575b5050505080610120575b5060206000526020526000f35b47156101135733811860018214021860003881804785620186a0f1610113576000526073600b5360ff6020536016600b47f01561015d5738610113565b3838fd5b91939592839060051b9283868637838501935b82518701908681018235908160208095018237600080809383603f19808b8d010135908b8b0101355af1156101de578286523d90523d90606083013e603f601f19913d010116920195888588146101cd57509591610174565b965050509150500192388080610109565b503d81803e3d90fd5b633b800a463d526004601cfd5b3d356366e0daa08160e01c14610208573d3dfd5b193d5260043d815b809236821015610263578135831a60018093019481156102375750815301905b9091610210565b3d19835260020194607f9150353d1a81811115610258575b16010190610230565b83810138843961024f565b600080809281305af43d82803e15610279573d90f35b3d90fd","linkReferences":{}},"methodIdentifiers":{"aggregate(address[],bytes[],uint256[],address)":"991f255f"},"id":56}