{"abi":[{"type":"constructor","inputs":[],"stateMutability":"nonpayable"},{"type":"receive","stateMutability":"payable"},{"type":"function","name":"__activateTstore","inputs":[],"outputs":[],"stateMutability":"nonpayable"},{"type":"function","name":"cleanupErc20s","inputs":[{"name":"tokens","type":"address[]","internalType":"address[]"},{"name":"recipients","type":"address[]","internalType":"address[]"},{"name":"amounts","type":"uint256[]","internalType":"uint256[]"}],"outputs":[],"stateMutability":"nonpayable"},{"type":"function","name":"cleanupErc20sViaCall","inputs":[{"name":"tokens","type":"address[]","internalType":"address[]"},{"name":"tos","type":"address[]","internalType":"address[]"},{"name":"datas","type":"bytes[]","internalType":"bytes[]"},{"name":"amounts","type":"uint256[]","internalType":"uint256[]"}],"outputs":[],"stateMutability":"nonpayable"},{"type":"function","name":"cleanupNative","inputs":[{"name":"amount","type":"uint256","internalType":"uint256"},{"name":"recipient","type":"address","internalType":"address"}],"outputs":[],"stateMutability":"nonpayable"},{"type":"function","name":"cleanupNativeViaCall","inputs":[{"name":"amount","type":"uint256","internalType":"uint256"},{"name":"to","type":"address","internalType":"address"},{"name":"data","type":"bytes","internalType":"bytes"}],"outputs":[],"stateMutability":"nonpayable"},{"type":"function","name":"multicall","inputs":[{"name":"calls","type":"tuple[]","internalType":"struct Call3Value[]","components":[{"name":"target","type":"address","internalType":"address"},{"name":"allowFailure","type":"bool","internalType":"bool"},{"name":"value","type":"uint256","internalType":"uint256"},{"name":"callData","type":"bytes","internalType":"bytes"}]},{"name":"refundTo","type":"address","internalType":"address"},{"name":"nftRecipient","type":"address","internalType":"address"}],"outputs":[{"name":"returnData","type":"tuple[]","internalType":"struct Result[]","components":[{"name":"success","type":"bool","internalType":"bool"},{"name":"returnData","type":"bytes","internalType":"bytes"}]}],"stateMutability":"payable"},{"type":"function","name":"onERC1155BatchReceived","inputs":[{"name":"","type":"address","internalType":"address"},{"name":"","type":"address","internalType":"address"},{"name":"_ids","type":"uint256[]","internalType":"uint256[]"},{"name":"_values","type":"uint256[]","internalType":"uint256[]"},{"name":"_data","type":"bytes","internalType":"bytes"}],"outputs":[{"name":"","type":"bytes4","internalType":"bytes4"}],"stateMutability":"nonpayable"},{"type":"function","name":"onERC1155Received","inputs":[{"name":"","type":"address","internalType":"address"},{"name":"","type":"address","internalType":"address"},{"name":"_id","type":"uint256","internalType":"uint256"},{"name":"_value","type":"uint256","internalType":"uint256"},{"name":"_data","type":"bytes","internalType":"bytes"}],"outputs":[{"name":"","type":"bytes4","internalType":"bytes4"}],"stateMutability":"nonpayable"},{"type":"function","name":"onERC721Received","inputs":[{"name":"","type":"address","internalType":"address"},{"name":"","type":"address","internalType":"address"},{"name":"_tokenId","type":"uint256","internalType":"uint256"},{"name":"_data","type":"bytes","internalType":"bytes"}],"outputs":[{"name":"","type":"bytes4","internalType":"bytes4"}],"stateMutability":"nonpayable"},{"type":"event","name":"SolverCallExecuted","inputs":[{"name":"to","type":"address","indexed":false,"internalType":"address"},{"name":"data","type":"bytes","indexed":false,"internalType":"bytes"},{"name":"amount","type":"uint256","indexed":false,"internalType":"uint256"}],"anonymous":false},{"type":"event","name":"SolverNativeTransfer","inputs":[{"name":"to","type":"address","indexed":false,"internalType":"address"},{"name":"amount","type":"uint256","indexed":false,"internalType":"uint256"}],"anonymous":false},{"type":"error","name":"ArrayLengthsMismatch","inputs":[]},{"type":"error","name":"CallFailed","inputs":[]},{"type":"error","name":"InvalidMsgSender","inputs":[{"name":"storedSender","type":"address","internalType":"address"},{"name":"actualSender","type":"address","internalType":"address"}]},{"type":"error","name":"InvalidRecipient","inputs":[{"name":"recipient","type":"address","internalType":"address"}]},{"type":"error","name":"InvalidTarget","inputs":[{"name":"target","type":"address","internalType":"address"}]},{"type":"error","name":"NativeTransferFailed","inputs":[]},{"type":"error","name":"NoRecipientSet","inputs":[]},{"type":"error","name":"OnlyDirectCalls","inputs":[]},{"type":"error","name":"TStoreAlreadyActivated","inputs":[]},{"type":"error","name":"TStoreNotSupported","inputs":[]},{"type":"error","name":"TloadTestContractDeploymentFailed","inputs":[]}],"bytecode":{"object":"0x610120604052346100f7577f9b779b17422d0df92223018b32b4d1fa46e071723d6817e2486d003becc55f005f556100356100fb565b6001600160a01b038116156100e55761004d81610125565b80156100d057600160c052600360e0526005610100525b60a0526080526100937f72dc4effd7d159affb1f4d451190a65a842cb9499f45eb1ae60b404ca68ad9d8600255565b60405161123e908161017c8239608051816106a0015260a0518161066e015260c051816109cf015260e05181610e300152610100518161111c0152f35b600260c052600460e052600661010052610064565b604051632aea588760e01b8152600490fd5b5f80fd5b696002601e613d5c3d52f35f52600a60165ff090565b634e487b7160e01b5f52604160045260245ffd5b5f80808093600a5a04fa3d15610178576001600160401b033d8181116101735760405191601f8201601f19908116603f01168301908111838210176101735760405281525f60203d92013e90565b610111565b9056fe60806040526004361015610022575b3615610018575f80fd5b610020610e06565b005b5f3560e01c8063150b7a02146100b157806330be5567146100ac5780633b2253c8146100a75780635d1fe6a2146100a25780635de81e3f1461009d57806373b7bb2f146100985780637423eb3c14610093578063bc197c811461008e5763f23a6e610361000e576107c6565b61071f565b610655565b6105c2565b610546565b6104bc565b610356565b610299565b6100f8565b6001600160a01b038116036100c757565b5f80fd5b9181601f840112156100c7578235916001600160401b0383116100c757602083818601950101116100c757565b346100c75760803660031901126100c7576101146004356100b6565b61011f6024356100b6565b6064356001600160401b0381116100c75761013e9036906004016100cb565b90610147610e2b565b906001600160a01b038216156101c857333b156100c7575f916101836040519485938493635c46a7ef60e11b85526044359030600487016108f8565b038183335af180156101c3576101aa575b604051630a85bd0160e11b8152602090f35b0390f35b806101b76101bd9261089f565b8061064b565b5f610194565b61092c565b60405163f36675c360e01b8152600490fd5b9181601f840112156100c7578235916001600160401b0383116100c7576020808501948460051b0101116100c757565b6020808201908083528351809252604092604081018260408560051b8401019601945f925b858410610240575050505050505090565b909192939495968580600192603f19858203018752818b518051151583520151908683820152815180888301528084606094018484015e5f828201840152601f01601f191601019901979695919091019301919061022f565b60603660031901126100c7576004356001600160401b0381116100c7576102c49036906004016101da565b602435906102d1826100b6565b604435926102de846100b6565b5f54805c6001600160a01b03168015158061034c575b80610342575b610324576101a66103108787878733885d610937565b610318610e84565b6040519182918261020a565b6044906040519063200991eb60e21b82526004820152336024820152fd5b50303314156102fa565b50338114156102f4565b346100c75760603660031901126100c75760046001600160401b0381358181116100c75761038790369084016101da565b91906024358281116100c7576103a090369086016101da565b90926044359081116100c7576103b990369087016101da565b9190928286148015906104b2575b6104a1575f5b8681106103d657005b6103e96103e4828985610a50565b610a65565b906103f86103e482868a610a50565b91610404828789610a50565b35610488576040516370a0823160e01b8152308b8201908152909360209291839086908190830103816001600160a01b0386165afa80156101c357600195610455945f9261045b575b505091611180565b016103cd565b61047a9250803d10610481575b61047281836108b7565b810190610a6f565b5f8061044d565b503d610468565b6104559060019361049a84898b610a50565b3591611180565b604051631dc0052360e11b81528790fd5b50818314156103c7565b346100c75760603660031901126100c7576004356024356104dc816100b6565b604435906001600160401b0382116100c7575f926104ff849336906004016100cb565b9180158514610540575047905b826040519384928337810185815203925af1610526610a8b565b501561052e57005b604051633204506f60e01b8152600490fd5b9061050c565b346100c75760403660031901126100c7575f805160206111e9833981519152600435602435610574816100b6565b6001600160a01b0381166105bc575033905b806105b6575047905b6105998282611164565b604080516001600160a01b039290921682526020820192909252a1005b9061058f565b90610586565b346100c75760803660031901126100c7576001600160401b036004358181116100c7576105f39036906004016101da565b906024358381116100c75761060c9036906004016101da565b906044358581116100c7576106259036906004016101da565b9290916064359687116100c7576106436100209736906004016101da565b969095610b2e565b5f9103126100c757565b346100c7575f3660031901126100c75732330361070d577f00000000000000000000000000000000000000000000000000000000000000008015610701575b6106ef576106c86106c47f00000000000000000000000000000000000000000000000000000000000000006111be565b1590565b6106dd57610020600160ff1981541617600155565b6040516370a4078f60e01b8152600490fd5b604051630f45b98b60e41b8152600490fd5b5060015460ff16610694565b60405163096650c560e21b8152600490fd5b346100c75760a03660031901126100c75761073b6004356100b6565b6107466024356100b6565b6001600160401b036044358181116100c7576107669036906004016101da565b6064929192358281116100c7576107819036906004016101da565b6084949194359384116100c7576101a6946107a36107ab9536906004016100cb565b949093610d22565b6040516001600160e01b031990911681529081906020820190565b346100c75760a03660031901126100c7576107e26004356100b6565b6107ed6024356100b6565b6084356001600160401b0381116100c75761080c9036906004016100cb565b90610815610e2b565b906001600160a01b038216156101c857333b156100c7575f916108556040519485938493637921219560e11b855260643590604435903060048801610dd3565b038183335af180156101c357610878575b60405163f23a6e6160e01b8152602090f35b806101b76108859261089f565b5f610866565b634e487b7160e01b5f52604160045260245ffd5b6001600160401b0381116108b257604052565b61088b565b90601f801991011681019081106001600160401b038211176108b257604052565b908060209392818452848401375f828201840152601f01601f1916010190565b6001600160a01b039182168152911660208201526040810191909152608060608201819052610929939101916108d8565b90565b6040513d5f823e3d90fd5b6001600160a01b03949385169190826109c2575b6109559250610fbd565b9261095e611101565b47610967575050565b81166109ae57505f805160206111e9833981519152335b479061098a8282611164565b604080516001600160a01b039092168252602082019290925290819081015b0390a1565b5f805160206111e98339815191529061097e565b308314610a2457600254927f000000000000000000000000000000000000000000000000000000000000000080600214610a07576001036111d457610955935d61094b565b506109559360ff600154165f14610a1e575d61094b565b5561094b565b604051630bc2c5df60e11b8152306004820152602490fd5b634e487b7160e01b5f52603260045260245ffd5b9190811015610a605760051b0190565b610a3c565b35610929816100b6565b908160209103126100c7575190565b908092918237015f815290565b3d15610ac4573d906001600160401b0382116108b25760405191610ab9601f8201601f1916602001846108b7565b82523d5f602084013e565b606090565b903590601e19813603018212156100c757018035906001600160401b0382116100c7576020019181360383136100c757565b90821015610a6057610b129160051b810190610ac9565b9091565b908160209103126100c7575180151581036100c75790565b9592909694919396858114801590610cf4575b8015610cea575b610cd8575f5b818110610b6057505050505050505050565b838588888c8583610b9f8f610b9784610b8f6103e48f8f90610b896103e4868099948195610a50565b9b610a50565b9a8b97610afb565b979098610a50565b35610cc25750506040516370a0823160e01b8152306004820152926020915081846024816001600160a01b0387165afa80156101c357610c1f9487935f92610ca5575b5050945b6040958651809563095ea7b360e01b8252815f8160209a8b9660049e8f840160209093929193604081019460018060a01b031681520152565b03926001600160a01b03165af19081156101c3575f9586958693610c77575b5050610c4e875180948193610a7e565b03925af1610c5a610a8b565b5015610c6a575050600101610b4e565b51633204506f60e01b8152fd5b81610c9692903d10610c9e575b610c8e81836108b7565b810190610b16565b505f80610c3e565b503d610c84565b610cbb9250803d106104815761047281836108b7565b5f80610be2565b610c1f9491610cd1918d610a50565b3594610be6565b604051631dc0052360e11b8152600490fd5b5082821415610b48565b5081861415610b41565b81835290916001600160fb1b0383116100c75760209260051b809284830137010190565b94909290916001600160a01b03610d37610e2b565b169283156101c857333b156100c7575f95610d94610da394610d806040519a8b998a99631759616b60e11b8b523060048c015260248b015260a060448b015260a48a0191610cfe565b9060031995868984030160648a0152610cfe565b928584030160848601526108d8565b038183335af180156101c357610dc0575b5063bc197c8160e01b90565b806101b7610dcd9261089f565b5f610db4565b919261092996949160a094600180871b0380921685521660208401526040830152606082015281608082015201916108d8565b604080513081523460208201525f805160206111e983398151915291819081016109a9565b6002547f000000000000000000000000000000000000000000000000000000000000000080600414610e6c576003036111d4575c5b6001600160a01b031690565b5060015460ff1615610e7e575c610e60565b54610e60565b5f80545d565b6001600160401b0381116108b25760051b60200190565b90610eab82610e8a565b604090610ebb60405191826108b7565b8381528093610ecc601f1991610e8a565b01905f5b828110610edd5750505050565b835190848201918083106001600160401b038411176108b25760209286525f815282606081830152828501015201610ed0565b8051821015610a605760209160051b010190565b9190811015610a605760051b81013590607e19813603018212156100c7570190565b94939291604092610f6c9260018060a01b031687526060602088015260608701916108d8565b930152565b15610f7857565b60405162461bcd60e51b815260206004820152601a60248201527f4d756c746963616c6c333a2076616c7565206d69736d617463680000000000006044820152606490fd5b9190915f90610fcb84610ea1565b935f5b818110610fe557505050610fe3903414610f71565b565b610fef8187610f10565b5193610ffc828486610f24565b604090818101358093019661101082610a65565b905f806060850193876110238688610ac9565b91906110338a5180948193610a7e565b03925af1611052611042610a8b565b9160209283850152839015159052565b81518185013517156110c75750516001959493929190611077575b5050505001610fce565b7f93485dcd31a905e3ffd7b012abe3438fa8fa77f98ddc9f50e879d3fa7ccdc324936110af6110bb926110a985610a65565b94610ac9565b90945194859485610f46565b0390a15f80808061106d565b62461bcd60e51b5f5260045260176024527f4d756c746963616c6c333a2063616c6c206661696c656400000000000000000060445260845ffd5b6001600160a01b03611111610e2b565b1615610fe3576002547f00000000000000000000000000000000000000000000000000000000000000008060061461114f576005036111d4575f905d565b505f9060ff600154168214611161575d565b55565b5f80809338935af11561117357565b63b12d13eb5f526004601cfd5b60105f604492602095829560145260345263a9059cbb60601b82525af13d1560015f51141716156111b1575f603452565b6390b8ec185f526004601cfd5b5f80808093600a5a04fa6111d0610a8b565b5090565b634e487b7160e01b5f52605160045260245ffdfed35467972d1fda5b63c735f59d3974fa51785a41a92aa3ed1b70832836f8dba6a2646970667358221220376c1edae5504bf9fc4c107bc13be34b884c5a17c250e99fa15829250092f54564736f6c63430008190033","linkReferences":{}},"methodIdentifiers":{"__activateTstore()":"7423eb3c","cleanupErc20s(address[],address[],uint256[])":"3b2253c8","cleanupErc20sViaCall(address[],address[],bytes[],uint256[])":"73b7bb2f","cleanupNative(uint256,address)":"5de81e3f","cleanupNativeViaCall(uint256,address,bytes)":"5d1fe6a2","multicall((address,bool,uint256,bytes)[],address,address)":"30be5567","onERC1155BatchReceived(address,address,uint256[],uint256[],bytes)":"bc197c81","onERC1155Received(address,address,uint256,uint256,bytes)":"f23a6e61","onERC721Received(address,address,uint256,bytes)":"150b7a02"},"id":77}