{"abi":[{"type":"constructor","inputs":[{"name":"permit2","type":"address","internalType":"address"}],"stateMutability":"nonpayable"},{"type":"fallback","stateMutability":"payable"},{"type":"receive","stateMutability":"payable"},{"type":"function","name":"_EIP_712_RELAYER_WITNESS_TYPE_HASH","inputs":[],"outputs":[{"name":"","type":"bytes32","internalType":"bytes32"}],"stateMutability":"view"},{"type":"function","name":"_RELAYER_WITNESS_TYPE_STRING","inputs":[],"outputs":[{"name":"","type":"string","internalType":"string"}],"stateMutability":"view"},{"type":"function","name":"cleanupERC20","inputs":[{"name":"token","type":"address","internalType":"address"},{"name":"refundTo","type":"address","internalType":"address"}],"outputs":[],"stateMutability":"nonpayable"},{"type":"function","name":"delegatecallMulticall","inputs":[{"name":"targets","type":"address[]","internalType":"address[]"},{"name":"datas","type":"bytes[]","internalType":"bytes[]"},{"name":"values","type":"uint256[]","internalType":"uint256[]"},{"name":"refundTo","type":"address","internalType":"address"}],"outputs":[{"name":"","type":"bytes[]","internalType":"bytes[]"}],"stateMutability":"payable"},{"type":"function","name":"onERC1155BatchReceived","inputs":[{"name":"","type":"address","internalType":"address"},{"name":"","type":"address","internalType":"address"},{"name":"_ids","type":"uint256[]","internalType":"uint256[]"},{"name":"_values","type":"uint256[]","internalType":"uint256[]"},{"name":"_data","type":"bytes","internalType":"bytes"}],"outputs":[{"name":"","type":"bytes4","internalType":"bytes4"}],"stateMutability":"nonpayable"},{"type":"function","name":"onERC1155Received","inputs":[{"name":"","type":"address","internalType":"address"},{"name":"","type":"address","internalType":"address"},{"name":"_id","type":"uint256","internalType":"uint256"},{"name":"_value","type":"uint256","internalType":"uint256"},{"name":"_data","type":"bytes","internalType":"bytes"}],"outputs":[{"name":"","type":"bytes4","internalType":"bytes4"}],"stateMutability":"nonpayable"},{"type":"function","name":"onERC721Received","inputs":[{"name":"","type":"address","internalType":"address"},{"name":"","type":"address","internalType":"address"},{"name":"_tokenId","type":"uint256","internalType":"uint256"},{"name":"_data","type":"bytes","internalType":"bytes"}],"outputs":[{"name":"","type":"bytes4","internalType":"bytes4"}],"stateMutability":"nonpayable"},{"type":"function","name":"permitMulticall","inputs":[{"name":"user","type":"address","internalType":"address"},{"name":"permit","type":"tuple","internalType":"struct ISignatureTransfer.PermitBatchTransferFrom","components":[{"name":"permitted","type":"tuple[]","internalType":"struct ISignatureTransfer.TokenPermissions[]","components":[{"name":"token","type":"address","internalType":"address"},{"name":"amount","type":"uint256","internalType":"uint256"}]},{"name":"nonce","type":"uint256","internalType":"uint256"},{"name":"deadline","type":"uint256","internalType":"uint256"}]},{"name":"targets","type":"address[]","internalType":"address[]"},{"name":"datas","type":"bytes[]","internalType":"bytes[]"},{"name":"values","type":"uint256[]","internalType":"uint256[]"},{"name":"refundTo","type":"address","internalType":"address"},{"name":"permitSignature","type":"bytes","internalType":"bytes"}],"outputs":[{"name":"","type":"bytes[]","internalType":"bytes[]"}],"stateMutability":"payable"},{"type":"error","name":"AddressEmptyCode","inputs":[{"name":"target","type":"address","internalType":"address"}]},{"type":"error","name":"AddressInsufficientBalance","inputs":[{"name":"account","type":"address","internalType":"address"}]},{"type":"error","name":"ArrayLengthsMismatch","inputs":[]},{"type":"error","name":"FailedInnerCall","inputs":[]},{"type":"error","name":"InvalidRecipient","inputs":[{"name":"recipient","type":"address","internalType":"address"}]},{"type":"error","name":"InvalidTarget","inputs":[{"name":"target","type":"address","internalType":"address"}]},{"type":"error","name":"NativeTransferFailed","inputs":[]},{"type":"error","name":"NoRecipientSet","inputs":[]},{"type":"error","name":"SafeERC20FailedOperation","inputs":[{"name":"token","type":"address","internalType":"address"}]}],"bytecode":{"object":"0x60a034609957601f6112a538819003918201601f19168301916001600160401b03831184841017609d57808492602094604052833981010312609957516001600160a01b038116908190036099577fde8722880b5dd233e72245d89ecf1926d842675ee7337f75a172abc8abc5ba875f556080526040516111f390816100b282396080518181816106e101528181610a660152610fff0152f35b5f80fd5b634e487b7160e01b5f52604160045260245ffdfe6080806040526004361015610017575b5036610c2057005b5f3560e01c908163150b7a021461009e575080633806a3cf146100995780633dad0c9c1461009457806366b9ca7b1461008f5780636e305f801461008a578063bc197c8114610085578063c99a0d65146100805763f23a6e611461007b575f61000f565b6108c6565b61088c565b6107e5565b610664565b6105ba565b6103c1565b610392565b346101755780600319360112610175576100b9600435610188565b6100c4602435610188565b6064356001600160401b038111610175576100e39036906004016101b5565b5f545490929190610104906001600160a01b03165b6001600160a01b031690565b906001600160a01b0382161561017957333b1561017557635c46a7ef60e11b83525f93607f199261013a929060443590306109d2565b018183335af1801561017057610161575b604051630a85bd0160e11b8152602090f35b0390f35b61016b6080604052565b61014b565b610a0b565b5f80fd5b63f36675c360e01b8352600483fd5b6001600160a01b0381160361017557565b600435906101a682610188565b565b60a435906101a682610188565b9181601f84011215610175578235916001600160401b038311610175576020838186019501011161017557565b5f91031261017557565b634e487b7160e01b5f52604160045260245ffd5b606081019081106001600160401b0382111761021b57604052565b6101ec565b604081019081106001600160401b0382111761021b57604052565b6001600160401b03811161021b57604052565b608081019081106001600160401b0382111761021b57604052565b90601f801991011681019081106001600160401b0382111761021b57604052565b604051906101a682610220565b6001600160401b03811161021b57601f01601f191660200190565b6040519060a082018281106001600160401b0382111761021b576040526064825263756e742960e01b6080837f52656c617965725769746e657373207769746e6573732952656c61796572576960208201527f746e65737328616464726573732072656c6179657229546f6b656e5065726d6960408201527f7373696f6e73286164647265737320746f6b656e2c75696e7432353620616d6f60608201520152565b91908251928382525f5b84811061037e575050825f602080949584010152601f8019910116010190565b60208183018101518483018201520161035e565b34610175575f3660031901126101755761015d6103ad6102b2565b604051918291602083526020830190610354565b34610175576040366003190112610175576004356103de81610188565b602435906103eb82610188565b6040516370a0823160e01b81523060048201526001600160a01b039190911691602082602481865afa918215610170575f92610435575b508161042a57005b61043392610ca7565b005b9091506020813d602011610461575b8161045160209383610269565b810103126101755751905f610422565b3d9150610444565b6001600160401b03811161021b5760051b60200190565b909160608284031261017557604080519061049a82610200565b819380356001600160401b03811161017557810186601f820112156101755780356020916104c782610469565b916104d486519384610269565b808352838084019160061b830101918a8311610175578401905b82821061050d5750505084528181013590840152810135910152909150565b86828c031261017557848791825161052481610220565b843561052f81610188565b815282850135838201528152019101906104ee565b9181601f84011215610175578235916001600160401b038311610175576020808501948460051b01011161017557565b81601f820112156101755780359061058b82610297565b926105996040519485610269565b8284526020838301011161017557815f926020809301838601378301015290565b60e0366003190112610175576105ce610199565b6001600160401b03602435818111610175576105ee903690600401610480565b60443582811161017557610606903690600401610544565b60649291923584811161017557610621903690600401610544565b916084358681116101755761063a903690600401610544565b9590946106456101a8565b9760c4359081116101755761065e903690600401610574565b98610a4c565b60803660031901126101755760046001600160401b038135818111610175576106909036908401610544565b91602435818111610175576106a89036908601610544565b91604435908111610175576106c09036908701610544565b949093606435966106d088610188565b8483148015906107db575b6107cc577f00000000000000000000000000000000000000000000000000000000000000006001600160a01b0316905f5b8481106107245750505061071f87610d7d565b61107c565b737777777f279eba3d3ad8f4e708545291a6fdba8b61074f6100f861074a848989610a2a565b610a3f565b1461079b57826107666100f861074a848989610a2a565b146107735760010161070c565b5060405163d08525e960e01b81526001600160a01b0390921690820190815281906020010390fd5b60405163d08525e960e01b8152737777777f279eba3d3ad8f4e708545291a6fdba8b81840190815281906020010390fd5b604051631dc0052360e11b8152fd5b50868514156106db565b346101755760a036600319011261017557610801600435610188565b61080c602435610188565b6001600160401b036044358181116101755761082c903690600401610544565b60649291923582811161017557610847903690600401610544565b6084949194359384116101755761015d946108696108719536906004016101b5565b949093610b42565b6040516001600160e01b031990911681529081906020820190565b34610175575f3660031901126101755760206040517f4910260415865c6d3ecf96968c7d912a0d533a72c3479ab1e1df0f4eb86fb0088152f35b346101755760a0366003190112610175576108e2600435610188565b6108ed602435610188565b6084356001600160401b0381116101755761090c9036906004016101b5565b5f5454909190610924906001600160a01b03166100f8565b906001600160a01b038216156109a057333b15610175575f916109646040519485938493637921219560e11b855260643590604435903060048801610bed565b038183335af1801561017057610987575b60405163f23a6e6160e01b8152602090f35b8061099461099a9261023b565b806101e2565b5f610975565b60405163f36675c360e01b8152600490fd5b908060209392818452848401375f828201840152601f01601f1916010190565b6001600160a01b039081166084521660a45260c452608060e4526101048290526101249190819083375f81830152601f01601f19160190565b6040513d5f823e3d90fd5b634e487b7160e01b5f52603260045260245ffd5b9190811015610a3a5760051b0190565b610a16565b35610a4981610188565b90565b919293949596979890868514801590610b14575b610b02577f00000000000000000000000000000000000000000000000000000000000000006001600160a01b03165f5b868110610ac2575050610aa28a610d7d565b8151610ab1575b50505061107c565b610aba92610f51565b5f8080610aa9565b81610ad46100f861074a848b8b610a2a565b14610ae157600101610a90565b60405163d08525e960e01b81526001600160a01b0383166004820152602490fd5b604051631dc0052360e11b8152600490fd5b5088871415610a60565b81835290916001600160fb1b0383116101755760209260051b809284830137010190565b949192909260018060a01b035f5454169283156109a057333b15610175575f95610bae610bbd94610b9a6040519a8b998a99631759616b60e11b8b523060048c015260248b015260a060448b015260a48a0191610b1e565b9060031995868984030160648a0152610b1e565b928584030160848601526109b2565b038183335af1801561017057610bda575b5063bc197c8160e01b90565b80610994610be79261023b565b5f610bce565b9192610a4996949160a094600180871b0380921685521660208401526040830152606082015281608082015201916109b2565b3d356366e0daa08160e01c14610c34573d3dfd5b193d5260043d815b809236821015610c8f578135831a6001809301948115610c635750815301905b9091610c3c565b3d19835260020194607f9150353d1a81811115610c84575b16010190610c5c565b838101388439610c7b565b5f809181305af43d5f803e15610ca3573d5ff35b3d5ffd5b915f8091610d1a9360405195602087019263a9059cbb60e01b845260018060a01b038093166024890152604488015260448752610ce38761024e565b1694519082865af13d15610d75573d90610cfc82610297565b91610d0a6040519384610269565b82523d5f602084013e5b83611190565b8051908115159182610d53575b5050610d305750565b604051635274afe760e01b81526001600160a01b03919091166004820152602490fd5b610d6e925090602080610d6a938301019101611178565b1590565b5f80610d27565b606090610d14565b6001600160a01b031680158015610dba575b610db757308114610d9f575f5455565b604051630bc2c5df60e11b8152306004820152602490fd5b50565b5060018114610d8f565b90610dce82610469565b604090610dde6040519182610269565b8381528093610def601f1991610469565b01915f5b838110610e005750505050565b6020908251610e0e81610220565b5f8152825f81830152828601015201610df3565b8051821015610a3a5760209160051b010190565b9081518082526020808093019301915f5b828110610e55575050505090565b9091929382604082610e7c60019489516020809160018060a01b0381511684520151910152565b01950193929101610e47565b9491969593909660c086526101208601978051606060c08901528051809a526101408801996020809201915f5b828110610f265750505050610ef4610a499899610f18969594936040846020610f0696015160e08d015201516101008b015289820360208b0152610e36565b6001600160a01b039094166040880152565b60608601528482036080860152610354565b9160a0818403910152610354565b835180516001600160a01b03168e52602090810151908e01526040909c019b92810192600101610eb5565b604080517f4910260415865c6d3ecf96968c7d912a0d533a72c3479ab1e1df0f4eb86fb00860208083019182523383850152928252929593949193919290610f9a606082610269565b519020610fa8855151610dc4565b945f5b81518051821015610ff3579086610fc482600194610e22565b510151610fcf61028a565b3081529088820152610fe1828a610e22565b52610fec8189610e22565b5001610fab565b509296919590945090927f00000000000000000000000000000000000000000000000000000000000000006001600160a01b031692506110316102b2565b94833b156101755761105e5f96928793604051998a988997889663fe8ec1a760e01b885260048801610e88565b03925af180156101705761106f5750565b806109946101a69261023b565b92959390948614868614161561116b5785926040966110ea575b50505050806110ab575b5060205f526020525ff35b47156110a0573381186001821402185f3881804785620186a0f16110a0575f526073600b5360ff6020536016600b47f0156110e6575f6110a0565b3838fd5b91939592839060051b9283868637838501935b82518701908681015f808435806020809701853783603f19808a8c010135908a8a0101355af115611163578185523d90523d5f606083013e603f601f19913d01011692019588858814611152575095916110fd565b9650505091505001925f8080611096565b3d5f803e3d5ffd5b633b800a463d526004601cfd5b90816020910312610175575180151581036101755790565b906111b757508051156111a557805190602001fd5b604051630a12f52160e11b8152600490fd5b815115806111ea575b6111c8575090565b604051639996b31560e01b81526001600160a01b039091166004820152602490fd5b50803b156111c056","linkReferences":{}},"methodIdentifiers":{"_EIP_712_RELAYER_WITNESS_TYPE_HASH()":"c99a0d65","_RELAYER_WITNESS_TYPE_STRING()":"3806a3cf","cleanupERC20(address,address)":"3dad0c9c","delegatecallMulticall(address[],bytes[],uint256[],address)":"6e305f80","onERC1155BatchReceived(address,address,uint256[],uint256[],bytes)":"bc197c81","onERC1155Received(address,address,uint256,uint256,bytes)":"f23a6e61","onERC721Received(address,address,uint256,bytes)":"150b7a02","permitMulticall(address,((address,uint256)[],uint256,uint256),address[],bytes[],uint256[],address,bytes)":"66b9ca7b"},"id":55}