{"abi":[{"type":"function","name":"DOMAIN_SEPARATOR","inputs":[],"outputs":[{"name":"","type":"bytes32","internalType":"bytes32"}],"stateMutability":"view"},{"type":"function","name":"allowance","inputs":[{"name":"","type":"address","internalType":"address"},{"name":"","type":"address","internalType":"address"},{"name":"","type":"address","internalType":"address"}],"outputs":[{"name":"amount","type":"uint160","internalType":"uint160"},{"name":"expiration","type":"uint48","internalType":"uint48"},{"name":"nonce","type":"uint48","internalType":"uint48"}],"stateMutability":"view"},{"type":"function","name":"approve","inputs":[{"name":"token","type":"address","internalType":"address"},{"name":"spender","type":"address","internalType":"address"},{"name":"amount","type":"uint160","internalType":"uint160"},{"name":"expiration","type":"uint48","internalType":"uint48"}],"outputs":[],"stateMutability":"nonpayable"},{"type":"function","name":"invalidateNonces","inputs":[{"name":"token","type":"address","internalType":"address"},{"name":"spender","type":"address","internalType":"address"},{"name":"newNonce","type":"uint48","internalType":"uint48"}],"outputs":[],"stateMutability":"nonpayable"},{"type":"function","name":"lockdown","inputs":[{"name":"approvals","type":"tuple[]","internalType":"struct IAllowanceTransfer.TokenSpenderPair[]","components":[{"name":"token","type":"address","internalType":"address"},{"name":"spender","type":"address","internalType":"address"}]}],"outputs":[],"stateMutability":"nonpayable"},{"type":"function","name":"permit","inputs":[{"name":"owner","type":"address","internalType":"address"},{"name":"permitBatch","type":"tuple","internalType":"struct IAllowanceTransfer.PermitBatch","components":[{"name":"details","type":"tuple[]","internalType":"struct IAllowanceTransfer.PermitDetails[]","components":[{"name":"token","type":"address","internalType":"address"},{"name":"amount","type":"uint160","internalType":"uint160"},{"name":"expiration","type":"uint48","internalType":"uint48"},{"name":"nonce","type":"uint48","internalType":"uint48"}]},{"name":"spender","type":"address","internalType":"address"},{"name":"sigDeadline","type":"uint256","internalType":"uint256"}]},{"name":"signature","type":"bytes","internalType":"bytes"}],"outputs":[],"stateMutability":"nonpayable"},{"type":"function","name":"permit","inputs":[{"name":"owner","type":"address","internalType":"address"},{"name":"permitSingle","type":"tuple","internalType":"struct IAllowanceTransfer.PermitSingle","components":[{"name":"details","type":"tuple","internalType":"struct IAllowanceTransfer.PermitDetails","components":[{"name":"token","type":"address","internalType":"address"},{"name":"amount","type":"uint160","internalType":"uint160"},{"name":"expiration","type":"uint48","internalType":"uint48"},{"name":"nonce","type":"uint48","internalType":"uint48"}]},{"name":"spender","type":"address","internalType":"address"},{"name":"sigDeadline","type":"uint256","internalType":"uint256"}]},{"name":"signature","type":"bytes","internalType":"bytes"}],"outputs":[],"stateMutability":"nonpayable"},{"type":"function","name":"transferFrom","inputs":[{"name":"transferDetails","type":"tuple[]","internalType":"struct IAllowanceTransfer.AllowanceTransferDetails[]","components":[{"name":"from","type":"address","internalType":"address"},{"name":"to","type":"address","internalType":"address"},{"name":"amount","type":"uint160","internalType":"uint160"},{"name":"token","type":"address","internalType":"address"}]}],"outputs":[],"stateMutability":"nonpayable"},{"type":"function","name":"transferFrom","inputs":[{"name":"from","type":"address","internalType":"address"},{"name":"to","type":"address","internalType":"address"},{"name":"amount","type":"uint160","internalType":"uint160"},{"name":"token","type":"address","internalType":"address"}],"outputs":[],"stateMutability":"nonpayable"},{"type":"event","name":"Approval","inputs":[{"name":"owner","type":"address","indexed":true,"internalType":"address"},{"name":"token","type":"address","indexed":true,"internalType":"address"},{"name":"spender","type":"address","indexed":true,"internalType":"address"},{"name":"amount","type":"uint160","indexed":false,"internalType":"uint160"},{"name":"expiration","type":"uint48","indexed":false,"internalType":"uint48"}],"anonymous":false},{"type":"event","name":"Lockdown","inputs":[{"name":"owner","type":"address","indexed":true,"internalType":"address"},{"name":"token","type":"address","indexed":false,"internalType":"address"},{"name":"spender","type":"address","indexed":false,"internalType":"address"}],"anonymous":false},{"type":"event","name":"NonceInvalidation","inputs":[{"name":"owner","type":"address","indexed":true,"internalType":"address"},{"name":"token","type":"address","indexed":true,"internalType":"address"},{"name":"spender","type":"address","indexed":true,"internalType":"address"},{"name":"newNonce","type":"uint48","indexed":false,"internalType":"uint48"},{"name":"oldNonce","type":"uint48","indexed":false,"internalType":"uint48"}],"anonymous":false},{"type":"event","name":"Permit","inputs":[{"name":"owner","type":"address","indexed":true,"internalType":"address"},{"name":"token","type":"address","indexed":true,"internalType":"address"},{"name":"spender","type":"address","indexed":true,"internalType":"address"},{"name":"amount","type":"uint160","indexed":false,"internalType":"uint160"},{"name":"expiration","type":"uint48","indexed":false,"internalType":"uint48"},{"name":"nonce","type":"uint48","indexed":false,"internalType":"uint48"}],"anonymous":false},{"type":"error","name":"AllowanceExpired","inputs":[{"name":"deadline","type":"uint256","internalType":"uint256"}]},{"type":"error","name":"ExcessiveInvalidation","inputs":[]},{"type":"error","name":"InsufficientAllowance","inputs":[{"name":"amount","type":"uint256","internalType":"uint256"}]},{"type":"error","name":"InvalidContractSignature","inputs":[]},{"type":"error","name":"InvalidNonce","inputs":[]},{"type":"error","name":"InvalidSignature","inputs":[]},{"type":"error","name":"InvalidSignatureLength","inputs":[]},{"type":"error","name":"InvalidSigner","inputs":[]},{"type":"error","name":"SignatureExpired","inputs":[{"name":"signatureDeadline","type":"uint256","internalType":"uint256"}]}],"bytecode":{"object":"0x60c03460b9574660a052602081017f8cad95687ba82c2ce50e74f7b754645e5117c3a5bec8151c0726d5857980a86681527f9ac997416e8ff9d2ff6bebeb7149f65cdae5e32e2b90440b566bb3044041d36a60408301524660608301523060808301526080825260a082019180831060018060401b0384111760a357826040525190206080526110e490816100bf823960805181610b32015260a05181610b0c0152f35b634e487b7160e01b600052604160045260246000fd5b600080fdfe60406080815260048036101561001457600080fd5b600091823560e01c80630d58b1db146108bc5780632a2d80d1146106025780632b67b570146104825780633644e5151461045e57806336c785161461041157806365d9723c146102ff57806387517c451461021a578063927da1051461018b5763cc53287f1461008357600080fd5b3461018757602090816003193601126101835782359167ffffffffffffffff9384841161017f573660238501121561017f5783013593841161017b576024830192602436918660061b01011161017b57845b8481106100e0578580f35b806100f66100f16001938888610bc4565b610bd4565b61010b84610105848a8a610bc4565b01610bd4565b33895288855285892091848060a01b0380911692838b528652868a20911690818a5285528589206bffffffffffffffffffffffff60a01b81541690558551918252848201527f89b1add15eff56b3dfe299ad94e01f2b52fbcb80ae1a3baea6ae8c04cb2b98a4853392a2016100d5565b8480fd5b8580fd5b8380fd5b8280fd5b83823461021657606036600319011261021657610212816101aa61099f565b936101b36109ba565b6101bb6109d0565b6001600160a01b0396871683526020838152848420928816845291825283832090871683528152919020549251938316845260a083901c65ffffffffffff169084015260d09190911c604083015281906060820190565b0390f35b5080fd5b8382346102165760803660031901126102165761023561099f565b9061023e6109ba565b916102476109d0565b906064359265ffffffffffff93848116908181036102fb5733885260208881528389206001600160a01b03958616808b52908252848a20988616808b529890915283892090967fda9fa7c1b00402c17d0161b249b1ab8bbec047c5a52207b9c112deffd817036b959192846102f357504216905b82546001600160d01b03191660a09290921b65ffffffffffff60a01b169190911795169485179055815193845260208401523392a480f35b9050906102bb565b8780fd5b5090346101875760603660031901126101875761031a61099f565b906103236109ba565b9265ffffffffffff60443581811693908481036102fb5733885260208881528489206001600160a01b03978816808b52908252858a2098909716808a529781528489205460d01c93909290848711156104025761ffff9085840316116103f4575033808952888352848920878a528352848920888a52835284892080546001600160d01b031660d09390931b6001600160d01b03191692909217909155835194855290840191909152917f55eb90d810e1700b35a8e7e25395ff7f2b2259abd7415ca2284dfb1c246418f39190a480f35b8451631269ad1360e11b8152fd5b508451633ab3447f60e11b8152fd5b833461045b57608036600319011261045b5761042b61099f565b6104336109ba565b61043b6109d0565b606435916001600160a01b038316830361017b5761045893610be8565b80f35b80fd5b83823461021657816003193601126102165760209061047b610b09565b9051908152f35b50919034610216576101003660031901126102165761049f61099f565b366023190160c081126101835760808551916104ba83610a2c565b12610183578451906104cb826109fa565b6001600160a01b039160243583811681036105fe57815260443583811681036105fe57602082015265ffffffffffff60643581811681036102fb578883015260843590811681036105fe576060820152815260a43593828516850361017f576020820194855260c4359087830182815260e43567ffffffffffffffff81116105fa5761055a9036908401610ab1565b9290938042116105e45750509185916105d4610458999a6105da9561057f885161105b565b90898c511690519083519260208401947ff3841cd1ff0085026a6327b620b67997ce40f282c88a8e905a7a5626e310f3d0865284015260608301526080820152608081526105cc81610a48565b519020610d21565b91610d68565b5192511691610f51565b8a5163cd21db4f60e01b81529182015260249150fd5b8880fd5b8680fd5b5091903461021657606090600319906060823601126101835761062361099f565b926024359167ffffffffffffffff938484116105fe57606090843603011261017f5786519661065188610a2c565b838201358581116102fb578401366023820112156102fb57828101359061067782610a86565b9161068484519384610a64565b80835260209560248785019260071b840101923684116108b857602401915b83831061085c5750505050885260446106be602486016109e6565b94848a01958652013592818901958487526044359081116105fa576106e69036908501610ab1565b939094804211610846575050929190889798515161070381610a86565b9061071083519283610a64565b80825261071c81610a86565b82870191601f199182013684378c5b81811061080e575050908392918a96959451918d8984018095519092915b8181106107f7575050509161076f6105d4959492826107c49b9503908101835282610a64565b51902060018060a01b03998a8a51169051918451938401947faf1b0d30d2cab0380e68f0689007e3254993c596f2fdd0aaa7f4d04f79440863865284015260608301526080820152608081526105cc81610a48565b51169082515192845b8481106107d8578580f35b806107f185856107eb6001958751610adf565b51610f51565b016107cd565b825184528e9a50928b0192918b0191600101610749565b8061082d8e9f9e600193610827919c999a9b9c51610adf565b5161105b565b6108378288610adf565b52019c9b9c979695949761072b565b835163cd21db4f60e01b81529182015260249150fd5b6080833603126108b857876080918751610875816109fa565b61087e866109e6565b815261088b8387016109e6565b8382015261089a898701610a9e565b898201526108a9858701610a9e565b858201528152019201916106a3565b8b80fd5b5090346101875760208060031936011261018357813567ffffffffffffffff9283821161017f573660238301121561017f5781013592831161017b5760249060073660248660071b840101116105fe57865b858110610919578780f35b80821b830190608060231983360301126105fa57610999888760019460608351610942816109fa565b61097e60846109528d86016109e6565b94858452610962604482016109e6565b8097850152610973606482016109e6565b8098850152016109e6565b9182910152868060a01b038080809316951693169116610be8565b0161090e565b600435906001600160a01b03821682036109b557565b600080fd5b602435906001600160a01b03821682036109b557565b604435906001600160a01b03821682036109b557565b35906001600160a01b03821682036109b557565b6080810190811067ffffffffffffffff821117610a1657604052565b634e487b7160e01b600052604160045260246000fd5b6060810190811067ffffffffffffffff821117610a1657604052565b60a0810190811067ffffffffffffffff821117610a1657604052565b90601f8019910116810190811067ffffffffffffffff821117610a1657604052565b67ffffffffffffffff8111610a165760051b60200190565b359065ffffffffffff821682036109b557565b9181601f840112156109b55782359167ffffffffffffffff83116109b557602083818601950101116109b557565b8051821015610af35760209160051b010190565b634e487b7160e01b600052603260045260246000fd5b467f000000000000000000000000000000000000000000000000000000000000000003610b54577f000000000000000000000000000000000000000000000000000000000000000090565b60405160208101907f8cad95687ba82c2ce50e74f7b754645e5117c3a5bec8151c0726d5857980a86682527f9ac997416e8ff9d2ff6bebeb7149f65cdae5e32e2b90440b566bb3044041d36a604082015246606082015230608082015260808152610bbe81610a48565b51902090565b9190811015610af35760061b0190565b356001600160a01b03811681036109b55790565b92909260018060a01b0391600092808316845283602052604094818686209316928386526020528585203386526020528585209687549765ffffffffffff8960a01c16804211610d0a575083891698848a03610cc2575b505086516323b872dd60e01b815260048101959095526024850152166044830152929350909160209183916064919083905af19051600114601f3d11163d15171615610c885750565b5162461bcd60e51b81526020600482015260146024820152731514905394d1915497d19493d357d1905253115160621b6044820152606490fd5b8985851611600014610ce657885163f96fb07160e01b8152600481018b9052602490fd5b6001600160a01b031916988390038416989098179097559495869590826020610c3f565b602490895190636c0d979760e11b82526004820152fd5b610d29610b09565b9060405190602082019261190160f01b84526022830152604282015260428152610bbe816109fa565b91908260409103126109b5576020823592013590565b6000843b610e77575060418203610e1157610d8582820182610d52565b93909260401015610af35760209360009360ff6040608095013560f81c5b60405194855216868401526040830152606082015282805260015afa15610e05576000516001600160a01b03908116918215610df3571603610de157565b604051632057875960e21b8152600490fd5b604051638baa579f60e01b8152600490fd5b6040513d6000823e3d90fd5b60408203610e6557610e2591810190610d52565b6001600160ff1b0381169260ff91821c601b01918211610e4f5760209360009360ff608094610da3565b634e487b7160e01b600052601160045260246000fd5b604051634be6321b60e01b8152600490fd5b918093946020926064604051809781958294630b135d3f60e11b9b8c8552600485015260406024850152816044850152848401378181018301889052601f01601f191681010301916001600160a01b03165afa918215610f44578192610efd575b50506001600160e01b03191603610eeb57565b604051632c19a72f60e21b8152600490fd5b9091506020813d602011610f3c575b81610f1960209383610a64565b810103126102165751906001600160e01b03198216820361045b57503880610ed8565b3d9150610f0c565b50604051903d90823e3d90fd5b9065ffffffffffff908160608401511660018060a01b039081855116948260208201511692808660408094015116951695600091878352826020528383208984526020528383209916988983526020528282209184835460d01c0361104a57918561103e94927fc6a377bfc4eb120024a8ac08eef205be16b817020812c73223e81d1bdb9708ec989796945087156000146110435742165b6001850160d01b6001600160d01b03191660a09190911b65ffffffffffff60a01b1617179055516001600160a01b03909316835265ffffffffffff938416602084015290921660408201529081906060820190565b0390a4565b5086610fe9565b8351633ab3447f60e11b8152600490fd5b60405160208101917f65626cad6cb96493bf6f5ebea28756c966f023ab9e8a83a7101849d5573b3678835260018060a01b038082511660408401526020820151166060830152606060408201519165ffffffffffff809316608085015201511660a082015260a0815260c0810181811067ffffffffffffffff821117610a16576040525190209056","linkReferences":{}},"methodIdentifiers":{"DOMAIN_SEPARATOR()":"3644e515","allowance(address,address,address)":"927da105","approve(address,address,uint160,uint48)":"87517c45","invalidateNonces(address,address,uint48)":"65d9723c","lockdown((address,address)[])":"cc53287f","permit(address,((address,uint160,uint48,uint48),address,uint256),bytes)":"2b67b570","permit(address,((address,uint160,uint48,uint48)[],address,uint256),bytes)":"2a2d80d1","transferFrom((address,address,uint160,address)[])":"0d58b1db","transferFrom(address,address,uint160,address)":"36c78516"},"id":33}