{"abi":[{"type":"function","name":"__Tstorish_init","inputs":[],"outputs":[],"stateMutability":"nonpayable"},{"type":"function","name":"__activateTstore","inputs":[],"outputs":[],"stateMutability":"nonpayable"},{"type":"event","name":"Initialized","inputs":[{"name":"version","type":"uint64","indexed":false,"internalType":"uint64"}],"anonymous":false},{"type":"error","name":"InvalidInitialization","inputs":[]},{"type":"error","name":"NotInitializing","inputs":[]},{"type":"error","name":"OnlyDirectCalls","inputs":[]},{"type":"error","name":"TStoreAlreadyActivated","inputs":[]},{"type":"error","name":"TStoreNotSupported","inputs":[]},{"type":"error","name":"TloadTestContractDeploymentFailed","inputs":[]}],"bytecode":{"object":"0x608080604052346015576102ef908161001a8239f35b5f80fdfe60806040526004361015610011575f80fd5b5f3560e01c80632720ee4e1461003457637423eb3c1461002f575f80fd5b6101b2565b346101ae575f3660031901126101ae5760ff7ff0c57e16840df040f15088dc2f81fe391c3923bec73e23a9662efc9c229c6a005460401c161561019d57696002601e613d5c3d52f35f52600a60165ff06001600160a01b0381161561018c57806101226100a361014893610262565b801561014a575f805467ffffffffffffffff60b01b1916600160b01b1790556100db600367ffffffffffffffff196001541617600155565b610104680500000000000000006fffffffffffffffff0000000000000000196001541617600155565b5f805460ff60a81b191691151560a81b60ff60a81b16919091179055565b5f8054610100600160a81b03191660089290921b610100600160a81b0316919091179055565b005b5f805467ffffffffffffffff60b01b1916600160b11b179055600180546fffffffffffffffffffffffffffffffff191668060000000000000004179055610104565b632aea588760e01b60805260046080fd5b631afcd79f60e31b60805260046080fd5b5f80fd5b346101ae575f3660031901126101ae5732330361023c575f5460ff8160a81c168015610232575b610220576101fa906101f69060081c6001600160a01b0316610262565b1590565b61020e57610148600160ff195f5416175f55565b6040516370a4078f60e01b8152600490fd5b604051630f45b98b60e41b8152600490fd5b5060ff81166101d9565b60405163096650c560e21b8152600490fd5b634e487b7160e01b5f52604160045260245ffd5b5f80808093600a5a04fa3d156102b65767ffffffffffffffff3d8181116102b15760405191601f8201601f19908116603f01168301908111838210176102b15760405281525f60203d92013e90565b61024e565b9056fea26469706673582212200c7a57a1a29d325a0f164eee6eb8b3a4333a293e8a451d02674bd1a3bf63996564736f6c63430008190033","linkReferences":{}},"methodIdentifiers":{"__Tstorish_init()":"2720ee4e","__activateTstore()":"7423eb3c"},"id":83}