{"abi":[{"type":"constructor","inputs":[{"name":"_allocator","type":"address","internalType":"address"}],"stateMutability":"nonpayable"},{"type":"receive","stateMutability":"payable"},{"type":"function","name":"_CALL3VALUE_TYPEHASH","inputs":[],"outputs":[{"name":"","type":"bytes32","internalType":"bytes32"}],"stateMutability":"view"},{"type":"function","name":"_CALL_REQUEST_TYPEHASH","inputs":[],"outputs":[{"name":"","type":"bytes32","internalType":"bytes32"}],"stateMutability":"view"},{"type":"function","name":"allocator","inputs":[],"outputs":[{"name":"","type":"address","internalType":"address"}],"stateMutability":"view"},{"type":"function","name":"callRequests","inputs":[{"name":"","type":"bytes32","internalType":"bytes32"}],"outputs":[{"name":"","type":"bool","internalType":"bool"}],"stateMutability":"view"},{"type":"function","name":"cancelOwnershipHandover","inputs":[],"outputs":[],"stateMutability":"payable"},{"type":"function","name":"completeOwnershipHandover","inputs":[{"name":"pendingOwner","type":"address","internalType":"address"}],"outputs":[],"stateMutability":"payable"},{"type":"function","name":"depositErc20","inputs":[{"name":"depositor","type":"address","internalType":"address"},{"name":"token","type":"address","internalType":"address"},{"name":"amount","type":"uint256","internalType":"uint256"},{"name":"id","type":"bytes32","internalType":"bytes32"}],"outputs":[],"stateMutability":"nonpayable"},{"type":"function","name":"depositNative","inputs":[{"name":"depositor","type":"address","internalType":"address"},{"name":"id","type":"bytes32","internalType":"bytes32"}],"outputs":[],"stateMutability":"payable"},{"type":"function","name":"eip712Domain","inputs":[],"outputs":[{"name":"fields","type":"bytes1","internalType":"bytes1"},{"name":"name","type":"string","internalType":"string"},{"name":"version","type":"string","internalType":"string"},{"name":"chainId","type":"uint256","internalType":"uint256"},{"name":"verifyingContract","type":"address","internalType":"address"},{"name":"salt","type":"bytes32","internalType":"bytes32"},{"name":"extensions","type":"uint256[]","internalType":"uint256[]"}],"stateMutability":"view"},{"type":"function","name":"execute","inputs":[{"name":"request","type":"tuple","internalType":"struct CallRequest","components":[{"name":"call3Values","type":"tuple[]","internalType":"struct Call3Value[]","components":[{"name":"target","type":"address","internalType":"address"},{"name":"allowFailure","type":"bool","internalType":"bool"},{"name":"value","type":"uint256","internalType":"uint256"},{"name":"callData","type":"bytes","internalType":"bytes"}]},{"name":"nonce","type":"uint256","internalType":"uint256"}]},{"name":"signature","type":"bytes","internalType":"bytes"}],"outputs":[{"name":"returnData","type":"tuple[]","internalType":"struct Result[]","components":[{"name":"success","type":"bool","internalType":"bool"},{"name":"returnData","type":"bytes","internalType":"bytes"}]}],"stateMutability":"nonpayable"},{"type":"function","name":"owner","inputs":[],"outputs":[{"name":"result","type":"address","internalType":"address"}],"stateMutability":"view"},{"type":"function","name":"ownershipHandoverExpiresAt","inputs":[{"name":"pendingOwner","type":"address","internalType":"address"}],"outputs":[{"name":"result","type":"uint256","internalType":"uint256"}],"stateMutability":"view"},{"type":"function","name":"renounceOwnership","inputs":[],"outputs":[],"stateMutability":"payable"},{"type":"function","name":"requestOwnershipHandover","inputs":[],"outputs":[],"stateMutability":"payable"},{"type":"function","name":"setAllocator","inputs":[{"name":"_allocator","type":"address","internalType":"address"}],"outputs":[],"stateMutability":"nonpayable"},{"type":"function","name":"transferOwnership","inputs":[{"name":"newOwner","type":"address","internalType":"address"}],"outputs":[],"stateMutability":"payable"},{"type":"event","name":"CallExecuted","inputs":[{"name":"digest","type":"bytes32","indexed":false,"internalType":"bytes32"},{"name":"target","type":"address","indexed":false,"internalType":"address"},{"name":"success","type":"bool","indexed":false,"internalType":"bool"}],"anonymous":false},{"type":"event","name":"Deposit","inputs":[{"name":"depositor","type":"address","indexed":false,"internalType":"address"},{"name":"token","type":"address","indexed":false,"internalType":"address"},{"name":"value","type":"uint256","indexed":false,"internalType":"uint256"},{"name":"id","type":"bytes32","indexed":false,"internalType":"bytes32"}],"anonymous":false},{"type":"event","name":"OwnershipHandoverCanceled","inputs":[{"name":"pendingOwner","type":"address","indexed":true,"internalType":"address"}],"anonymous":false},{"type":"event","name":"OwnershipHandoverRequested","inputs":[{"name":"pendingOwner","type":"address","indexed":true,"internalType":"address"}],"anonymous":false},{"type":"event","name":"OwnershipTransferred","inputs":[{"name":"oldOwner","type":"address","indexed":true,"internalType":"address"},{"name":"newOwner","type":"address","indexed":true,"internalType":"address"}],"anonymous":false},{"type":"error","name":"AddressCannotBeZero","inputs":[]},{"type":"error","name":"AlreadyInitialized","inputs":[]},{"type":"error","name":"CallFailed","inputs":[{"name":"returnData","type":"bytes","internalType":"bytes"}]},{"type":"error","name":"CallRequestAlreadyUsed","inputs":[]},{"type":"error","name":"InvalidSignature","inputs":[]},{"type":"error","name":"NewOwnerIsZeroAddress","inputs":[]},{"type":"error","name":"NoHandoverRequest","inputs":[]},{"type":"error","name":"Unauthorized","inputs":[]}],"bytecode":{"object":"0x6101203461016057601f61112738819003918201601f19168301916001600160401b038311848410176101645780849260209460405283398101031261016057516001600160a01b0381169081900361016057306080524660a05260a0610064610178565b600c81526001602082016b21b932b234ba26b0b9ba32b960a11b8152602061008a610178565b8381520192603160f81b845251902091208160c0528060e052604051917f8b73c3c69bb8fe3d512ecc4cf759cc79239f7b179b0ffacaa9a75d522b39400f835260208301526040820152466060820152306080820152209061010091825260018060a01b0319600154161760015533638b78c6d81955335f7f8be0079c531659141344cd1fd0a4f28419497f9722a3daafe3b4186f6b6457e08180a3604051610f8f91826101988339608051826103d5015260a051826103f8015260c05182610833015260e05182610858015251816103b30152f35b5f80fd5b634e487b7160e01b5f52604160045260245ffd5b60408051919082016001600160401b038111838210176101645760405256fe60806040526004361015610056575b3615610018575f80fd5b7f76bb911c362d5b1feb3058bc7dc9354703e4b6eb9c61cc845f73da880cf62f6160806040513381525f60208201523460408201525f6060820152a1005b5f3560e01c80632569296214610d7457806349290c1c14610d0557806354d1f13d14610cc1578063715018a614610c7d57806384b0196e14610bb15780638da5cb5b14610b85578063aa5dcecc14610b5d578063bf83f2a214610aff578063cf641c6114610ac5578063d52bfcc814610a97578063e8017952146109ca578063eae335b314610990578063f04e283e14610914578063f2fde38b146108aa578063fcf4e894146101405763fee81cf40361000e573461013c57602036600319011261013c57610123610dbd565b63389a75e1600c525f52602080600c2054604051908152f35b5f80fd5b3461013c5760031960403682011261013c5760043567ffffffffffffffff811161013c5760408160040192823603011261013c5760243567ffffffffffffffff811161013c57610194903690600401610e87565b61019e8380610ea5565b9190506101c36101ad83610ef7565b926101bb6040519485610e13565b808452610ef7565b6020830193601f19929183013686375f5b6101de8780610ea5565b905081101561031e576101fb816101f58980610ea5565b90610f0f565b356001600160a01b038116919082900361013c57602061021f826101f58b80610ea5565b01359182151580930361013c57604061023c836101f58c80610ea5565b01359261024d836101f58c80610ea5565b936060948581013590601e198136030182121561013c570180359067ffffffffffffffff821161013c57602001813603811361013c5761028e913691610e51565b60208151910120916040519560208701947ffd3926a097b5d365885a8c0afe16fa80ed4d377e8627017476dfe9729e8a6cde86526040880152860152608085015260a09081850152835260c083019280841067ffffffffffffffff85111761030a576001936040525190206103038288610f45565b52016101d4565b634e487b7160e01b5f52604160045260245ffd5b50604051845187929160208101918890829084905f5b81811061089157505061034e925003878101835282610e13565b5190209060246040519160208301937fdfc9a8c64618819df5e08d787c1762eee86d395a752ee183bf232570330846fb855260408401520135606082015260608152608081019181831067ffffffffffffffff84111761030a578260405281519020917f0000000000000000000000000000000000000000000000000000000000000000917f000000000000000000000000000000000000000000000000000000000000000030147f00000000000000000000000000000000000000000000000000000000000000004614161561080a575b50506719010000000000005f52601a52603a526042601820915f603a5260018060a01b0360015416805f926020810192610723575b5050501561071157815f525f60205260ff60405f2054166106ff5761049090825f525f60205260405f20600160ff1982541617905580610ea5565b61049c81939293610ef7565b936104aa6040519586610e13565b8185526104b682610ef7565b015f5b8181106106db5750505f5b81811061054557846040518091602082016020835281518091526040830190602060408260051b8601019301915f905b82821061050357505050500390f35b919360019193955060206105358192603f198a82030186526040838a5180511515845201519181858201520190610dd3565b96019201920185949391926104f4565b610550818386610f0f565b60808136031261013c57604051906080820182811067ffffffffffffffff82111761030a5760405280356001600160a01b038116810361013c5782526020810135801515810361013c5760208301526040810135604083015267ffffffffffffffff60608201351161013c575f6105cf81923690606081013501610e87565b6060840181905283516040850151825192602001916001600160a01b03165af1903d156106d3573d9161060183610e35565b9261060f6040519485610e13565b83523d5f602085013e5b159182806106c7575b61069e57600193927fdd47ada4a6a36e1356770bd8d37e79c48ff4eef3f33479164e0dacbbcc1e6e82926060926040519061065c82610df7565b83158252602082015261066f868c610f45565b5261067a858b610f45565b50858060a01b0390511690604051918883526020830152156040820152a1016104c4565b60405163a5fa8d2b60e01b8152602060048201529081906106c3906024830190610dd3565b0390fd5b50602082015115610622565b606091610619565b6020906040516106ea81610df7565b5f8152606083820152828289010152016104b9565b604051630929056560e31b8152600490fd5b604051638baa579f60e01b8152600490fd5b9091925060405192855f525160405260408151146107c9575b6041815114610790575b6020905f60605283604052630b135d3f60e11b92838552866004860152602485019485926040845280518501604491818385019160045afa503d01915afa91511416848080610455565b60608101515f1a60205260408101516060526020600160805f825afa5182183d15176107465750505f6060526040526001848080610455565b6040810151601b8160ff1c0160205260018060ff1b03166060526020600160805f825afa5182183d151761073c5750505f6060526040526001848080610455565b60a092507f8b73c3c69bb8fe3d512ecc4cf759cc79239f7b179b0ffacaa9a75d522b39400f82527f0000000000000000000000000000000000000000000000000000000000000000838201527f000000000000000000000000000000000000000000000000000000000000000060c08201524660e082015261010030910152208580610420565b8451835260209485019486945090920191600101610334565b602036600319011261013c576108be610dbd565b6108c6610edb565b8060601b156109075760018060a01b0316638b78c6d8198181547f8be0079c531659141344cd1fd0a4f28419497f9722a3daafe3b4186f6b6457e05f80a355005b637448fbae5f526004601cfd5b602036600319011261013c57610928610dbd565b610930610edb565b63389a75e1600c52805f526020600c2080544211610983575f905560018060a01b0316638b78c6d8198181547f8be0079c531659141344cd1fd0a4f28419497f9722a3daafe3b4186f6b6457e05f80a355005b636f5e88185f526004601cfd5b3461013c575f36600319011261013c5760206040517fdfc9a8c64618819df5e08d787c1762eee86d395a752ee183bf232570330846fb8152f35b3461013c57608036600319011261013c576109e3610dbd565b6001600160a01b039060243582811680820361013c576044359060205f6064601c826040519787606052306040523360601b602c526323b872dd60601b600c525af13d1560015f5114171615610a8a577f76bb911c362d5b1feb3058bc7dc9354703e4b6eb9c61cc845f73da880cf62f61946080945f60605284604052818116155f14610a855750335b168352602083015260408201526064356060820152a1005b610a6d565b637939f4245f526004601cfd5b3461013c57602036600319011261013c576004355f525f602052602060ff60405f2054166040519015158152f35b3461013c575f36600319011261013c5760206040517ffd3926a097b5d365885a8c0afe16fa80ed4d377e8627017476dfe9729e8a6cde8152f35b3461013c57602036600319011261013c57610b18610dbd565b610b20610edb565b6001600160a01b03168015610b4b576bffffffffffffffffffffffff60a01b60015416176001555f80f35b6040516303988b8160e61b8152600490fd5b3461013c575f36600319011261013c576001546040516001600160a01b039091168152602090f35b3461013c575f36600319011261013c57638b78c6d819546040516001600160a01b039091168152602090f35b3461013c575f36600319011261013c57604051610bcd81610df7565b600c81526020906b21b932b234ba26b0b9ba32b960a11b82820152604051610bf481610df7565b610c3360019160018152603160f81b85820152610c2560405194600f60f81b865260e08787015260e0860190610dd3565b908482036040860152610dd3565b924660608401523060808401525f60a084015282840360c0840152806060519485815201936080915f5b828110610c6a5785870386f35b8351875295810195928101928401610c5d565b5f36600319011261013c57610c90610edb565b5f638b78c6d8198181547f8be0079c531659141344cd1fd0a4f28419497f9722a3daafe3b4186f6b6457e08280a355005b5f36600319011261013c5763389a75e1600c52335f525f6020600c2055337ffa7b8eab7da67f412cc9575ed43464468f9bfbae89d1675917346ca6d8fe3c925f80a2005b604036600319011261013c577f76bb911c362d5b1feb3058bc7dc9354703e4b6eb9c61cc845f73da880cf62f616080610d3c610dbd565b6001600160a01b0390808216610d6e575033905b604051911681525f60208201523460408201526024356060820152a1005b90610d50565b5f36600319011261013c5763389a75e1600c52335f526202a30042016020600c2055337fdbf36a107da19e49527a7176a1babf963b4b0ff8cde35ee35d6cd8f1f9ac7e1d5f80a2005b600435906001600160a01b038216820361013c57565b805180835260209291819084018484015e5f828201840152601f01601f1916010190565b6040810190811067ffffffffffffffff82111761030a57604052565b90601f8019910116810190811067ffffffffffffffff82111761030a57604052565b67ffffffffffffffff811161030a57601f01601f191660200190565b929192610e5d82610e35565b91610e6b6040519384610e13565b82948184528183011161013c578281602093845f960137010152565b9080601f8301121561013c57816020610ea293359101610e51565b90565b903590601e198136030182121561013c570180359067ffffffffffffffff821161013c57602001918160051b3603831361013c57565b638b78c6d819543303610eea57565b6382b429005f526004601cfd5b67ffffffffffffffff811161030a5760051b60200190565b9190811015610f315760051b81013590607e198136030182121561013c570190565b634e487b7160e01b5f52603260045260245ffd5b8051821015610f315760209160051b01019056fea26469706673582212203daa74a3b666c716c35063db83fa24839f67da429b2361f1f8d34f166326d54764736f6c63430008190033","linkReferences":{}},"methodIdentifiers":{"_CALL3VALUE_TYPEHASH()":"cf641c61","_CALL_REQUEST_TYPEHASH()":"eae335b3","allocator()":"aa5dcecc","callRequests(bytes32)":"d52bfcc8","cancelOwnershipHandover()":"54d1f13d","completeOwnershipHandover(address)":"f04e283e","depositErc20(address,address,uint256,bytes32)":"e8017952","depositNative(address,bytes32)":"49290c1c","eip712Domain()":"84b0196e","execute(((address,bool,uint256,bytes)[],uint256),bytes)":"fcf4e894","owner()":"8da5cb5b","ownershipHandoverExpiresAt(address)":"fee81cf4","renounceOwnership()":"715018a6","requestOwnershipHandover()":"25692962","setAllocator(address)":"bf83f2a2","transferOwnership(address)":"f2fde38b"},"id":66}