{"abi":[{"type":"constructor","inputs":[{"name":"owner","type":"address","internalType":"address"}],"stateMutability":"nonpayable"},{"type":"receive","stateMutability":"payable"},{"type":"function","name":"__activateTstore","inputs":[],"outputs":[],"stateMutability":"nonpayable"},{"type":"function","name":"cancelOwnershipHandover","inputs":[],"outputs":[],"stateMutability":"payable"},{"type":"function","name":"cleanupErc20s","inputs":[{"name":"tokens","type":"address[]","internalType":"address[]"},{"name":"recipients","type":"address[]","internalType":"address[]"},{"name":"amounts","type":"uint256[]","internalType":"uint256[]"}],"outputs":[],"stateMutability":"nonpayable"},{"type":"function","name":"cleanupErc20sViaCall","inputs":[{"name":"tokens","type":"address[]","internalType":"address[]"},{"name":"tos","type":"address[]","internalType":"address[]"},{"name":"datas","type":"bytes[]","internalType":"bytes[]"},{"name":"amounts","type":"uint256[]","internalType":"uint256[]"}],"outputs":[],"stateMutability":"nonpayable"},{"type":"function","name":"cleanupNative","inputs":[{"name":"amount","type":"uint256","internalType":"uint256"},{"name":"recipient","type":"address","internalType":"address"}],"outputs":[],"stateMutability":"nonpayable"},{"type":"function","name":"cleanupNativeViaCall","inputs":[{"name":"amount","type":"uint256","internalType":"uint256"},{"name":"to","type":"address","internalType":"address"},{"name":"data","type":"bytes","internalType":"bytes"}],"outputs":[],"stateMutability":"nonpayable"},{"type":"function","name":"completeOwnershipHandover","inputs":[{"name":"pendingOwner","type":"address","internalType":"address"}],"outputs":[],"stateMutability":"payable"},{"type":"function","name":"multicall","inputs":[{"name":"calls","type":"tuple[]","internalType":"struct Call3Value[]","components":[{"name":"target","type":"address","internalType":"address"},{"name":"allowFailure","type":"bool","internalType":"bool"},{"name":"value","type":"uint256","internalType":"uint256"},{"name":"callData","type":"bytes","internalType":"bytes"}]},{"name":"refundTo","type":"address","internalType":"address"},{"name":"nftRecipient","type":"address","internalType":"address"}],"outputs":[{"name":"returnData","type":"tuple[]","internalType":"struct Result[]","components":[{"name":"success","type":"bool","internalType":"bool"},{"name":"returnData","type":"bytes","internalType":"bytes"}]}],"stateMutability":"payable"},{"type":"function","name":"onERC1155BatchReceived","inputs":[{"name":"","type":"address","internalType":"address"},{"name":"","type":"address","internalType":"address"},{"name":"_ids","type":"uint256[]","internalType":"uint256[]"},{"name":"_values","type":"uint256[]","internalType":"uint256[]"},{"name":"_data","type":"bytes","internalType":"bytes"}],"outputs":[{"name":"","type":"bytes4","internalType":"bytes4"}],"stateMutability":"nonpayable"},{"type":"function","name":"onERC1155Received","inputs":[{"name":"","type":"address","internalType":"address"},{"name":"","type":"address","internalType":"address"},{"name":"_id","type":"uint256","internalType":"uint256"},{"name":"_value","type":"uint256","internalType":"uint256"},{"name":"_data","type":"bytes","internalType":"bytes"}],"outputs":[{"name":"","type":"bytes4","internalType":"bytes4"}],"stateMutability":"nonpayable"},{"type":"function","name":"onERC721Received","inputs":[{"name":"","type":"address","internalType":"address"},{"name":"","type":"address","internalType":"address"},{"name":"_tokenId","type":"uint256","internalType":"uint256"},{"name":"_data","type":"bytes","internalType":"bytes"}],"outputs":[{"name":"","type":"bytes4","internalType":"bytes4"}],"stateMutability":"nonpayable"},{"type":"function","name":"owner","inputs":[],"outputs":[{"name":"result","type":"address","internalType":"address"}],"stateMutability":"view"},{"type":"function","name":"ownershipHandoverExpiresAt","inputs":[{"name":"pendingOwner","type":"address","internalType":"address"}],"outputs":[{"name":"result","type":"uint256","internalType":"uint256"}],"stateMutability":"view"},{"type":"function","name":"renounceOwnership","inputs":[],"outputs":[],"stateMutability":"payable"},{"type":"function","name":"requestOwnershipHandover","inputs":[],"outputs":[],"stateMutability":"payable"},{"type":"function","name":"transferOwnership","inputs":[{"name":"newOwner","type":"address","internalType":"address"}],"outputs":[],"stateMutability":"payable"},{"type":"event","name":"OwnershipHandoverCanceled","inputs":[{"name":"pendingOwner","type":"address","indexed":true,"internalType":"address"}],"anonymous":false},{"type":"event","name":"OwnershipHandoverRequested","inputs":[{"name":"pendingOwner","type":"address","indexed":true,"internalType":"address"}],"anonymous":false},{"type":"event","name":"OwnershipTransferred","inputs":[{"name":"oldOwner","type":"address","indexed":true,"internalType":"address"},{"name":"newOwner","type":"address","indexed":true,"internalType":"address"}],"anonymous":false},{"type":"event","name":"SolverCallExecuted","inputs":[{"name":"to","type":"address","indexed":false,"internalType":"address"},{"name":"data","type":"bytes","indexed":false,"internalType":"bytes"},{"name":"amount","type":"uint256","indexed":false,"internalType":"uint256"}],"anonymous":false},{"type":"event","name":"SolverNativeTransfer","inputs":[{"name":"to","type":"address","indexed":false,"internalType":"address"},{"name":"amount","type":"uint256","indexed":false,"internalType":"uint256"}],"anonymous":false},{"type":"error","name":"AlreadyInitialized","inputs":[]},{"type":"error","name":"ArrayLengthsMismatch","inputs":[]},{"type":"error","name":"CallFailed","inputs":[]},{"type":"error","name":"InvalidMsgSender","inputs":[{"name":"storedSender","type":"address","internalType":"address"},{"name":"actualSender","type":"address","internalType":"address"}]},{"type":"error","name":"InvalidRecipient","inputs":[{"name":"recipient","type":"address","internalType":"address"}]},{"type":"error","name":"InvalidTarget","inputs":[{"name":"target","type":"address","internalType":"address"}]},{"type":"error","name":"NativeTransferFailed","inputs":[]},{"type":"error","name":"NewOwnerIsZeroAddress","inputs":[]},{"type":"error","name":"NoHandoverRequest","inputs":[]},{"type":"error","name":"NoRecipientSet","inputs":[]},{"type":"error","name":"OnlyDirectCalls","inputs":[]},{"type":"error","name":"TStoreAlreadyActivated","inputs":[]},{"type":"error","name":"TStoreNotSupported","inputs":[]},{"type":"error","name":"TloadTestContractDeploymentFailed","inputs":[]},{"type":"error","name":"Unauthorized","inputs":[]}],"bytecode":{"object":"0x61012060405234610081576116e36020813803918261001d81610099565b93849283398101031261008157516001600160a01b038116810361008157610044906100c3565b6040516114dd90816102068239608051816107f9015260a051816107c7015260c0518161107e015260e05181610f77015261010051816113d10152f35b5f80fd5b634e487b7160e01b5f52604160045260245ffd5b6040519190601f01601f191682016001600160401b038111838210176100be57604052565b610085565b7f9b779b17422d0df92223018b32b4d1fa46e071723d6817e2486d003becc55f005f55696002601e613d5c3d52f35f52600a60165ff0906001600160a01b038216156101785781610116610161936101c3565b801561016357600160c052600360e0526005610100525b60a05260805261015c7f72dc4effd7d159affb1f4d451190a65a842cb9499f45eb1ae60b404ca68ad9d8600255565b61018a565b565b600260c052600460e05260066101005261012d565b604051632aea588760e01b8152600490fd5b6001600160a01b0316638b78c6d8198190555f7f8be0079c531659141344cd1fd0a4f28419497f9722a3daafe3b4186f6b6457e08180a3565b5f80808093600a5a04fa3d15610202573d6001600160401b0381116100be576101f5601f8201601f1916602001610099565b9081525f60203d92013e90565b9056fe60806040526004361015610022575b3615610018575f80fd5b610020610f4c565b005b5f3560e01c8063150b7a0214610121578063256929621461011c57806330be5567146101175780633b2253c81461011257806354d1f13d1461010d5780635d1fe6a2146101085780635de81e3f14610103578063715018a6146100fe57806373b7bb2f146100f95780637423eb3c146100f45780638da5cb5b146100ef578063bc197c81146100ea578063f04e283e146100e5578063f23a6e61146100e0578063f2fde38b146100db5763fee81cf40361000e57610aa0565b610a61565b61099c565b61094b565b6108a4565b610878565b6107ae565b610725565b6106e1565b61065d565b6105d3565b61058f565b610421565b61035c565b610254565b610168565b6001600160a01b0381160361013757565b5f80fd5b9181601f84011215610137578235916001600160401b038311610137576020838186019501011161013757565b3461013757608036600319011261013757610184600435610126565b61018f602435610126565b6064356001600160401b038111610137576101ae90369060040161013b565b906101b7610f72565b906001600160a01b0382161561023857333b15610137575f916101f36040519485938493635c46a7ef60e11b8552604435903060048701610b43565b038183335af180156102335761021a575b604051630a85bd0160e11b8152602090f35b0390f35b8061022761022d92610aea565b8061024a565b5f610204565b610b77565b60405163f36675c360e01b8152600490fd5b5f91031261013757565b5f3660031901126101375763389a75e1600c52335f526202a30042016020600c2055337fdbf36a107da19e49527a7176a1babf963b4b0ff8cde35ee35d6cd8f1f9ac7e1d5f80a2005b9181601f84011215610137578235916001600160401b038311610137576020808501948460051b01011161013757565b6020808201908083528351809252604092604081018260408560051b8401019601945f925b858410610303575050505050505090565b909192939495968580600192603f19858203018752818b518051151583520151908683820152815180888301528084606094018484015e5f828201840152601f01601f19160101990197969591909101930191906102f2565b6060366003190112610137576004356001600160401b0381116101375761038790369060040161029d565b6024359061039482610126565b604435926103a184610126565b6103a9610fcb565b5f54805c6001600160a01b031680151580610417575b8061040d575b6103ef576102166103db8787878733885d610fe7565b6103e3611139565b604051918291826102cd565b6044906040519063200991eb60e21b82526004820152336024820152fd5b50303314156103c5565b50338114156103bf565b346101375760603660031901126101375760046001600160401b03813581811161013757610452903690840161029d565b91906024358281116101375761046b903690860161029d565b909260443590811161013757610484903690870161029d565b91909261048f610fcb565b828614801590610585575b610574575f5b8681106104a957005b6104bc6104b7828985610be1565b610bf6565b906104cb6104b782868a610be1565b916104d7828789610be1565b3561055b576040516370a0823160e01b8152308b8201908152909360209291839086908190830103816001600160a01b0386165afa801561023357600195610528945f9261052e575b505091611435565b016104a0565b61054d9250803d10610554575b6105458183610b02565b810190610c4d565b5f80610520565b503d61053b565b6105289060019361056d84898b610be1565b3591611435565b604051631dc0052360e11b81528790fd5b508183141561049a565b5f3660031901126101375763389a75e1600c52335f525f6020600c2055337ffa7b8eab7da67f412cc9575ed43464468f9bfbae89d1675917346ca6d8fe3c925f80a2005b34610137576060366003190112610137576004356024356105f381610126565b604435906001600160401b038211610137575f926106168493369060040161013b565b9180158514610657575047905b826040519384928337810185815203925af161063d610b8f565b501561064557005b604051633204506f60e01b8152600490fd5b90610623565b34610137576040366003190112610137575f8051602061148883398151915260043560243561068b81610126565b610693610fcb565b6001600160a01b0381166106db575033905b806106d5575047905b6106b88282611419565b604080516001600160a01b039290921682526020820192909252a1005b906106ae565b906106a5565b5f366003190112610137576106f4610fcb565b5f638b78c6d8198181547f8be0079c531659141344cd1fd0a4f28419497f9722a3daafe3b4186f6b6457e08280a355005b34610137576080366003190112610137576001600160401b036004358181116101375761075690369060040161029d565b906024358381116101375761076f90369060040161029d565b906044358581116101375761078890369060040161029d565b929091606435968711610137576107a661002097369060040161029d565b969095610c74565b34610137575f36600319011261013757323303610866577f0000000000000000000000000000000000000000000000000000000000000000801561085a575b6108485761082161081d7f0000000000000000000000000000000000000000000000000000000000000000611123565b1590565b61083657610020600160ff1981541617600155565b6040516370a4078f60e01b8152600490fd5b604051630f45b98b60e41b8152600490fd5b5060015460ff166107ed565b60405163096650c560e21b8152600490fd5b34610137575f36600319011261013757638b78c6d819546040516001600160a01b039091168152602090f35b346101375760a0366003190112610137576108c0600435610126565b6108cb602435610126565b6001600160401b03604435818111610137576108eb90369060040161029d565b6064929192358281116101375761090690369060040161029d565b608494919435938411610137576102169461092861093095369060040161013b565b949093610e68565b6040516001600160e01b031990911681529081906020820190565b60203660031901126101375760043561096381610126565b61096b610fcb565b63389a75e1600c52805f526020600c20908154421161098f575f61002092556110eb565b636f5e88185f526004601cfd5b346101375760a0366003190112610137576109b8600435610126565b6109c3602435610126565b6084356001600160401b038111610137576109e290369060040161013b565b906109eb610f72565b906001600160a01b0382161561023857333b15610137575f91610a2b6040519485938493637921219560e11b855260643590604435903060048801610f19565b038183335af1801561023357610a4e575b60405163f23a6e6160e01b8152602090f35b80610227610a5b92610aea565b5f610a3c565b602036600319011261013757600435610a7981610126565b610a81610fcb565b8060601b15610a9357610020906110eb565b637448fbae5f526004601cfd5b3461013757602036600319011261013757600435610abd81610126565b63389a75e1600c525f52602080600c2054604051908152f35b634e487b7160e01b5f52604160045260245ffd5b6001600160401b038111610afd57604052565b610ad6565b90601f801991011681019081106001600160401b03821117610afd57604052565b908060209392818452848401375f828201840152601f01601f1916010190565b6001600160a01b039182168152911660208201526040810191909152608060608201819052610b7493910191610b23565b90565b6040513d5f823e3d90fd5b908092918237015f815290565b3d15610bc8573d906001600160401b038211610afd5760405191610bbd601f8201601f191660200184610b02565b82523d5f602084013e565b606090565b634e487b7160e01b5f52603260045260245ffd5b9190811015610bf15760051b0190565b610bcd565b35610b7481610126565b903590601e198136030182121561013757018035906001600160401b0382116101375760200191813603831361013757565b90821015610bf157610c499160051b810190610c00565b9091565b90816020910312610137575190565b90816020910312610137575180151581036101375790565b9592909694919396858114801590610e3a575b8015610e30575b610e1e575f5b818110610ca657505050505050505050565b838588888c8583610ce58f610cdd84610cd56104b78f8f90610ccf6104b7868099948195610be1565b9b610be1565b9a8b97610c32565b979098610be1565b35610e085750506040516370a0823160e01b8152306004820152926020915081846024816001600160a01b0387165afa801561023357610d659487935f92610deb575b5050945b6040958651809563095ea7b360e01b8252815f8160209a8b9660049e8f840160209093929193604081019460018060a01b031681520152565b03926001600160a01b03165af1908115610233575f9586958693610dbd575b5050610d94875180948193610b82565b03925af1610da0610b8f565b5015610db0575050600101610c94565b51633204506f60e01b8152fd5b81610ddc92903d10610de4575b610dd48183610b02565b810190610c5c565b505f80610d84565b503d610dca565b610e019250803d10610554576105458183610b02565b5f80610d28565b610d659491610e17918d610be1565b3594610d2c565b604051631dc0052360e11b8152600490fd5b5082821415610c8e565b5081861415610c87565b81835290916001600160fb1b0383116101375760209260051b809284830137010190565b94909290916001600160a01b03610e7d610f72565b1692831561023857333b15610137575f95610eda610ee994610ec66040519a8b998a99631759616b60e11b8b523060048c015260248b015260a060448b015260a48a0191610e44565b9060031995868984030160648a0152610e44565b92858403016084860152610b23565b038183335af1801561023357610f06575b5063bc197c8160e01b90565b80610227610f1392610aea565b5f610efa565b9192610b7496949160a094600180871b038092168552166020840152604083015260608201528160808201520191610b23565b604080513081523460208201525f8051602061148883398151915291819081015b0390a1565b6002547f000000000000000000000000000000000000000000000000000000000000000080600414610fb357600303611473575c5b6001600160a01b031690565b5060015460ff1615610fc5575c610fa7565b54610fa7565b638b78c6d819543303610fda57565b6382b429005f526004601cfd5b6001600160a01b0394938516919082611071575b6110059250611272565b9261100e6113b6565b47611017575050565b811661105d57505f80516020611488833981519152335b479061103a8282611419565b604080516001600160a01b03909216825260208201929092529081908101610f6d565b5f805160206114888339815191529061102e565b3083146110d357600254927f0000000000000000000000000000000000000000000000000000000000000000806002146110b65760010361147357611005935d610ffb565b506110059360ff600154165f146110cd575d610ffb565b55610ffb565b604051630bc2c5df60e11b8152306004820152602490fd5b60018060a01b0316638b78c6d8198181547f8be0079c531659141344cd1fd0a4f28419497f9722a3daafe3b4186f6b6457e05f80a355565b5f80808093600a5a04fa611135610b8f565b5090565b5f80545d565b6001600160401b038111610afd5760051b60200190565b906111608261113f565b6040906111706040519182610b02565b8381528093611181601f199161113f565b01905f5b8281106111925750505050565b835190848201918083106001600160401b03841117610afd5760209286525f815282606081830152828501015201611185565b8051821015610bf15760209160051b010190565b9190811015610bf15760051b81013590607e1981360301821215610137570190565b949392916040926112219260018060a01b03168752606060208801526060870191610b23565b930152565b1561122d57565b60405162461bcd60e51b815260206004820152601a60248201527f4d756c746963616c6c333a2076616c7565206d69736d617463680000000000006044820152606490fd5b9190915f9061128084611156565b935f5b81811061129a57505050611298903414611226565b565b6112a481876111c5565b51936112b18284866111d9565b60409081810135809301966112c582610bf6565b905f806060850193876112d88688610c00565b91906112e88a5180948193610b82565b03925af16113076112f7610b8f565b9160209283850152839015159052565b815181850135171561137c575051600195949392919061132c575b5050505001611283565b7f93485dcd31a905e3ffd7b012abe3438fa8fa77f98ddc9f50e879d3fa7ccdc324936113646113709261135e85610bf6565b94610c00565b909451948594856111fb565b0390a15f808080611322565b62461bcd60e51b5f5260045260176024527f4d756c746963616c6c333a2063616c6c206661696c656400000000000000000060445260845ffd5b6001600160a01b036113c6610f72565b1615611298576002547f00000000000000000000000000000000000000000000000000000000000000008060061461140457600503611473575f905d565b505f9060ff600154168214611416575d565b55565b5f80809338935af11561142857565b63b12d13eb5f526004601cfd5b60105f604492602095829560145260345263a9059cbb60601b82525af13d1560015f5114171615611466575f603452565b6390b8ec185f526004601cfd5b634e487b7160e01b5f52605160045260245ffdfed35467972d1fda5b63c735f59d3974fa51785a41a92aa3ed1b70832836f8dba6a26469706673582212207fd48272dcc18237dab2ce3b78b2c7b4d28caa67b53183db5a2b477db88abcde64736f6c63430008190033","linkReferences":{}},"methodIdentifiers":{"__activateTstore()":"7423eb3c","cancelOwnershipHandover()":"54d1f13d","cleanupErc20s(address[],address[],uint256[])":"3b2253c8","cleanupErc20sViaCall(address[],address[],bytes[],uint256[])":"73b7bb2f","cleanupNative(uint256,address)":"5de81e3f","cleanupNativeViaCall(uint256,address,bytes)":"5d1fe6a2","completeOwnershipHandover(address)":"f04e283e","multicall((address,bool,uint256,bytes)[],address,address)":"30be5567","onERC1155BatchReceived(address,address,uint256[],uint256[],bytes)":"bc197c81","onERC1155Received(address,address,uint256,uint256,bytes)":"f23a6e61","onERC721Received(address,address,uint256,bytes)":"150b7a02","owner()":"8da5cb5b","ownershipHandoverExpiresAt(address)":"fee81cf4","renounceOwnership()":"715018a6","requestOwnershipHandover()":"25692962","transferOwnership(address)":"f2fde38b"},"id":74}